:020000040004F6
:10000000001001205505040067050400B5D5040063
:100010006B0504006D0504006F050400000000007E
:100020000000000000000000000000008D0504003A
:1000300073050400000000002506040035060400D6
:10004000A9370400FD3704000938040015380400FE
:10005000213804002D3804003938040045380400E4
:10006000513804005D380400B5370400C13704007E
:10007000CD370400D9370400E5370400F137040018
:10008000F938040079050400BD6204007905040014
:100090007905040079050400790504007905040058
:1000A000596804006568040029750400357504006A
:1000B00041750400716804007D680400790504003E
:1000C0007905040079050400790504007905040028
:1000D0007905040079050400790504007905040018
:1000E0007905040079050400790504007905040008
:1000F00079050400790504008995040095950400AC
:1001000079050400790504007905040079050400E7
:1001100079050400790504007905040079050400D7
:100120007905040079050400790504005994040058
:100130005D9404007D94040081940400859404007F
:1001400079050400790504007905040079050400A7
:10015000790504004562040079050400790504006E
:10016000554404006144040015440400D1430400D4
:1001700079050400D5440400B91D0400951D040050
:10018000C51D0400A11D0400AD1D04007905040077
:1001900079050400F51D0400D11D04007905040053
:1001A000DD1D0400E91D0400790504007905040043
:1001B000251E0400011E0400790504000D1E040024
:1001C000191E040079050400790504002963040060
:1001D00035630400416304004D63040079050400A5
:1001E0007905040059630400656304007163040029
:1001F0007D63040079050400790504008963040027
:1002000095630400A1630400AD6304007905040054
:1002100079050400B9630400C5630400D1630400D8
:10022000DD6304007905040079050400E963040036
:10023000F5630400016404000D6404007905040002
:100240007905040019640400256404003164040085
:100250003D64040079050400790504004964040044
:1002600055640400616404006D64040079050400B1
:100270007905040079640400856404009164040035
:100280009D640400790504007905040079050400E3
:100290007905040079050400790504007905040056
:1002A0007905040079050400790504007905040046
:1002B0007905040079050400790504007905040036
:1002C0007905040079050400790504007905040026
:1002D0007905040079050400790504007905040016
:1002E0007905040079050400790504007905040006
:1002F00079050400790504007905040079050400F6
:1003000079050400790504007905040079050400E5
:1003100079050400790504007905040079050400D5
:1003200079050400790504007905040079050400C5
:1003300079050400790504007905040079050400B5
:1003400079050400790504007905040079050400A5
:100350007905040079050400790504007905040095
:100360007905040079050400790504007905040085
:100370007905040079050400790504007905040075
:100380007905040079050400790504007905040065
:100390007905040079050400790504007905040055
:1003A0007905040079050400790504007905040045
:1003B0007905040079050400790504007905040035
:1003C0007905040079050400790504007905040025
:1003D0007905040079050400790504007905040015
:1003E0007905040079050400790504007905040005
:1003F000790504007905040079050400FFFFFFFF7B
:020000040004F6
:1004000000F002F800F092F80AA090E8000C824494
:100410008344AAF10107DA4501D100F087F8AFF271
:10042000090EBAE80F0013F0010F18BFFB1A43F0D2
:1004300001031847BCDC00000CDD0000103A24BFAB
:1004400078C878C1FAD8520724BF30C830C144BF39
:1004500004680C607047000000230024002500267B
:10046000103A28BF78C1FBD8520728BF30C148BF17
:100470000B6070476E2900F00084702900F0B18194
:1004800066290DF04C8165290DF0498167290DF031
:10049000468161290DF0458103681B0A28BF41F0A0
:1004A0008001692900F02281642900F01F817529EB
:1004B00000F01C816F2900F0EF84782900F07D8125
:1004C000E92900F08984E42900F08684F52900F008
:1004D0008384EF2900F0EC84F82900F07C81036824
:1004E000DB0928BF41F08001632900F00A847329E9
:1004F00000F00F84E32901F0CB80F32901F0D080D4
:10050000002070471FB50DF0FDF800F01FFB040040
:10051000002000210DF0CAF8401C6060002000217E
:100520000DF0DAF8E0601FBD10B510BDDFF814D093
:1005300003B409F089FD03BCFFF7E4FF0AF0B0FC47
:1005400001F008FA0010012003B4FFF7EDFF03BC2F
:1005500000F0B8FC094872B609488047094880474E
:1005600062B609480047FEE7FEE7FEE7FEE7FEE762
:10057000FEE7FEE7FEE7FEE7FEE70000E0E004003E
:10058000E99D040051AC0400010404001EF0040FB6
:100590000CBFEFF30880EFF30980816911F8021CAA
:1005A00091BB01B590E80F10E047BDE800508CE822
:1005B0000300244B93E80600914208BF704741B9FD
:1005C0001EF0100F10D12049086820F001000860CB
:1005D0000AE02CE9F00F1EF0100F08BF2CED108A76
:1005E000C1F838C081F822E01A6092F82210906BAE
:1005F00061F0FF0E1EF0100F08BFB0EC108AB0E8DB
:10060000F00F80F309887047104A13689942FAD8AE
:1006100001B552F821C00FC8E047BDE80050CCF842
:100620000000704701B50BF0D1F9BDE80140EFF3D0
:10063000098CBEE701B50BF03FFCBDE80140EFF3CC
:10064000098CB6E70848FF1F34EF00E0ACDF040078
:1006500010B500F07BFA001D10BD00BF51D00000A6
:100660000FB47CB50C0009AA009001D02044401EB4
:10067000084B7B4469460190089800F018FB05463A
:100680001CB10020694600F025FB28467CBC5DF8C3
:1006900014FB00006906000070B50C460546012AEF
:1006A00005D02878800600D5EA69002302E00123FE
:1006B00005E05B1C934202D2E05C0028F9D1A869F6
:1006C000E618C01AA861286A18442862284600F073
:1006D00042FA04E0D5E9012114F8010B9047B44235
:1006E000F8D3284600F04DFA70BD00002DE9F04126
:1006F0000646002410687529314616A510D000F072
:1007000051FA002802DA404213A507E031688A074F
:1007100001D512A502E0490704D511A5012401E085
:1007200000F049FA00210A2206F1240709E0B0FB93
:10073000F2FCB0FBF2F302FB1C0030307854184698
:10074000491C0028F3D123462A463046BDE8F04133
:1007500000F03ABA000000002D0000002B0000005D
:1007600020000000F0B40D460188090502D5214C97
:100770007C4402E01F4C7C440E34002100F124062E
:1007800008E002F00F071209E75D42EA03721B0955
:100790007754491C52EA0307F3D102780023120769
:1007A00004D5702D06D009B1022311342246F0BCC5
:1007B00000F00ABA01231034F8E770B504460D467C
:1007C0002146106800F0F7F9024629462046BDE8A8
:1007D00070400023C6E7D21D22F00703D3E90023AF
:1007E000C0E70368126843F0200303600823C36175
:1007F0000023B7E7B2CF00002DE9F05F8946044639
:100800004FF0000ADFF874B1FB44C0F820A0204686
:10081000E1688847002874D0252806D0D4E9012152
:100820009047206A401C2062F1E700265F46204680
:10083000E16888472028054607DB312D05D2781965
:1008400010F8200C08B10643F1E7B00701D526F0F7
:100850000406C4F81CA00027C4F818A02A2D09D04B
:1008600028460CF01CFF38B304EB8708303DC8F86D
:10087000185019E059F8041B204604EB87029161D7
:10088000E1688847012F054618D1E069002820DA81
:1008900026F020061DE0D8F8180000EB800005EBDC
:1008A00040003038C8F818002046E16888470546FF
:1008B0000CF0F5FE0028EED1012F0AD02E2D08D124
:1008C0002046E16888477F1C0546022F46F0200637
:1008D000C4DBA069002803DA404246F00106A061AB
:1008E000F00701D026F010066C2D0BD0682D09D032
:1008F0004C2D39D06A2D35D0742D35D07A2D33D08A
:1009000016E038E0E1682F4620468847B8420546A1
:1009100009D16C2F26D04FF48060E1680643204651
:100920008847054604E06C2F1AD04FF480700643C8
:100930000DB3A5F14100192802D8203546F4006610
:100940004A462946204626604E46FFF793FD80B171
:1009500001280BD0F61D26F0070000F1080956E724
:100960004020E4E78020D8E70020D6E706F104091C
:100970004DE7284652E7206ABDE8F09F42CF0000CD
:10098000032A40F2568010F0030C00F0158011F895
:10099000013BBCF1020F624498BF11F801CB00F893
:1009A000013B38BF11F8013BA2F1040298BF00F8E7
:1009B00001CB38BF00F8013B11F0030300F04B807E
:1009C000121FC0F03680A1EB0301D1F800C0022B4A
:1009D00000F0118000F21E804FEA1C2351F804CF72
:1009E000121F43EA0C6340F8043BBFF4F5AF01F17A
:1009F000010100F01EB84FEA1C4351F804CF121F4A
:100A000043EA0C4340F8043BBFF4F5AF01F10201A7
:100A100000F00FB84FEA1C6351F804CF121F43EAED
:100A20000C2340F8043BBFF4F5AF01F10301AFF331
:100A30000080D20724BF11F8013B11F801CB48BF59
:100A400011F8012B24BF00F8013B00F801CB48BF8F
:100A500000F8012B704710B5203AC0F00B80B1E8C8
:100A60001850A0E81850B1E81850A0E81850203AE3
:100A7000BFF4F5AF5FEA027C24BFB1E81850A0E8EC
:100A8000185044BF18C918C0BDE810405FEA827C06
:100A900024BF51F8043B40F8043B08BF7047D2071D
:100AA00028BF31F8023B48BF11F8012B28BF20F8BE
:100AB000023B48BF00F8012B70474FF000020429A9
:100AC000C0F0128010F0030C00F01B80CCF1040C7D
:100AD000BCF1020F18BF00F8012BA8BF20F8022BB1
:100AE000A1EB0C0100F00DB85FEAC17C24BF00F857
:100AF000012B00F8012B48BF00F8012B70474FF085
:100B0000000200B5134694469646203922BFA0E85D
:100B10000C50A0E80C50B1F12001BFF4F7AF090769
:100B200028BFA0E80C5048BF0CC05DF804EB89005A
:100B300028BF40F8042B08BF704748BF20F8022B9D
:100B400011F0804F18BF00F8012B704710B500F06E
:100B5000BFF9203010BD70B5044685690068C10634
:100B600001D5302600E02026C00707D070BDD4E9AB
:100B7000012130469047206A401C20626D1EF6D548
:100B800070BD70B5044685690078C00707D170BD97
:100B9000D4E9012120209047206A401C20626D1E6C
:100BA000F6D570BD09684A0501D540B27047C90540
:100BB000FCD500B2704709684A0501D5C0B270473C
:100BC000C905FCD580B270472DE9F0470D4699461E
:100BD0009246044600F124080168880604D5E069BD
:100BE00021F01001216000E00120A84201DD471B37
:100BF00000E00027A1697A1902EB0900081AA06138
:100C00002078C00602D42046FFF7A5FF002608E0A2
:100C1000D4E901211AF806009047206A401C761C8E
:100C200020624E45F4DB2078C0060AD52046FFF747
:100C300092FF06E0D4E9012130209047206A401C51
:100C40002062381EA7F10107F4DC07E0D4E9012196
:100C500018F805009047206A401C2062281EA5F164
:100C60000105F3DC2046FFF78CFF2078000602D553
:100C70000220BDE8F0870120FBE711680268006AE6
:100C8000530501D508700AE0D30501D5088006E0B8
:100C9000130603D5C217C1E9000200E00860012075
:100CA0007047000001694A1C02610878704700B56E
:100CB0008FB0CDE901310021059105497944CDE995
:100CC000031011466846FFF797FD0FB000BD000006
:100CD000E5FFFFFF0A6802F8010B0A607047D1E9DF
:100CE00000239A4202D2531C0B601070704710B55B
:100CF000436913B1AFF3008001E0FFF7CDFC0120A1
:100D000010BD127800F124010A7000224A700122FD
:100D1000EDE711684FF0FF32E9E700002DE9FF5FD2
:100D200015468A460446DFF8AC80F8440027D8E927
:100D300000103E46CDE9001010E05AF826106A4631
:100D400002A800F0B1FC411C07D02178890603D528
:100D5000E269391891420DD80744761C2078800644
:100D600002D5E069B84205DDAE42E6DB5AF826005E
:100D70000028E2D1A069C01BA0612046FFF7EBFE6E
:100D8000D8E90010CDE90010002017E05AF828102B
:100D90006A4602A800F088FCB0F1FF3F81460BD004
:100DA00000250DF1080B05E0D4E901211BF8050031
:100DB00090476D1C4D45F7D308F10100B0428046C5
:100DC000E4DB206A384420622046FFF7DAFEBDE803
:100DD000FF9F000032CA00002DE9F0418046D21D7D
:100DE00022F007020025D2E90002F52915A614D049
:100DF000011E72F1000106DA0023D0EB030063EB61
:100E0000020211A608E0D8F800108B0701D50FA642
:100E100002E0490701D50EA601251146002408F17C
:100E2000240704E000F058F830323A55641C50EAC8
:100E30000102F7D12B46324621464046BDE8F0413B
:100E4000FFF7C2BE000000002D0000002B000000D4
:100E50002000000030B4002100F1240408E002F07A
:100E60000705D208303542EA4372DB086554491C55
:100E700052EA0305F3D10468002310A2250708D520
:100E800004F020040C4304D0C46901230CA2641EA6
:100E9000C46130BCFFF798BE10B504462146106807
:100EA000FFF789FE02462046BDE810400023D1E747
:100EB000D21D22F00701D1E90023CBE7000000009A
:100EC0003000000001491820ABBEFEE726000200FA
:100ED000004870470002002030B5B0F10A0271F1FD
:100EE00000034FEA900E4EEA817EB0EB0E0061EBFC
:100EF00091014FEA101E4EEA017E10EB0E0041EB0D
:100F000011114FEA102E4EEA016E10EB0E0041EB6C
:100F100011214FEA104E4EEA014E10EB0E0041EB4C
:100F20001141401841F100014FEAD00040EA417000
:100F30004FEAD1014FEA810444EA907410EB800536
:100F400044EB01046D1944EB0404521BA3414FF020
:100F5000000348BF0A3200D530BD401C41F10001FA
:100F600030BD2DE9FF4F0C461E464FF0FF378BB0CA
:100F7000D2E90001DDF860800A908A46C1F30A5583
:100F800005B93D46002108464FF00000BAF1000FB8
:100F900000F4400005DA00EB80004FF4400101EA64
:100FA00050004FEA9059B9F1010F00DDB9460A9897
:100FB00050EA4A000ED044F61050A5F2FF354543E2
:100FC0002F14B8F1000F1ED07542291E1EDDC9F185
:100FD00000021CE0B8F1010F4FF0000001D03021F9
:100FE00003E0F24305E02154401CB042FBDB3046F5
:100FF0000022002121540B99C1F80880C1E900208A
:101000000FB0BDE8F08FBD1B6D1CDEE74A4600DA6D
:10101000694206A800F02CFC06AB93E8070003AB7E
:1010200083E8070050460A990BF0FBFE8DE80700A5
:10103000A0F500501F3800900398002D0ADD42F201
:101040001F014A460844002303A9039068460CF098
:1010500064F909E0A0F500504A461F38002303A9AF
:10106000039068460CF06EF98DE807000004000C50
:1010700003D04FF0FF30410800E01046B8F1000FF8
:1010800003D00022009215461EE0751E05D4FFF71E
:1010900023FF303262556D1EF9D5B3460122084355
:1010A00002D000227F1C04E02078302801D10022E9
:1010B0007F1E002A099784D01DE0112D07DAFFF763
:1010C0000BFF303262556D1C50EA0102F5D1084326
:1010D00002D00098C8B10EE00021681E05E0235C34
:1010E000625C63542254401E491C8142F7DBAB46CC
:1010F000A81B401E0990002004F80B000B98099AC9
:10110000C0F80880C0E9002B7AE711264FF00008EC
:1011100057E72DE9F04F88460446D21D22F007011B
:1011200091B0D1E90001CDE90A010CF0A0FA024624
:101130000B98C00F01D02D2007E02068810701D552
:101140002B2002E0202101EAC000032A099001D0EF
:10115000072A05DB03464146204600F049FB0BE128
:101160002078800601D5E06900E00620B8F1650F1F
:10117000814606D0B8F1660F18D0B8F1670F70D16C
:1011800031E00020B9F1110F009001DB112301E0E3
:1011900009F101030AAA01A90CA8FFF7E2FEDDE9A3
:1011A0000C70002609F10105834647E001204B46FB
:1011B00000904FF000470AAA01A90CA8FFF7D1FE42
:1011C000DDE90DB00C995D46002610B909F101006A
:1011D0000D18B9EB050003D4C0F1FF3609F1010584
:1011E000A5EB09002BE0B9F1010F01DA4FF001097D
:1011F0000020B9F1110F0090484601DD112300E0F5
:1012000003460AAA01A90CA8FFF7ABFEDDE90C70A2
:101210004D4600268346207800070AD4AB4500DA05
:101220005D4601A8012D04DD411911F8011C30298A
:1012300007D04F4502DA17F1040F04DA0120824685
:101240000FE06D1EEEE7002F02DCED1B3E4403E0D5
:10125000781CA84200DD7D1CB81B00F1010A4FF08C
:1012600000472078000703D4AA4501DB4FF0FF3A7E
:101270000021B7F1004F0DF143088DF8431024D041
:1012800002202B23002F01DA7F422D230A21021E88
:10129000A0F1010000DC5FB197FBF1FC97FBF1F2DC
:1012A00001FB1C7C17460CF1300C08F801CDEEE771
:1012B000A8F1010003702188090501D5452100E04E
:1012C0006521A0F1010800F8011C09980FA9A1EB04
:1012D0000807FF1D00B10120411901EBEA70A16967
:1012E0003844081A401EA0612078C00602D4204667
:1012F000FFF731FC099828B1D4E901219047206A11
:10130000401C20622078C00622D52046FFF723FC2F
:101310001EE0002E04DBB34502DD01A8805D00E085
:101320003020D4E901219047206A401C2062761CBD
:10133000AAF101005FEA000A0AD1FFF707FCC068C2
:101340000168405CD4E901219047206A401C20627A
:10135000281EA5F10105DCDC07E0D4E9012118F81D
:10136000010B9047206A401C2062381EA7F101073C
:10137000F3DC2046FFF705FC032011B041E6000036
:101380002DE9F04F04460D46D21D22F0070089B02A
:10139000D0E90097484639460CF069F90246F80F43
:1013A00001D02D2307E02068810701D52B2302E01F
:1013B000202101EAC0038DF820300BB1012000E0AC
:1013C0000020032A824601D0072A04DB2946204652
:1013D00000F00EFA3FE12078800601D40D2500E0F0
:1013E000E569C7F30A560D2D49DA00214FEA175B6C
:1013F00008464FF00000002F00F4400007DA00EB31
:1014000080004FF4400100EBD07001EA60008115CC
:10141000012901DD4FF0FF3100224FEA850CBCF1BC
:10142000180F06D31346ACF118004FF08052C2409B
:1014300003E04FF4801323FA0CF30CF10C0CBCF115
:10144000200F04D3ACF1200C09FA0CF001E007FAEC
:101450000CF000294FF0004801DD18B90FE00ED163
:1014600040450CD319EB02095F4121B9404502D137
:101470009F4329EA0209BBEB175F00D0761C208846
:10148000000502D57B48784402E07A487844193850
:1014900008AA302302F80A30037C0AF10101002E69
:1014A0000AF1020A53546A4602DC4FF0300101E0AF
:1014B0004FF031014FF001088DF8001002D0A6F274
:1014C000FF3603E059EA470100D06B4E002D02DCE5
:1014D0002178090704D54FF002082E218DF801105C
:1014E000C44600210BE0C7F303433F01C35C491C22
:1014F0006D1E02F80830052908F1010801DA002DF7
:10150000F1DC00210CE000EB1973491C1B786D1E07
:10151000082902F808304FEA091908F1010801DA30
:10152000002DF0DC21688B0602D516E0A8F1010839
:10153000E04505DD02EB080313F8013C302BF5D044
:10154000B8F1000F09DD02EB080313F8013C2E2B64
:1015500003D1090701D4A8F10108002D05DD3E21C2
:1015600002F808106D1E08F10108407C002E02F8F8
:10157000080008F1010804DA2D20764202F808007C
:1015800002E02B2002F808000A214FF47A7086420C
:1015900008F101080BDB96FBF0F3303302F808305A
:1015A00096FBF0F308F1010800FB136601E0642EDE
:1015B0000CDB642096FBF0F3303302F8083096FB26
:1015C000F0F308F1010800FB136601E00A2E06DBC8
:1015D00096FBF1F0303002F8080008F1010896FBA4
:1015E000F1F001FB1060303002F80800A16908F149
:1015F000010808EB050202EB0A00081AA061207836
:10160000C00602D42046FFF7A6FA216A08AE01EB15
:101610000A00206204E0D4E9012116F8010B90478A
:10162000BAF1010AF7D22078C00602D52046FFF7AA
:1016300092FA6E4609E016F8010B3E280FD0D4E965
:1016400001219047206A401C2062B8F10108F2D2C3
:101650002046FFF796FA09B00320BDE8F08F206A14
:101660002844206203E0D4E90121302090476D1E18
:10167000EBD3F8E7F1C2000002FCFFFF10B54369AD
:1016800013B1AFF3008001E0FFF748FB012010BD6C
:10169000126800F124014262002282620122EDE719
:1016A00011684FF0FF32E9E72DE9F04116460C468C
:1016B0000546FEF7CDFF036893F80101012807D026
:1016C000FF2C12D8185D80B101202C70BDE8F0818C
:1016D000D3F807013246214603F20713C7182846FC
:1016E000BC46BDE8F041012360474FF0FF30EDE715
:1016F00080EA010212F0030F63D110F0030F1DD036
:1017000010F8012B11F8013B012A28BF9A4268D139
:1017100010F0030F12D010F8012B11F8013B012A31
:1017200028BF9A425DD110F0030F07D010F8012BAB
:1017300011F8013B012A28BF9A4252D100B5DFF8C7
:10174000A8E050F8042B51F8043BA2EB0E0C2CEA55
:10175000020C1CEACE1C08BF9A420CD150F8042B94
:1017600051F8043BA2EB0E0C2CEA020C1CEACE1C36
:1017700008BF9A42E5D05DF804EB4FEA0360B0EB96
:10178000026003D110F1000F1CF47F6F15D14FEAF6
:101790000340B0EB024003D110F1000F1CF47F4F67
:1017A0000BD14FEA0320B0EB022003D110F1000F60
:1017B0001CF47F0F08BFB3EB020018BF4FEA3000E4
:1017C000704710F8012B11F8013B012A28BF9A42FB
:1017D00007D110F8012B11F8013B012A28BF9A42CA
:1017E000EFD0A2EB03007047010101017047000038
:1017F0002DE9F0411F46044603260168072A01F43B
:10180000006004DB08B116A505E016A503E008B1E9
:1018100015A500E015A521F010002060A069C01EEC
:10182000A0610FB1401EA0612046FFF794F94FB1AF
:10183000D4E9012138469047206A401C2062C01C30
:10184000206206E0206AFAE7D4E9012115F8010BCD
:101850009047761EF8D22046FFF793F9BDE8F08155
:101860004E414E006E616E00494E4600696E660044
:101870002DE9F047814616468AB0354878440DC8B0
:101880008DE80D0032487844801C03AC0DC884E814
:101890000D0041F69B300844372190FBF1F290FB9C
:1018A000F1F5A5F1800501FB12041B3C02D5644251
:1018B000012000E00020DFF898A080460027FA44CD
:1018C000AAF1BE0A0EE0E0070AD03246684607EBEE
:1018D000470101230AEB81010BF034FD8DE807007D
:1018E00064107F1C002CEED1194F7F44AE3F19E0ED
:1018F000E80715D007EB04100DF1180A90E80E0068
:101900008AE80E00C068F04201D19819089032466A
:10191000012306A903A80BF015FD03AB83E807001C
:101920006D10641C002DE3D14FF00103324669466F
:10193000B8F1000F03A802D00BF0EFFC01E00BF0B0
:1019400001FDC9E90001C9F808200AB0BDE8F08727
:101950008CBF000010B50446AFF300802046BDE800
:101960001040FEF7F1BD00002DE9F04782B00546BA
:1019700002284FF000004FF0000638BF012008F0A9
:101980008FFF4DF69860C0F2040050F825402046C5
:1019900000F03AF98146204600F03CF982462046A4
:1019A00000F042F90746204600F03AF9804620460A
:1019B000032100F06BF92046012100F05DF920467B
:1019C000002100F0B3F920460C2100F097F92046E1
:1019D000C4F8B460C4F8B860C4F8BC60C4F8C060AF
:1019E000C4F8C460C4F8C860C4F8CC60019600F0C4
:1019F00007F930A151F82520054601A9104600F04D
:101A00006BFDB0FA80F0400908F04AFF019848F2F7
:101A10007F41C0F21E01884288BF0126304608F08F
:101A20003FFF019847F6410220FA05F1C0F27D120E
:101A300091421FD34FF28201C0F2FA21884201D2B3
:101A4000012613E04EF20411C0F2F551884201D292
:101A500002260BE04CF20821C0F6EB31884201D29D
:101A6000032603E00020002608F01AFF2046314636
:101A700000F0E8F8204600F0DDF800BF204600F056
:101A8000B9F80028FAD12046294600F0DBF82046B4
:101A9000494600F0F1F82046514600F0F7F820469C
:101AA000394600F043F92046414600F027F902B0DC
:101AB000BDE8F0874C0000004D000000F0B581B09B
:101AC000054602284FF000000C464FF0000738BFD3
:101AD000012008F0E5FE2046002C18BF012008F088
:101AE000DFFEE068B0FA80F0400908F0D9FE4DF65C
:101AF0009860C0F2040050F825602DA050F8250031
:101B00006946009700F0E8FCB0FA80F0400908F060
:101B1000C7FE00982168C8400090A0F5F41046F672
:101B20000141A0F59060C0F2DC21884238BF012756
:101B3000384608F0B5FE2168304600F083F8217978
:101B4000304600F0DBF8A168304600F0D1F8E168DB
:101B5000304600F0A3F82169304600F0E7F86169EB
:101B6000284600F0A1F8A169284600F0E7F8217F97
:101B7000304600F077F8216A304600F003F994F817
:101B80002410304600F064F894F82500B5FA85F189
:101B9000B0FA80F040094909084308F081FE0DB110
:101BA00001B0F0BD94F8250000F0B2F801B0F0BD2E
:101BB0004C0000004D000000B0B5054600200C466A
:101BC000022D38BF012008F06BFE2046002C18BF04
:101BD000012008F065FE4DF69860C0F2040050F850
:101BE00025502178284600F047F86168284600F023
:101BF0004DF8B0BDD0F89400C0B2C00970470000E5
:101C0000006CC0F341107047D0F89400C0F380001E
:101C100070470000D0F8940000F003007047000007
:101C2000406CC0B270470000D0F89000C0F3801044
:101C300070470000D0F8941041F08001C0F8941073
:101C400070470000026C61F34612026470470000A6
:101C5000D0F8942022F0080261F3C302C0F8942067
:101C600070470000D0F8902022F0040261F3820255
:101C7000C0F8902070470000D0F8942022F00402B1
:101C800061F38202C0F8942070470000D0F89420DD
:101C900061F30102C0F8942070470000026C61F308
:101CA0000102026470470000B0B582B0302248F2F1
:101CB000180400924FF44052C4F2040401926B469F
:101CC000226853F82030012822EA030505D048B9DC
:101CD00001F0030045EA001507E001F0030045EAC2
:101CE000003502E0002008F0DBFD256002B0B0BD49
:101CF000026C61F38302026470470000426C0029A9
:101D000008BF012122F0FF02114441647047000026
:101D100048F20401C4F204010A68002822F40023F6
:101D200018BF42F400230B6070470000D0F89020E9
:101D300061F38612C0F8902070470000B0B582B001
:101D4000012248F2180400924FF48072C4F2040495
:101D500001926B46226853F82030012822EA0305DD
:101D600004D040B901F00100054307E001F0010093
:101D700045EA002502E0002008F092FD256002B04F
:101D8000B0BD0000D0F8902061F30102C0F89020AF
:101D90007047000080B5002003F01AFA80BD0000F3
:101DA00080B5002003F054FB80BD000080B500200A
:101DB00003F04EFB80BD000080B5002002F032FC35
:101DC00080BD000080B5002004F0DCF980BD00007B
:101DD00080B5012003F0FCF980BD000080B5012032
:101DE00003F036FB80BD000080B5012003F030FB1E
:101DF00080BD000080B5012002F014FC80BD000011
:101E000080B5022003F0E4F980BD000080B5022017
:101E100003F01EFB80BD000080B5022003F018FB1C
:101E200080BD000080B5022002F0FCFB80BD0000F8
:101E300080B5112802D800F0D5FC80BD2B2802D82F
:101E400000F078FD80BD5A288CBF042000F0DAFB3A
:101E500080BD0000B0B5C4B0044600F093FA01386C
:101E6000B0FA80F0400908F027FD1CB96C46204606
:101E700000F098FA204600F041FF054658B904F1F9
:101E8000A00000F079FF04F5827000F0FBFE04F57D
:101E9000867000F01FFF284644B0B0BD2DE9F04128
:101EA00084B00D46044649B901208DF8040000F0C5
:101EB000E9FA02904FF0011001AD03904EF21000CC
:101EC000C0F20400005DC1070AD110F0180F0ED057
:101ED0006868043804280DD221A151F820800EE052
:101EE0002978204600F0A8FE04B0BDE8F0814FF04C
:101EF000000804E000204FF0000808F0DDFC552C3D
:101F00004FF0000701D0422C09D168890138082818
:101F100038BF0127384608F0CFFC6889471E552C8A
:101F20004FF0000601D0422C09D12889013802283F
:101F300038BF0126304608F0BFFC2889461E2046DF
:101F400007F012FA28780028CED020460121424618
:101F50003B46009607F01AFA04B0BDE8F08100BFD6
:101F60000200000003000000010000000600000065
:101F70002D283EBF042108467047A0F13902212ACE
:101F800015D80421DFE802F01113131313131113F2
:101F90001113131313131313131311131313131315
:101FA000131313131313131313110846704780B53B
:101FB00007F09AF94FF48071002818BF0021BDE89E
:101FC000804008467047000070B586B00D46064652
:101FD00039B90120ADF81200CDE90200002001ADB1
:101FE000019007F07FFB10B1022434B11BE007F031
:101FF000F1FA07F0E7FA0024ACB9A6B1D5E901017E
:1020000007F0FAFB287807F001FCA87BE97B07F0D2
:1020100005FC652500F052FA013D01D00028F9D0F9
:10202000002D08BF0324204606B070BD70B584B0F3
:102030000446007B214600F087F8054670B994F805
:10204000430004F1240100F0B5F8054630B994F8D6
:10205000560004F1440100F009F9054600F092F938
:10206000032808D002280BD001280ED104F16806FD
:10207000002D66D10FE004F18806002D61D10AE041
:1020800004F17806002D5CD105E00020002608F060
:1020900013FC002D55D1F06803283FD194F8560069
:1020A000012548B106200390022002906846CDE940
:1020B000005500F07BFF0546012D0CD194F843003C
:1020C00048B10120002103900291CDE9000068464B
:1020D00000F06CFF0546012D0CD1207B50B1022091
:1020E00003900020CDE9010001200090684600F037
:1020F0005DFF05462DBB94F8200004F11001FFF7A9
:1021000063FF0546E8B9F26896E80B0003928DE894
:102110000B00684600F04AFF054612E00390B168E4
:10212000D6E900020291CDE90002684600F03EFFC8
:10213000054630B994F8200004F11001FFF744FF80
:102140000546284604B070BD70B584B00D460646FD
:1021500049B900208DF80D0001206D46ADF80E0044
:102160000290CDE9000007F0E5FA10B1022434B185
:102170001DE007F041FA07F037FA0024BCB9B6B108
:10218000D5E9010107F07AFB287807F081FB687B2D
:10219000A97BEA7B07F084FB652500BF00F046FCC5
:1021A000013D01D00028F9D0002D08BF03242046AE
:1021B00004B070BDF0B589B00D46064681B9002067
:1021C000012102908DF82200CDE90611CDE903101E
:1021D0000220059041F20020C0F27A0001AD01908A
:1021E00007F0C8FA44F6B867C1F6FF7710B10224C9
:1021F0003CB138E007F012FA07F008FA00243C601E
:102200008CBB86B3D5E9050107F058FBD5E902215F
:10221000286907F05DFB6868022805D0012809D00D
:1022200070B9AA7F002007E0AA7F0120012107F0F2
:102230005FFB08E0AA7F0120002107F059FB02E0C4
:10224000002008F039FB286841F67705CFF6CF75F6
:10225000386000BF00F06CFC013501D00028F9D0D7
:10226000002D08BF0324204609B0F0BD70B586B02C
:102270000D46064669B90020012101908DF8150030
:10228000CDE903114FF4E06101ADADF808108DF810
:102290000A0007F09FFA10B102243CB14DE007F0AC
:1022A000CFF907F0C5F90024002C46D1002E44D008
:1022B00000F03EFC0646002818BF012008F0FCFA9A
:1022C000287943F201620130B6FBF0F0C0F26E12E1
:1022D000A0F5F400A0F590510020914238BF0120F4
:1022E00008F0EAFAD5E9020107F012FB28796979CA
:1022F00007F018FB2868022805D0012809D070B91A
:102300006A7C002007E06A7C0120012107F022FBA3
:1023100008E06A7C0120002107F01CFB02E000209D
:1023200008F0CAFA40F2E93500F00EFC013D01D098
:102330000028F9D0002D08BF0324204606B070BD48
:1023400080B584B007F0A6F9032802D1002004B0BC
:1023500080BD00F0B3F818B1002038B104B080BDE2
:1023600001200021FFF730FE0028F7D100210320D3
:10237000029101210390CDE90001684600F016FEAC
:1023800004B080BD80B507F0A7FC802806D00428E3
:1023900006D0012814BF0420012080BD032080BD89
:1023A000022080BD70B504464FF00111012004F1F8
:1023B000080284F82000E0830025C4E9000023C25D
:1023C00041F20021C0F27A014FF48072C4E90500A5
:1023D00084F85C00A565A4F842200222C4E909152E
:1023E0004FF44061C4E90B05C4E90D20A4F848107E
:1023F0000321E06384F85600656484F8555084F83E
:102400004A50C4E9130084F86400216684F89C00F3
:10241000C4E91A00C4E91C51C4E91E15C4E920022C
:102420000622C4E9221044F20041C4E92452C1F654
:10243000FF712922C4E9412140F201164FF0013118
:10244000A4F8A000C4E9295584F8AC00A4F8B86049
:10245000C4E92C5584F8000184F8BC0004F1C000E4
:10246000C4F8EC102C21A4F8F060FEF748FBA4F8A7
:10247000F460C4F8F850A4F8FC50A4F80C6184F897
:102480000E5170BD80B500F0D1FA00281CBF0420A9
:1024900080BD00F013F800281CBF052080BD00F0AF
:1024A00053FB00281CBF072080BD00F041FB014604
:1024B0000620002908BF5C2080BD000080B507F021
:1024C00009F9002804BF002080BD07F0F3F846F6A4
:1024D0000040C0F2DC2080BD80B5FFF7A9FC80BDC4
:1024E000A0F14302072A88BF704780B52E3800F05C
:1024F00021FABDE88040704710B507F003FB0328C0
:102500001DD84FF4FA34DFE800F01E17020B07F075
:10251000F1FA0446002818BF4FF4FA44204610BDD3
:1025200007F0E8FA40B107F0DDFA0446002818BFCA
:102530004FF47A74204610BD0024204610BD0020C0
:10254000002408F0B9F9204610BD0000B0B5A0F194
:102550001D020E2A0C462ED8DFE802F0080C1017D8
:1025600039252D2D2D2D2D3135474B00002500F01F
:1025700093F941E0002500F039FA3DE006F03CFF18
:1025800080B30025FFF7B8FF36E006F035FF48B30B
:1025900007F0B0FA30B307F0A5FA002818BF4FF4DF
:1025A0007A70002528E006F027FF002818BF4FF4B6
:1025B000FA30002520E007F0EFF9054613E000258A
:1025C00000F0ECF818E0002500F0C6F814E006F082
:1025D00013FF38B107F08EFA002818BF4FF4FA4005
:1025E000002509E00025002006E0002500F0CCF8D9
:1025F00002E0002500F0BEF8002C18BF206028463D
:10260000B0BD00002DE9F0410C460546FFF7B0FCD7
:10261000074608B1002646E04EF21000C0F2040062
:1026200010F805805FEA886015D45FEA486014D42A
:102630005FEA08601AD40020002608F03DF9FFB9CF
:1026400018F0180F0BD05FEA08701BD400265FEA61
:10265000C8601FD423E0012009E0002007E0002724
:10266000592D20D100F078F806461CE0022000F039
:1026700081FA0646B0FA80F040090702002FDFD049
:10268000002610E02846002100F014F806465FEA14
:10269000C86004D52846012100F00CF80646B6FAB9
:1026A00086F0400907023846002C18BF2660BDE8B6
:1026B000F0810000F0B581B0074600200090384658
:1026C0000E4606F041FE0446384606F02DFE8442D2
:1026D00027D80546384606F007FE10B3384606F000
:1026E00013FE013805280AD8DFE800F003050709C2
:1026F000090F06200AE0042008E0052006E06946EC
:102700003846FFF7EDFE002504E00720314600F0D3
:10271000B5F900900098691CB0FBF1F0611C4843CA
:1027200000905DF8040BF0BD10B507F063F90028C8
:1027300004BF002010BD06F0BDFE0721002818BF11
:1027400005210846002100F099F9044606F0ACFE88
:102750000130B4FBF0F010BD80B5592006F0C4FD87
:10276000002804BF002080BD06F096FE00F002FAAB
:1027700080BD000080B506F087FE00280CBF002059
:10278000FFF7D2FF80BD000010B5FFF7CDFF044674
:1027900006F07AFE24FA00F010BD000080B5FFF7C5
:1027A000C3FF400880BD000010B5002406F052FFB2
:1027B000062815D8DFE800F004080B0E14141100E9
:1027C000022000F0D7F910BD00F0B2F910BD00F002
:1027D0002DF910BDFFF772FE10BD00F0B5F90446EB
:1027E000204610BDB0B511280C460FD8DFE800F028
:1027F000091115191D2125292D3337393B3D3F413D
:1028000043490020002500F0B5F93FE000200425F1
:102810003CE0012000F0AEF937E0022000F0AAF918
:1028200033E0002500F038F830E0002500F0FEF835
:102830002CE00025FFF742FE28E0002500F078F9A3
:1028400024E0002500F080F920E040F67410C2F288
:102850000000006819E00025FFF7A6FF16E004203D
:102860000AE004200EE0052006E005200AE006202C
:1028700002E0062006E007200021002500F0FEF817
:1028800004E00720012100F0F9F80025002C18BF12
:1028900020602846B0BD000010B507F0C3F800283E
:1028A00004BF002010BD07F0B5F80F280FD84FF473
:1028B000FA34DFE800F0080C0E0C101216181A207B
:1028C0003825292D3135FFF76FFF04462BE0002412
:1028D00029E006200AE0042008E0FFF75FFF044635
:1028E00021E0052002E0002006E00720012100F0A1
:1028F000C5F8044617E0012000F03CF9044612E058
:10290000FFF72AFF04460EE0FFF7F6FD04460AE053
:10291000FFF73AFF044606E000F068F8044602E0DC
:10292000FFF728FF044607F06DF80130B4FBF0F024
:1029300010BD000070B582B0054615380C46002168
:102940000728019147D8DFE800F004112D32373C09
:102950004C4107F087F802280CD844F67C61C1F698
:10296000FF7151F820000026019004E007F082F882
:102970000228F2D90026A5F12300042804D81EB9A4
:10298000012000F0F7F8019001993046002908BFB6
:102990004FF48070042E08BF3046002C18BF216011
:1029A00002B070BD07F06EF80228E3D8D5E707F053
:1029B00071F80228DED8D0E707F074F80228D9D8D9
:1029C000CBE707F077F80228D4D8C6E707F082F8FB
:1029D0000228CFD8C1E701A92846FFF7B7FD064670
:1029E000C9E707F06FF80228C4D8B6E780B507F04A
:1029F000A1F8032805D8DFE800F002060D13062031
:102A00000FE0002080BD07F075F8002818BF4FF4D4
:102A1000FA4080BD40F67410C2F20000006880BD2C
:102A20000520002100F02AF880BD000080B506F0E6
:102A300079FE002804BF002080BD06F063FE002858
:102A40001CBF41F20020C0F27A0080BD80B5411E5B
:102A500005294FF0000088BF80BDDFE801F00306C4
:102A6000090E0E0C00F064F880BDFFF7DFFF80BD9B
:102A7000FFF724FD80BD00F067F880BD10B5012987
:102A80000DD0C9B90438032821D8DFE800F00226A8
:102A90002C32FFF7CBFF044606F02CFE11E0043881
:102AA00003282CD8DFE800F00231373DFFF7BEFFE6
:102AB000044606F02FFE04E00020002407F0FCFE90
:102AC0000020411E002818BF24FA01F010BD00208C
:102AD000002407F0F1FE0020F3E7FFF7EFFC0446C7
:102AE00006F0E0FDEDE700F023F8044606F02AFECC
:102AF000E7E700F029F8044606F044FEE1E700208D
:102B0000002407F0D9FE0020DBE7FFF7D7FC0446DE
:102B100006F0D8FDD5E700F00BF8044606F01AFEE3
:102B2000CFE700F011F8044606F044FEC9E70000C4
:102B300080B506F017FE44F6B861C1F6FF7109686A
:102B4000002818BF084680BD10B506F03BFE70B1E6
:102B5000FFF7EEFF58B1044606F024FE0130B4FB47
:102B6000F0F406F017FE10306043400810BD00205E
:102B700010BD0000B0B50446012007F09DFE002501
:102B800006F088FD0138052810D8DFE800F00306BC
:102B9000090F0F0CFFF7CCFF07E0FFF747FF04E03A
:102BA000FFF78CFC01E0FFF7CFFF054606F062FD62
:102BB0000130B5FBF0F574B1022C04D0012C09D121
:102BC00006F050FD01E006F05DFD0130B5FBF0F5CB
:102BD0002846B0BD00252846B0BD0000F0B581B044
:102BE0001C4615460E460746002818BF012007F070
:102BF00063FE2846002D18BF012007F05DFE40F659
:102C00007810C2F20000076040F67C10C2F20000AB
:102C1000067044F68C60C1F6FF70056040F68410C3
:102C200040F68811C2F20000C2F2000104700020D8
:102C30000C7001B0F0BD000080B52338042808D81E
:102C4000DFE800F0030B0F131700084606F0A2FFA1
:102C500080BD002007F030FE80BD084606F0A6FFCC
:102C600080BD084606F08AFF80BD084606F0FAFFE0
:102C700080BD084607F002F880BD000080B5FFF770
:102C8000E9F880BDF0B581B00746002818BF0120E3
:102C900007F012FEDFB17868C8B13868B8B1002516
:102CA0006FF00F0678683044006906F05DFB7868C5
:102CB00083191869197D5A7DD3E90643009406F0FB
:102CC00065FB38680135854206F11006EAD301B08C
:102CD000F0BD000010B50446002818BF012007F021
:102CE000EBFD2078002808BF10BD607806F090FB4F
:102CF00094F9020006F098FB10BD000010B50446E0
:102D0000002818BF012007F0D7FD94B3FFF718FB88
:102D100008B128B110BD2046FFF788F90028F9D185
:102D200040F67410C2F2000094F85C1000220260B9
:102D300000291CBFA16D016094F8640010B1206EE1
:102D400006F050FD94F89C0098B104F16801012050
:102D500000F078F820B904F17801022000F072F850
:102D6000002818BF10BD04F18801032000F06AF8A4
:102D700010BD002010BD000070B50446002818BF2B
:102D8000012007F099FD207820B16078D4E9011284
:102D900006F0D8FE207B28B1607E217ED4E9043283
:102DA00006F048FF94F84C00B8B194F84D0006F0D6
:102DB00065FF94F84E0006F055FF94F84F0006F0BA
:102DC000DDFE94F8500006F0F1FE94F8510006F094
:102DD000E1FE94F8600006F05BFF207FC0B144F68E
:102DE0007C611C20C1F6FF71221852680B18043058
:102DF000282843F81C2CF7D104F12C05002600BF2D
:102E000055F82610F0B206F0DDFE0136082EF7D197
:102E100094F85400A8B106F0E5FDA06D06F052FF4D
:102E200000200021002206F03FFF94F85500002802
:102E300008BF70BD94F85C1094F85D20012006F086
:102E400033FF70BD2DE9F04381B00C46054608689C
:102E5000896862684E1C0130511C00FB06F8284648
:102E600001FB06F9002D18BF012007F025FDE068E1
:102E7000FFF7ECFD032D4FEA101712D0022D2BD0D7
:102E8000012D3FD1E0684DF6B02200EB4001C0F2C9
:102E9000040252F821301B0973439F424BD901248D
:102EA0007FE0E068C11E0638B1FA81F1B0FA80F027
:102EB00049094009084307F0FFFCE0684DF65C2231
:102EC00000EB4001C0F2040252F821301B097343A9
:102ED0009F421CD9012464E0E0680238B0FA80F017
:102EE000400907F0E9FCE0684DF6043200EB4001D0
:102EF000C0F2040252F821301B0973439F4210D9DB
:102F000001244EE00020002407F0D6FC49E002EB4B
:102F100081014A68120902FB09F2974215D901247E
:102F20003FE002EB81014A68120902FB09F2974275
:102F300013D9012435E002EB81014A68120902FB32
:102F400009F2974211D901242BE08968090901FB94
:102F500008F18F4211D9012423E08968090901FB96
:102F600008F18F4210D901241BE08968090901FB8F
:102F700008F18F420FD9012413E0D4E90032A1688F
:102F800006F058FC00240CE0D4E90032A16806F0F9
:102F9000F1FC002405E0D4E90032A16806F05CFCF5
:102FA0000024204601B0BDE8F083000070B504465F
:102FB000002818BF012007F07FFCE068FF3818BF29
:102FC000012007F079FCFFF7DDF90546043818BF4A
:102FD000012007F071FC28462146FFF733FF002847
:102FE00018BF70BD0A2600BF751E06F053FB012EE8
:102FF00003D0E1682E468842F6D10020002D08BF9C
:10300000032070BD2DE9F04F83B0814640F67C105F
:10301000C2F2000000788B4648454FF000004FF0A8
:10302000000588BF012007F047FC8DF80090CDF81F
:1030300004B003F00FFB40F68417C2F200073878A3
:1030400040F68818C2F20008012188F800000291B9
:1030500028B344F68C640026C1F6FF74EA460025C6
:1030600006E000BF38780136864205F1010516D228
:10307000206850F826000028F4D041680229F1D0D9
:1030800002688168504690470028EBD0BBF1000FE2
:1030900088F80060E6D140F2031A354601E04FF0AF
:1030A000000ABBF1010F18BFBAF1000F39D140F689
:1030B0007810C2F20000006850F82900FFF7DEFD2A
:1030C0008246B0FA80F040F680114009C2F2000159
:1030D00081F8009040B3387802210028029140D056
:1030E00044F68C650026C1F6FF75E946002003E032
:1030F000397801368E4234D2296851F8261031B120
:103100004A68012A03D00A6889684846904700281F
:10311000EED0BBF1000F88F80060E9D14FF4827A5D
:103120001FE000200028D6D13878D0B100210291CC
:10313000E9B2814208BF013D44F68C66EDB2C1F6AA
:10314000FF766C4603E000BF013D681C09D0306883
:1031500050F825000028F7D0026881682046904783
:10316000F2E703F09BFA504603B0BDE8F08F000091
:10317000B0B500F0FBF940F68C15C2F200052968E5
:10318000086210B100200870B0BDD1E903238C6A39
:10319000886902EB0301C2B21CB1102000F096F95D
:1031A00005E0202000F092F928680121816228685A
:1031B000017ED0E9042311449942016126BF002118
:1031C000017000F0AFF8B0BD10B500F0CFF940F6D7
:1031D0008C14C2F200042168086210B1002008704B
:1031E00010BDD1E903030A7EC118102000F06EF96A
:1031F0002068017ED0E9042311449942016126BF71
:103200000021017000F0C8F810BD000080B500F08A
:10321000ADF940F68C11C2F200010A68106210B1DB
:103220000020107080BD906A002804BF01209062C9
:10323000107ED2E9041308449842106102D200F0D3
:10324000CDF880BD0020D16810702020102200F041
:103250003DF980BD10B500F089F940F68C14C2F23A
:1032600000042168086210B10020087010BD886A4F
:10327000002804BF01208862087E0A69104491F882
:103280003420086182F00100087012B900F0C8F81B
:1032900010BD142000F062F92268B0F5803F106B79
:1032A0004FF0000138BF0121017010BD10B5044678
:1032B000002818BF012007F017FB40F68C10C2F25F
:1032C0000000046000202070122003F0CDF90020DF
:1032D00008F024FF10BD0000B0B540F68C14C2F217
:1032E00000042068002818BF012007F0FDFA2068BC
:1032F000017800291CBF0220B0BD012101700A2005
:1033000000210022002500F025FA00F095F900F0D8
:103310002DF921680D70B0BD0844013849420840BC
:103320007047000070B540F68C16C2F20006306897
:103330000723D0E90412856A541A2209072A38BFE4
:1033400023093DB180681D010144EAB2102000F05C
:10335000A7F910E0062A28BF0622416A15011020AD
:10336000102200F09DF93068EAB2816800690144DA
:10337000202000F095F930684069C0F30F110E204D
:1033800000F0D4F93368EEB25868DA69996A9E6140
:1033900000F0E0F970BD000070B540F68C15C2F287
:1033A000000528680726D0E904128068521A13091C
:1033B000072B38BF16093201D4B20144102022462F
:1033C00000F06EF9B1B20E2000F0B0F92B68586829
:1033D000DA69996A9C6100F0BDF970BDB0B540F63C
:1033E0008C14C2F200042068D0E904128068551AD7
:1033F000702D28BF70250144EAB2102000F050F96A
:103400002068012200F12C010C2000F0AFF92368A4
:103410005868DA69996A9D6100F09CF9B0BD0000B6
:10342000F0B581B040F68C16C2F200063568102166
:10343000D5E90470C41B702C28BF70242046FFF708
:103440006BFFA96805463944E2B2102000F028F964
:103450003068012200F12C010C20012700F086F9D0
:103460003068818F082000F061F905F0E0005F28E6
:103470000AD830681022816B05F11000C0B200F04C
:103480000FF9306880F8347033685868DA69996ADF
:103490009C6100F05FF901B0F0BD000040F0A05168
:1034A00041F4805121F00301096800F00300DFE8D6
:1034B00000F002090507090EC8B27047C1F30721E1
:1034C000C8B27047C1F30741C8B270472DE9F04355
:1034D00081B08146084690460C46002918BF01205D
:1034E00007F0F6F9B8F1040F1ED341F2000C0022E8
:1034F0000323C1F2004C002002EB090727F0030769
:1035000057F80C7042F00106390EA154390CA15540
:10351000390A42F002020430A154C2B2E75442F028
:1035200003034345E8D300E00020C1B2414511D276
:103530004FF0FF3151FA80F7C8F100067D1C05EB12
:103540000900C0B2FFF7AAFFE119487070190130F5
:103550002F46F3D101B0BDE8F083000041F2000135
:1035600000F0FC00C1F200414058704780B50420D3
:10357000FFF7F4FF000C7F2800F32A80411E3F294B
:1035800000F239800020DFE801F037203638363687
:10359000363B363636363636363E363636363636BE
:1035A00036363636363636363641363636363636B0
:1035B00036363636363636363636363636363636AB
:1035C0003636363636363636364440F2024080BD20
:1035D000B0F5007F08DA80281ED0B0F5807F04BFE8
:1035E00040F2094080BD06E019D0B0F5806F04BFFD
:1035F00040F20C4080BD012080BD40F2034080BD00
:1036000040F2044080BD40F2054080BD40F20640DB
:1036100080BD40F2074080BD4FF4816080BD40F224
:103620000A4080BD0121C4F202010A7802F07F0243
:1036300060F3C7120A7070470020C4F2020000BF96
:1036400090F90010B1F1FF3FFADC704780B541F20C
:10365000000C4FEA900EC1F2004C5CF82E3000F0E6
:103660000300DFE800F00216091023F07F4040EA73
:1036700001604CF82E0080BD23F47F4040EA012019
:103680004CF82E0080BD23F0FF0008444CF82E00BB
:1036900080BD23F47F0040EA01404CF82E0080BD3D
:1036A000F0B581B00546084617460C46002918BFFC
:1036B000012007F00DF9042F20D341F2000C002265
:1036C0000323C1F2004C002042F00101615CA65CC2
:1036D000090441EA066142F00206A65DE35C2A4461
:1036E000043041EA062122F00306C2B2194442F036
:1036F0000303BB4246F80C10E6D300E00020C1B241
:10370000B94210D24FF0FF3151FA80F07E4200BF33
:10371000471C20447A194178D0B2FFF797FFF0197F
:1037200001303846F4D101B0F0BD000041F2000C88
:103730008208C1F2004C80075CF8223051BFC3EA16
:1037400001404FF6FF7023EA000008444CF82200C5
:1037500070470000000661F30F20D1B2084441F227
:103760000001C1F2004108607047000070B50646D4
:10377000084614460D46002918BF012007F0A8F896
:10378000002C08BF70BD40F6FC7106F0FC00C1F2D1
:1037900000410844291F00BF51F8042F013C40F8A4
:1037A000042FF9D170BD000080B5002000F0E4FACC
:1037B00080BD000080B50A2000F0DEFA80BD000068
:1037C00080B50B2000F0D8FA80BD000080B50C2039
:1037D00000F0D2FA80BD000080B50D2000F0CCFAD8
:1037E00080BD000080B50E2000F0C6FA80BD00004C
:1037F00080B50F2000F0C0FA80BD000080B5012028
:1038000000F0BAFA80BD000080B5022000F0B4FAE2
:1038100080BD000080B5032000F0AEFA80BD00003E
:1038200080B5042000F0A8FA80BD000080B5052016
:1038300000F0A2FA80BD000080B5062000F09CFADE
:1038400080BD000080B5072000F096FA80BD000022
:1038500080B5082000F090FA80BD000080B50920F6
:1038600000F08AFA80BD00004FF0FF31002200BF57
:10387000431801310F295A70FAD17047B0B5054687
:1038800000200C46102D38BF012007F039F841F216
:103890000000C4F20200295C01F07F0164F3C7114B
:1038A0002954B0BDB0B5054600200C46102D38BFD8
:1038B000012007F025F841F20000C4F20200295C63
:1038C00004F03F0201F0C00111442954B0BD0000D2
:1038D000B0B5054600200C46102D38BF012007F07A
:1038E0000FF841F20000C4F20200295C01F0BF01B0
:1038F00064F386112954B0BDB0B50020002500F056
:103900002FFA00F001FC044606E000BFE8B26408AC
:1039100001350F2828BFB0BDE007F7D0E8B200F0AE
:10392000F9F9F3E710B586B045F2E813C2F20003E7
:103930001C780CB101242AE0022A4FF000041A700E
:1039400025D101220492CDE9001445F2EC11C2F216
:103950000001086044F61871C1F6FF716A46CDE9AE
:103960000244ADF8144004F07BFC45F2F01048F23C
:103970006D51C2F20000C0F20401016045F2B010C6
:1039800048F2DD31C1F6FF70C0F20401016020464B
:1039900006B010BDB0B5054600200C46102938BF52
:1039A000012006F0ADFF2C77B0BD0000B0B5054694
:1039B00000200C46102938BF012006F0A1FFAC778B
:1039C000B0BD0000B0B5054600200C46102938BF38
:1039D000012006F095FFEC77B0BD00002DE9F0471F
:1039E0000646002818BF01200C4648F200080029AE
:1039F00018BF01210840C4F2000806F081FF45F21B
:103A0000C01AC1F6FF7ADAF80000002818BF0120BA
:103A100006F076FFDAF80000217950F82100B0FABC
:103A200080F0400906F06CFF20794FF00009102863
:103A30004FF0000038BF012006F062FF25793046C4
:103A4000102105F00F0700F03DF82079217A227D42
:103A500000F040FA4046394600F0A4FBDAF80000D6
:103A6000012240F8256050F825100D7050F825000F
:103A70003946C0F80C90404600F080FB404600F00C
:103A80003FFB30B92268FF2A03D04046394600F098
:103A900057FB2079D4E9031200F0F4F90020BDE8C7
:103AA000F0870000B0B548F2000500F00F04C4F242
:103AB000000528462146FFF76DFF28462146FFF7FF
:103AC00081FFB0BD002908BF704780B5FCF7F5FF46
:103AD000BDE88040704700002DE9F04782B0044601
:103AE000DDE90A9800201D4616468A46102C38BF8C
:103AF000012006F005FF45F2C010C1F6FF70006816
:103B0000002818BF012006F0FBFE5FFA89F00121B2
:103B100001FA00F04FF0FF3151FA80F707EA060092
:103B2000B0FA80F0400906F0EBFE07EA0500B0FAB3
:103B300080F0400906F0E4FE2046514632462B460E
:103B4000CDF80090CDF8048000F018F8054680B953
:103B500048F20007DDE90C2604F00F04C4F2000768
:103B60003846214600F0A0FB38462146324600F098
:103B70006FFB284602B0BDE8F08700002DE9F04F4A
:103B800083B00446DDE90CA700201D469046029153
:103B9000102C38BF012006F0B3FE45F2C016C1F666
:103BA000FF763068002818BF012006F0A9FE3068B3
:103BB00050F82400002818BF012006F0A1FE50464E
:103BC00000F092FA06F09CFE5FFA8AF0012101FAF9
:103BD00000F94FF0FF3050FA89F606EA0800B0FA13
:103BE00080F0400906F08CFE06EA0500B0FA80F08D
:103BF000400906F085FE3E4018BF012660D148F21C
:103C0000000B04F00F07C4F2000B5846394600F0D1
:103C1000C9FA584600F0C0FA58463946424600F004
:103C200093FB584639462A4600F0F2FA5846394680
:103C300000220023CDE900AA4FF0000800F0C6FAE8
:103C40000299032924D8DFE801F0020A1218584625
:103C50003946002200F098FB4FFA89F513E04FFA3D
:103C600089F25846394600F08FFB00250BE04FFAE9
:103C700089F5584639462A4603E058463946002217
:103C8000002500F081FB584639462A4600F0D0FA5C
:103C90000D9A5846394600F033FB58463946012202
:103CA00000F002FB58463946012200F0E7FA45F2DF
:103CB000C010C1F6FF70006850F82400C0F80C80F6
:103CC000304603B0BDE8F08F70B5054600200C46C5
:103CD000102D38BF012006F013FE45F2C016C1F6C4
:103CE000FF763068002818BF012006F009FE306812
:103CF00050F82500002818BF012006F001FE48F208
:103D0000000005F00F01C4F20000224600F0A0FA06
:103D100070BD0000F0B581B048F20004C4F20004A8
:103D200000F00F05064620462946002200F020FA42
:103D300045F2C010C1F6FF70006850F826706FB1F0
:103D40003046FFF7AFFE20462946FFF72FFE012041
:103D5000F8607A6812B1B868F968904701B0F0BDB0
:103D600080B5B0FA80F0400906F0CAFD48F20000C4
:103D7000C4F2000080BD000010B545F2C011C1F6CC
:103D8000FF71096851F82040FFF78CFE34B162687A
:103D9000002A08BF10BDA068E168904710BD000070
:103DA0002DE9F04F81B00546002000902846002DF7
:103DB00018BF01200F460A9E48F2000A002918BFCA
:103DC0000121084098469146C4F2000A06F098FD89
:103DD00045F2C01BC1F6FF7BDBF80000B0FA80F0B3
:103DE000400906F08DFD6C4625202146FEF774FB48
:103DF000B0FA80F0400906F083FD2F202146FEF73F
:103E00006BFBB0FA80F0400906F07AFD28464021AD
:103E1000CBF80050FFF756FE504600F077F93968AE
:103E2000504600F087F93979504600F0ADF910207E
:103E3000102402F019FC4EF26C00C0F20400051FC1
:103E400055F8040F02F010FC013CF9D10AF5C83016
:103E5000FFF70AFDB9F1000F18BFB8F1000F0DD040
:103E600066B1A8F10404A9F1040500BF55F8040FD8
:103E700054F8041FFFF7B2FD013EF7D1002001B056
:103E8000BDE8F08FF0B581B00546002014460E461F
:103E9000102D38BF012006F033FD45F2C017C1F6E2
:103EA000FF773868002818BF012006F029FD386820
:103EB00050F82500002818BF012006F021FD3868C1
:103EC00050F825104E6050F8251000208C6001B08D
:103ED000F0BD000070B50446002015460E46102CBB
:103EE00038BF012006F00CFD45F2C010C1F6FF708E
:103EF0000068002818BF012006F002FD20460021BE
:103F0000FFF7BCFC20463146FFF7CCFC2046294693
:103F1000FFF7DEFC20460121FFF7B0FC002070BD5A
:103F200070B5054600200C46102D38BF012006F064
:103F3000E7FC45F2C016C1F6FF763068002818BFCE
:103F4000012006F0DDFC306850F82500002818BF7D
:103F5000012006F0D5FC48F2000005F00F01C4F284
:103F60000000224600F054F970BD000070B505460F
:103F700000200C46102D38BF012006F0C1FC45F290
:103F8000C016C1F6FF763068002818BF012006F081
:103F9000B7FC306850F82500002818BF012006F053
:103FA000AFFC48F2000005F00F01C4F20000224609
:103FB00000F07AF970BD000070B5054600200C468F
:103FC000102D38BF012006F09BFC45F2C016C1F64B
:103FD000FF763068002818BF012006F091FC306899
:103FE00050F82500002818BF012006F089FC48F28F
:103FF000000005F00F01C4F20000224600F0A4F911
:1040000070BD000070B5054600200C46102D38BF6D
:10401000012006F075FC45F2C016C1F6FF76306847
:10402000002818BF012006F06BFC306850F825000E
:10403000002818BF012006F063FC48F2000005F0DC
:104040000F01C4F20000224600F08EF970BD00009E
:10405000B0B504460020102C38BF012006F050FCFB
:1040600045F2C015C1F6FF752868002818BF012069
:1040700006F046FC286850F82400002818BF0120EC
:1040800006F03EFC48F2000004F00F01C4F200000C
:10409000012200F06DF80020B0BD0000B0B504466C
:1040A0000020102C38BF012006F02AFC45F2C01574
:1040B000C1F6FF752868002818BF012006F020FC13
:1040C000286850F82400002818BF012006F018FCCA
:1040D00048F2000004F00F01C4F20000002200F0DA
:1040E00047F80020B0BD000005288FBF002000F079
:1040F0003F00372121FA00F098BF00F0010070471F
:104100000068C0F380007047C06A704770B504460D
:1041100000684FF63971CFF6FC7108400026206028
:10412000F5B22046294600F03DF80F2D06F10106B4
:10413000F6D370BD026861F382020260704700002E
:1041400070B50646002014460D46102938BF0120E0
:1041500006F0D6FB85F00300304490F8001104F01F
:104160000F0201F0F001114480F8001170BD000051
:10417000002A0CBF8176C17670470000002A0CBF70
:104180000176417670470000026822F0100261F368
:104190000412026070470000016841F08001016074
:1041A0007047000000EB411000F5805100224FF4F1
:1041B00080538A60C2508A80CA80CA600A618A823B
:1041C000CA828A618A83CA83704700002DE9F0435E
:1041D00081B00746DDE9089800201C4615460E46CA
:1041E000102938BF012006F097FBE80209F007010B
:1041F00064F3C70008F0070240EA0120104407EB0F
:10420000461141F20602885201B0BDE8F083000079
:1042100070B50646002014460D46102938BF01200F
:1042200006F06EFB06EB451041F21001445070BDE4
:1042300070B50646002014460D46102938BF0120EF
:1042400006F05EFB06EB451041F21401445270BDCE
:1042500070B50646002014460D46102938BF0120CF
:1042600006F04EFB06EB451041F21C01425A22F0CB
:10427000080264F3C302425270BD000070B50646E6
:10428000002014460D46102938BF012006F038FBE7
:1042900006EB451041F21C01425A22F0020264F37F
:1042A0004102425270BD000070B50646002014461F
:1042B0000D46102938BF012006F02EFB06EB4510F5
:1042C00041F21E01435E425AB3F1FF3F014407DD54
:1042D00002F400426FF3DF3413194FF4004206E09A
:1042E00002F47E426FF35F2413194FF47E420B8079
:1042F00041F21601435A1A402243425270BD000057
:1043000070B50646002014460D46102938BF01201E
:1043100006F002FB306806EB451141F20802000688
:1043200001EB02000AD5016800295CBF01685FEA61
:10433000410105D5016864F309010C46046070BDB4
:1043400024F04044046070BD70B506460020144659
:104350000D46102938BF012006F0D2FA06EB4510B1
:104360004FF48051445070BD70B50646002014468D
:104370000D46102938BF012006F0C2FA06EB4510A1
:1043800041F20C01445070BD70B506460020144641
:104390000D46102938BF012006F0B2FA06EB451091
:1043A00041F20401445270BD10B5B0FA80F04009EA
:1043B0000C4606F04DFB49F22400C4F207000168E8
:1043C000002C21F00C0218BF41F00C02026010BD5D
:1043D00080B5002000F002F880BD0000B0B549F2C1
:1043E0000404C4F2070421680025C6F27C052942B2
:1043F00008BFB0BD40F69011C2F2000151F8201084
:104400004B6913B1022100229847206828402060A0
:10441000B0BD000080B5002000F002F880BD0000B3
:1044200010B549F20404C4F20704216811F0407F7A
:1044300008BF10BD40F69011C2F2000151F82010E3
:104440004B6913B10021002298474FF04070206063
:1044500010BD000080B5002000F008F880BD00000D
:1044600080B5002000F01CF880BD000010B549F2B6
:104470000404C4F207042168090458BF10BD40F6C3
:104480009011C2F2000151F820108A691AB1D4F8D3
:104490000016C9B290474FF40040206010BD0000E4
:1044A00010B549F20404C4F20704216811F0406F0A
:1044B00008BF10BD40F69011C2F2000151F8201063
:1044C0004B6913B10121002298474FF040602060F2
:1044D00010BD000080B5002000F002F880BD000093
:1044E000B0B549F20405C4F207052968890358BF2D
:1044F000B0BD00210446FFF757FF40F69010C2F20E
:10450000000050F8240043691BB12046032100221B
:1045100098474FF400302860B0BD0000704700009D
:1045200070470000704700007047000070470000AF
:10453000704700007047000070470000704700009F
:10454000704700007047000070470000704700008F
:10455000704700007047000070470000704700007F
:10456000704700007047000070470000704700006F
:10457000704700007047000070470000704700005F
:10458000704700007047000070470000704700004F
:10459000704700007047000070470000704700003F
:1045A000704700007047000070470000704700002F
:1045B000704700007047000070470000704700001F
:1045C000704700007047000070470000704700000F
:1045D00070470000704700007047000070470000FF
:1045E00070470000704700007047000070470000EF
:1045F00070470000704700007047000070470000DF
:1046000070470000704700007047000070470000CE
:1046100080B500F0ABFE0168092262F31B61016006
:1046200080BD0000B0B504460020032C38BF012037
:1046300006F08AF940F69410C2F2000050F82420E7
:104640004DF6C460C0F20400D2F8083250F824508D
:1046500013B120460A219847284600F001F8B0BD62
:10466000026A0421C0F20B010A421CBF0162006A07
:1046700070470000016A0622C0F23B02114208BFE7
:1046800070470221C0F230010162006A70470000E9
:1046900001210163704700001F2988BF704701F0A6
:1046A0001F01012202FA01F10163704710B50446AF
:1046B00000F0CEFD0021B1EB800F07D0820004F1A5
:1046C0007C0300BF013A43F8041FFBD1002808BF58
:1046D00010BD04F67C010022013841F8042FFBD103
:1046E00010BD0000D0F8081B41F40031C0F8081BD1
:1046F00070470000D0F8081B41F48031C0F8081B57
:104700007047000010B50129044610D140F69410FE
:10471000C2F2000050F8243003209860D3F800C2A1
:10472000BCF1000F03D0E0B209210022E047E0B263
:1047300000F002F810BD000070B505460020032D02
:1047400038BF012006F000F940F69410C2F20000D4
:1047500050F82540D4F81402C0B1A06803282AD02C
:1047600094F810022668FFF799FC3068810202D4A1
:104770007168890C7160C0F30340B16886F8480025
:1047800008BAF168B06008BAF06014E04DF6C46091
:10479000C0F2040050F8256005213046002201F0E7
:1047A000D3F830460621002201F0CEF8304607212A
:1047B000002201F0C9F800202060A16803290CD074
:1047C000A060D4F8006246B1D4F81402012804D1E4
:1047D0002846082100222346B047207B58B1A06814
:1047E000002818BF70BD201D07F084FCB0FA80F0CF
:1047F000400906F0A9F870BD70B5054603284FF0D2
:1048000000000C464FF0000638BF012006F09CF86F
:104810004DF6C460C0F2040040F6941150F8250033
:10482000C2F2000151F825502146002201F08CF817
:1048300005EB0414207B10B1201D07F05BFCA66083
:1048400070BD000040288FBFFF204DF67031C0F2D0
:104850000401085C70470000092838BF7047093818
:10486000062884BF00207047DFE800F00406080A2D
:104870000C0E10000C207047102070471420704759
:104880001820704720207047302070474020704724
:104890002DE9F041064600200C46032E38BF0120CA
:1048A00006F052F840F69410C2F2000050F826804C
:1048B00008EB041757F8080FA8B34DF6C460C0F210
:1048C0000400396850F82650022930D1304621467C
:1048D000FFF792FF28462146FFF7DEFE28462146D5
:1048E000FFF796FE2846214600F09CFC0028F9D0F0
:1048F0002846214600F03AFD00680021C0F303601D
:10490000082808BF40F20131B0F1090618BF0E4671
:10491000284621464FF00008FFF7BEFE3046C7F894
:104920000080BDE8F08140F20130BDE8F0813868D8
:10493000012825D130462146FFF75EFF284600F0CA
:10494000F9FEC8B1686BC0F3036004F033FEA04207
:1049500003D22846214600F021FF8CB928460521C4
:10496000002200F0F1FFD8F81402012808D198F8CD
:104970001002FFF793FB03E02846214600F00EFFEC
:104980002846214600F0D6FC01281CBF0020BDE8C7
:10499000F08130462146FFF72FFF28462146FFF7DA
:1049A0007BFE0020BDE8F08170B50646002014466D
:1049B0000D46032E38BF012005F0C6FF4DF6C4603A
:1049C000C0F2040050F82660304600F03DFC28B1EB
:1049D00030462946224601F01DF870BD304600F0F1
:1049E000A9FB30462946224601F014F8304600F073
:1049F0000DFC70BDF0B585B0064600201D4617467B
:104A00000C46032E38BF012005F09EFF3846002FCC
:104A100018BF012005F098FF4DF6C460C0F20400F5
:104A200050F826602146304600F064FE10B14FF485
:104A3000407716E0D7E900100390387A02918DF89C
:104A4000100030462146FFF727FE0F20019001AAF3
:104A5000304621462B4601F0E1F8074620B177B1F8
:104A6000C7B1384605B0F0BD0020019001AA30461C
:104A700021462B4601F0D2F80746002FF0D1042042
:104A8000019001AA304621462B4601F0C7F807469F
:104A9000002FE6D130462146FFF7FEFDE1E700009A
:104AA0002DE9F04186B0074603284FF000001C4670
:104AB00016460D464FF0000838BF012005F044FFB0
:104AC0003046002E18BF012005F03EFF4DF6C460B1
:104AD000C0F2040050F827702946384600F00AFE5C
:104AE00020B14FF4407006B0BDE8F081D6E9001067
:104AF00002AACDE90310B07A31898DF8160008209A
:104B0000ADF814100290384629462346CDF80080AF
:104B1000CDF8048001F02CF906B0BDE8F08100006A
:104B200070B5064603284FF000000D464FF0000414
:104B300038BF012005F008FF40F69410C2F20000D3
:104B400050F8260000EB051050F8081F21B100684E
:104B50000224032808BF0124204670BD2DE9F04F30
:104B600085B08246002090468B46BAF1030F38BFCD
:104B7000012005F0E9FE5846BBF1000F18BF0120E7
:104B800005F0E2FE40F69419C2F2000959F82A0035
:104B9000B0FA80F0400905F0D7FE4DF6C460C0F2CF
:104BA000040050F82A70384600F098FD28B13846C5
:104BB00000F0C0FA384600F04DFAD8F81810384620
:104BC00000F0F8FD384600F051FA384600F0B2FA2D
:104BD000384600F063FD504600F07EFD98F8141052
:104BE00098B13846002918BF012100F015FE38465B
:104BF00000F07CFD98F81410814207D13846002956
:104C000018BF012101F084F804E019B1012005B0BA
:104C1000BDE8F08FD8F80C00022802D0384601F029
:104C200071F898F8080040B1D8F80410384600F040
:104C30005FFA10B105B0BDE8F08FD8F84400012844
:104C400008D1384600F076FD0028DFD03846012133
:104C500000F0D8FED8F8440018B93846002100F01A
:104C6000D1FED8F81010384600F0B2FED8F8001087
:104C7000384600F017FE0028DCD1384600F036FD3B
:104C800008F11C064ECED8F82C508DE84E00049545
:104C900070B16C463846214600F092FD08F13006AE
:104CA0004FCE8DE84F003846214600F0C9FD03E0A5
:104CB0006946384601F034F8D8F80C10384600F050
:104CC00059FED8F80C00032802D0384600F09EFAAE
:104CD000504600F0DFF90025002400270BEB040606
:104CE000301D002107F0ECF9D8B94BF8045010340E
:104CF000B4F5007F07F101073573B560EED1D8F840
:104D00004400CBF8140298F848008BF810020020F9
:104D1000CBE98000CBE9820049F82AB005B0BDE8B4
:104D2000F08F002C3FF472AF0BF10404204607F023
:104D3000D3F9013F04F110044FF00100F6D179E7F7
:104D400070B50646002014460D46032E38BF0120DC
:104D500005F0FAFD40F69410C2F2000050F826006B
:104D6000C0E9805470BD000070B5064600201446AE
:104D70000D46032E38BF012005F0E6FD4DF6C46058
:104D8000C0F2040050F82600294600F0B3FC0028C9
:104D90001CBF4FF4407070BD3046294622460023A8
:104DA00001F0B0F870BD0000B0B5054600200C461B
:104DB000032D38BF012005F0C7FD284621460022FB
:104DC00001F0ECF8B0BD00002DE9F04383B00746D8
:104DD00003284FF00000984616460C464FF0000995
:104DE00038BF012005F0B0FD3046002E18BF01206D
:104DF00005F0AAFD4DF6C460C0F2040050F827503B
:104E00002146284600F076FC20B14FF4407003B0F4
:104E1000BDE8F0830A982146009038463246434662
:104E2000CDF8049001F04EF910B103B0BDE8F08365
:104E300028462146012200F087FD03B0BDE8F0833B
:104E40002DE9F0410446002090460F46032C38BF60
:104E5000012005F079FD4DF6C460C0F2040050F861
:104E60002440204600F0F0F9054610B9204600F035
:104E700061F9204600F05EFCE0B1204600F0A6FAA1
:104E8000064638463146424600F0A4FA014676B15D
:104E9000022E06D0012E14BF4FF0FF3141EA11411E
:104EA00005E041EA116040EA114040EA1121204644
:104EB00000F090FE002D18BFBDE8F081204600F004
:104EC000A5F9BDE8F08100002DE9F04381B004466A
:104ED0000020984616460F46032C38BF012005F0E7
:104EE00033FD4DF6C460C0F2040050F82440204663
:104EF00000F0AAF9054610B9204600F01BF920463B
:104F000000F0C6F91F2E14D8B04212D3204600F08C
:104F100011FC20B1204600F041FAB04212D2012F1C
:104F200028D067BB20463146424600F063FE55BBA1
:104F300026E015B9204600F069F94FF4407001B041
:104F4000BDE8F083204600F041FA814638464946E4
:104F5000424600F03FFAB9F1020F024617D0B9F10C
:104F6000010F1BD0B9F1000F1AD0204631464FF087
:104F7000FF3217E020463146424600F02DFE15B9BB
:104F8000204600F043F9002001B0BDE8F08342EA7A
:104F9000126040EA124040EA122201E042EA124264
:104FA0002046314600F020FE002DECD1E8E700005D
:104FB000B0B5054600200C46032D38BF012005F092
:104FC000C3FC4DF6C460C0F2040050F825502846DA
:104FD00000F03AF920B12846214600F015FEB0BD98
:104FE000284600F0A7F82846214600F00DFE284686
:104FF00000F00CF9B0BD0000F0B581B0044600200F
:1050000015460F46032C38BF012005F09DFC4DF6D8
:10501000C460C0F2040050F82440204600F014F9A7
:10502000064610B9204600F085F8012F0AD01FB9B6
:105030002046294600F058FE16B9204600F0E6F852
:1050400001B0F0BD2046294600F04AFE002EF7D1FF
:10505000F3E700000168002948BF7047016841F08C
:10506000004101600168C902FCD570470168C902AE
:1050700058BF7047016821F000410160016821F0CC
:1050800080410160016821F08051016001680901DF
:10509000FCD47047B0B5044638B94DF60070C0F284
:1050A000040050F8240001F0DFFA4DF6DC60C0F295
:1050B000040050F8240001F0D7FA4DF6D060C0F299
:1050C000040050F8240001F0CFFA4DF6E860C0F279
:1050D000040000EB84040025605910F1800118BF22
:1050E00001F0C2FA0C35182D08BFB0BDF4E700007E
:1050F00070B50E46054600F0F5FA0446C0B92846DC
:1051000000F0A6F8296880B241F000512960696B6F
:1051100066F31B6169634FF0FF31A96440B105F686
:105120007C016FF0604200BF013841F8042FFBD1D1
:10513000204670BDF0B581B00446006840F0804064
:105140002060206840F0805020602068B0F1FF3F70
:1051500001DD012604E02068002620F000402060E8
:105160000020A060204600F0BDFA0546204600F071
:1051700067F86DB198B940F2D92500BFA7682046FD
:1051800000F05EF8AF420AD80028F7D007E000BF71
:1051900028B9A568204600F053F8B32DF8D9206847
:1051A000C0010AD4A06A2168226842F0007222601D
:1051B00022689201FCD4A062216036B9206840F0D8
:1051C000004020602068C002FCD501B0F0BD0000A6
:1051D000B0B504460020032C38BF012005F0B4FB15
:1051E00040F69410C2F2000050F824204DF6C4603E
:1051F000C0F20400D2F8083250F8245013B120460F
:105200000A2198472846FFF735FAB0BD016821F01A
:1052100080510160016821F0804101600168C9018D
:10522000FCD470471F2982BF0020C0B27047006BBA
:1052300001F01F0101228A401040C840C0B27047EF
:105240000068C0F3006070470068C0F300607047FA
:1052500080B54FF0000E08A20FF2280C002300BF0B
:1052600052F82310814208BF5CF823E00133032B7E
:10527000F6D1704680BD00BF0040024000500240A1
:1052800000B00240200000002000000020000000CC
:10529000006800F07F0070472DE9F041804610461D
:1052A00014460D46002A18BF012005F041FB404678
:1052B000294600F05BF80646074656F8080BC0F38F
:1052C0000340FFF7C9FA0546404600F06FF88542F3
:1052D00003D9404600F06AF8054684F8485038681B
:1052E00020607968800258BF890C15F0FC0061606D
:1052F0000ED0391D042200BF51F8043FA7181BBA75
:105300007B60131D82421A46F6D3181FC0B200E01C
:105310000020A84228BFBDE8F08104F1080100BFC9
:1053200080F00302B25C0A5401308542F8D1BDE836
:10533000F08100001F2982BF0020C0B27047806A40
:1053400001F01F0101228A401040C840C0B27047DE
:105350001F2984BF00207047826A006B01F01F0183
:105360001040C84000F0010070470000B0B50C4686
:10537000054600F01BF80830C0B24FF40071B1FBD5
:10538000F0F18008C9B2B4FBF1F202FB11414843CD
:1053900000EBC21005EB80008030B0BD406B0721F0
:1053A000C0F3036001EB40007047000010B50446F5
:1053B00000F098F900284FF0080004D0D4F8001C41
:1053C000C1F301418840C0B210BD00000068C0F3C5
:1053D00001207047034602294FF0000016D0012932
:1053E00006D021B9012B02F0404013D03BB17047E9
:1053F000012B02F0404015D0002B18BF7047002150
:10540000C3F6F87101EAC24108437047022B38BF66
:10541000100670474FF6FE71C3F6FF7101EA4201B4
:10542000084370470021C3F6F87101F5E02101EA55
:105430000241084370470000D0F8080BC0F3404019
:1054400070470000D0F8080BC0F300407047000020
:105450002DE9F04393B0074603284FF000004FF0CA
:10546000000438BF012005F06FFA4DF6C460C0F2A9
:10547000040050F8275040F69410C2F2000050F893
:10548000278028460021FFF763FF00BFC10707D12F
:10549000013428462146FFF75BFF202CF6D120245B
:1054A00000285DD0284600F045F9072C05D820B12A
:1054B0003846214600F058F808E008EB04108068F0
:1054C000012803D13846214600F09AF808EB041071
:1054D000814659F8081F022929D1407B88B1284606
:1054E000214600F02BF96A4628462146FFF7D4FEF4
:1054F000284600F045FE009800F07060B0F1806F23
:1055000003D128462146FFF7C7F80020C9F800005C
:10551000D8F8006226B13846042122464346B047F7
:10552000D9F8000018B938462146FFF765F9284632
:105530002146FFF70DFF98B1284600F0FBF8072C35
:105540000AD848B1D8F8080050B928462146FFF7D4
:10555000A3F813B0BDE8F083D9F800000028F4D018
:1055600013B0BDE8F0830000F0B581B004464DF6FD
:10557000C460C0F2040050F8247040F69410C2F2E7
:10558000000050F824500E4607291FD0062E27D0C1
:10559000052E33D1A868012830D12968384600F09B
:1055A000D3F838463146FFF777F80020A860D5F8E1
:1055B000007227B12046012100222B46B847A86877
:1055C000E0B92046FFF7B8F801B0F0BD38463146E3
:1055D000FFF762F8D5F8007287B12046032108E092
:1055E00038463146FFF758F8D5F8007237B12046F3
:1055F000022100222B46B84701B0F0BD01B0F0BD3A
:105600002DE9F04180464DF6C460C0F2040050F828
:10561000287040F69410C2F2000050F82860384616
:105620000D4600F08BF8280132583846294606EB23
:105630000514FFF731FE38462946FFF72DF83846A6
:1056400000F078F818B12068C078000703D0384619
:1056500000F096FD0BE038462946FFF787FE01680B
:1056600021F070610160016841F0806101600020FB
:1056700044F8080FD6F8007227B1404600212A46A8
:105680003346B8472068002818BFBDE8F08140467F
:105690002946FFF7B1F8BDE8F081000010B50446D7
:1056A000006840F00070206020688001FCD4206811
:1056B00040F4805020602046FEF7F8FF4FF0FF30A6
:1056C000002120616061A061A16220630620C0F218
:1056D0003B00206210BD0000012070470068C043FD
:1056E000C00F70470068C0F3C02070470068C0F367
:1056F000C0207047B0B50546006800F07F008842C2
:105700000DD328460C4600F011F830B1686BC0F399
:10571000036003F047FFA04201D20020B0BD01208A
:10572000B0BD00000068C0F3803070470068C0F36F
:10573000407070470068C0F34070704780B5FFF755
:1057400015FE006880BD0000B0B5044608460D4651
:10575000002918BF012005F0EBF8D4F88000C0F351
:105760000340FFF779F885F84800D4F880102960E5
:10577000D4F88420890258BF920C00286A6008BFC0
:10578000B0BD05F1080104F188020023D5582DBAF7
:10579000CD5004338342F9D3B0BD000080B5FFF78C
:1057A000E5FD016821F07061016001F18061016037
:1057B00080BD0000426861F34D32426070470000D6
:1057C000B0B5054608460C46002918BF012005F073
:1057D000BBF8286D00F000402865D5F850C094E86B
:1057E0000E0003F01F03D4E9030401F03F0E002173
:1057F00043EA0C0302F01F02C7F6E07143EA8E236E
:1058000001EA405043EA421204F01F01104340EA0B
:1058100001402865B0BD0000026822F4006261F317
:10582000CB220260026D22F0004261F3DF7202655A
:10583000D0F8001C21F41F41C0F8001C7047000084
:10584000B0B5054608460C46002918BF012005F0F2
:105850007BF8D5F8040C48F21831CCF20801084066
:10586000C5F8040CD5F804CC94E80E0003F0070347
:10587000D4E9030401F01F0E002143EA0C0302F0F7
:105880000702C3F6F07143EA8E2301EA005043EAAF
:10589000421204F00701104340EA0140C5F8040C2D
:1058A000B0BD00002DE9F04381B005464F1E4FF01A
:1058B000000040F10000894605F03AF82846FFF75D
:1058C00075FD064628463946FFF750FD304408303E
:1058D00005F52071884204D82846FFF7B9FC4845F1
:1058E00005D24FF44078B8F1000F28D104E04FF012
:1058F0000008B8F1000F22D1286867F3060028607D
:105900002846FFF713FFB9F1000F18D0B8B90027E8
:105910000021002404E000BF0134E1B249450ED269
:105920002846FFF723FD002E07604760F4D00730BC
:10593000314600BF013900F8017FFBD1ECE740465A
:1059400001B0BDE8F08300001F2911D880B501F037
:105950001F014FF0010CD0F828E00CFA01F12EEAFB
:105960000103002A18BF4EEA01038362BDE88040AC
:105970000020704780B5042988BF80BDDFE801F0B2
:10598000031015202300016821F400010160416823
:1059900021F008014160416821F48051416080BDDF
:1059A000416841F00801416080BD416841F4805187
:1059B0004160416821F00801416000F09DF980BD1F
:1059C000FFF7B8FB80BD016841F00041016080BD78
:1059D000B0B50D460446FFF785FEB5FA85F14909D5
:1059E000084304F0A5FF2046FFF77CFE002808BF0F
:1059F000B0BDD4F8000C20F4403040EA0540C4F8B3
:105A0000000CB0BD026822F4004261F3CF320260A4
:105A1000704700002DE9F04F81B0044610469146D2
:105A20000E46002A18BF012004F082FF606B032E8F
:105A3000C0F3036200F2C380DFE806F0023081C4E5
:105A40002168002021F4407144F8E01B08214FF642
:105A5000FE73C3F6F87001EBC20109F10402C3F64C
:105A6000FF7309E000EAC646374344F8047B013976
:105A700002F1080200F0A38012F8047C12F8035C23
:105A8000002F18BF01271668002D4FEAC777E9D00D
:105A900003EA4606374347F08047E6E720680121DE
:105AA00061F3092004F1E00E40F2000844F8E00B35
:105AB0000820C3F6F87800EBC20B09F108030026B2
:105AC00043F6F87C002010E00CEAC10141EA05022F
