:020000040004F6
:1000000000100120550504006705040005FD0400EB
:100010006B0504006D0504006F050400000000007E
:100020000000000000000000000000008D0504003A
:1000300073050400000000002506040035060400D6
:10004000313D0400853D0400913D04009D3D0400C8
:10005000A93D0400B53D0400C13D0400CD3D0400B0
:10006000D93D0400E53D04003D3D0400493D040048
:10007000553D0400613D04006D3D0400793D0400E0
:10008000813E0400790504008D73040079050400A5
:100090007905040079050400790504007905040058
:1000A0004D790400597904001D8604002986040056
:1000B000358604006579040071790400790504002F
:1000C0007905040079050400790504007905040028
:1000D0007905040079050400790504007905040018
:1000E0007905040079050400790504007905040008
:1000F000790504007905040061A704006DA70400D8
:1001000079050400790504007905040079050400E7
:1001100079050400790504007905040079050400D7
:1001200079050400790504007905040031A604006E
:1001300035A6040055A6040059A604005DA60400D7
:1001400079050400790504007905040079050400A7
:10015000790504001573040079050400790504008D
:10016000A9530400B5530400695304002553040047
:100170007905040029540400DD1F0400B91F0400A0
:10018000E91F0400C51F0400D11F04007905040005
:100190007905040019200400F51F04007905040006
:1001A000012004000D2004007905040079050400F5
:1001B00049200400252004007905040031200400B2
:1001C0003D2004007905040079050400F97304005A
:1001D00005740400117404001D7404007905040002
:1001E0007905040029740400357404004174040086
:1001F0004D74040079050400790504005974040065
:1002000065740400717404007D74040079050400B1
:10021000790504008974040095740400A174040035
:10022000AD7404007905040079050400B974040074
:10023000C5740400D1740400DD7404007905040061
:1002400079050400E9740400F574040001750400E4
:100250000D75040079050400790504001975040082
:1002600025750400317504003D750400790504000E
:100270007905040049750400557504006175040092
:100280006D75040079050400790504007905040002
:100290007905040079050400790504007905040056
:1002A0007905040079050400790504007905040046
:1002B0007905040079050400790504007905040036
:1002C0007905040079050400790504007905040026
:1002D0007905040079050400790504007905040016
:1002E0007905040079050400790504007905040006
:1002F00079050400790504007905040079050400F6
:1003000079050400790504007905040079050400E5
:1003100079050400790504007905040079050400D5
:1003200079050400790504007905040079050400C5
:1003300079050400790504007905040079050400B5
:1003400079050400790504007905040079050400A5
:100350007905040079050400790504007905040095
:100360007905040079050400790504007905040085
:100370007905040079050400790504007905040075
:100380007905040079050400790504007905040065
:100390007905040079050400790504007905040055
:1003A0007905040079050400790504007905040045
:1003B0007905040079050400790504007905040035
:1003C0007905040079050400790504007905040025
:1003D0007905040079050400790504007905040015
:1003E0007905040079050400790504007905040005
:1003F000790504007905040079050400FFFFFFFF7B
:020000040004F6
:1004000000F002F800F092F80AA090E8000C824494
:100410008344AAF10107DA4501D100F087F8AFF271
:10042000090EBAE80F0013F0010F18BFFB1A43F0D2
:1004300001031847F823010048240100103A24BFA3
:1004400078C878C1FAD8520724BF30C830C144BF39
:1004500004680C607047000000230024002500267B
:10046000103A28BF78C1FBD8520728BF30C148BF17
:100470000B6070476E2900F01385702900F0278209
:10048000662911F09883652911F09583672911F089
:100490009283612911F0918303681B0A28BF41F000
:1004A0008001692900F0C084642900F0BD847529A9
:1004B00000F0BA846F2900F00186782900F0F381FA
:1004C000E92900F09B85E42900F09885F52900F0E2
:1004D0009585EF2900F0FE85F82900F0F281036888
:1004E000DB0928BF41F08001632900F01C857329D6
:1004F00000F02185E32901F0DD81F32901F0E2819B
:10050000002070471FB511F0E7FA00F0E8FB040087
:100510000020002110F016FC401C6060002000212B
:1005200010F026FCE0601FBD10B510BDDFF814D040
:1005300003B40AF0D1FE03BCFFF7E4FF0CF032FA7B
:1005400001F01AFB0010012003B4FFF7EDFF03BC1C
:1005500000F0CAFD094872B609488047094880473B
:1005600062B609480047FEE7FEE7FEE7FEE7FEE762
:10057000FEE7FEE7FEE7FEE7FEE700001C280500B9
:10058000F1AF0400DDC50400010404001EF0040FF7
:100590000CBFEFF30880EFF30980816911F8021CAA
:1005A00091BB01B590E80F10E047BDE800508CE822
:1005B0000300244B93E80600914208BF704741B9FD
:1005C0001EF0100F10D12049086820F001000860CB
:1005D0000AE02CE9F00F1EF0100F08BF2CED108A76
:1005E000C1F838C081F822E01A6092F82210906BAE
:1005F00061F0FF0E1EF0100F08BFB0EC108AB0E8DB
:10060000F00F80F309887047104A13689942FAD8AE
:1006100001B552F821C00FC8E047BDE80050CCF842
:100620000000704701B50DF07BF8BDE80140EFF325
:10063000098CBEE701B50DF067FBBDE80140EFF3A3
:10064000098CB6E71C48FF1F34EF00E0D0250500F9
:1006500010B500F044FB001D10BD00BFE90601000D
:1006600053EA020C00F069802DE9F04B4FF00006D0
:10067000002B1FBFB3FA83F503FA05F424FA05F63D
:100680005E4012BF1643B2FA82F502FA05F4C5F1D4
:1006900020051EBF22FA05FC44EA0C04203556EA68
:1006A000044C4FEA144418BF641C4FF000084FF08C
:1006B0000009904271EB030C39D3002919BFB1FA3C
:1006C00081F701FA07F6B0FA80F700FA07F6C7F1EA
:1006D00020071EBF20FA07FC46EA0C062037B6FBAF
:1006E000F4FCA7EB0507103F07F01F0BCBF120062A
:1006F0002CFA06F60CFA0BFB44BFB3460026202F5B
:10070000A4BF5E464FF0000B5BEA060C08BF4FF03B
:10071000010B19EB0B0948EB0608ABFB027C06FB4F
:1007200002CC0BFB03CCC01B71EB0C01C1E70B46E9
:10073000024641464846BDE8F08B13B5084318BF52
:100740004FF0FF300146AFF30080BDE81C4070471A
:1007500053EA020C23D010B54C1084EA530404D59C
:100760004042C1F1000138BF491E1B4204D552422C
:10077000C3F1000338BF5B1EFFF772FF14F0804F18
:1007800004D04042C1F1000138BF491E14F0004FAF
:1007900004D05242C3F1000338BF5B1E10BD13B535
:1007A00040424FF0000070EB0104B8BF012001F09F
:1007B000004100281CBF6FF000414FF0FF30AFF345
:1007C00000801CBD0FB47CB50C0009AA009001D0BC
:1007D0002044401E084B7B4469460190089800F075
:1007E00078FB05461CB10020694600F085FB2846D1
:1007F0007CBC5DF814FB00002907000070B50C46B6
:100800000546012A05D02878800600D5EA6900232C
:1008100002E0012305E05B1C934202D2E05C002869
:10082000F9D1A869E618C01AA861286A1844286294
:10083000284600F066FA04E0D5E9012114F8010B1E
:100840009047B442F8D3284600F071FA70BD00001A
:10085000F0B40D460188090502D5214C7C4402E024
:100860001F4C7C440E34002100F1240608E002F005
:100870000F071209E75D42EA03721B097754491C0E
:1008800052EA0307F3D102780023120704D5702D32
:1008900006D009B1022311342246F0BC00F06ABA36
:1008A00001231034F8E770B504460D462146106860
:1008B00000F057FA024629462046BDE87040002362
:1008C000C6E7D21D22F00703D3E90023C0E703687F
:1008D000126843F0200303600823C3610023B7E7D5
:1008E0004E1401002DE9F05F894604464FF0000ADE
:1008F000DFF874B1FB44C0F820A02046E1688847C7
:10090000002874D0252806D0D4E901219047206A18
:10091000401C2062F1E700265F462046E1688847D8
:100920002028054607DB312D05D2781910F8200C58
:1009300008B10643F1E7B00701D526F00406C4F874
:100940001CA00027C4F818A02A2D09D0284610F0B2
:10095000AFF938B304EB8708303DC8F8185019E0F8
:1009600059F8041B204604EB87029161E16888472F
:10097000012F054618D1E069002820DA26F020066C
:100980001DE0D8F8180000EB800005EB400030387F
:10099000C8F818002046E1688847054610F088F935
:1009A0000028EED1012F0AD02E2D08D12046E16873
:1009B00088477F1C0546022F46F02006C4DBA0694D
:1009C000002803DA404246F00106A061F00701D09A
:1009D00026F010066C2D0BD0682D09D04C2D39D087
:1009E0006A2D35D0742D35D07A2D33D016E038E00D
:1009F000E1682F4620468847B842054609D16C2F4A
:100A000026D04FF48060E1680643204688470546BB
:100A100004E06C2F1AD04FF4807006430DB3A5F19B
:100A20004100192802D8203546F400664A46294676
:100A3000204626604E46FFF71DFD80B101280BD0F1
:100A4000F61D26F0070000F1080956E74020E4E70C
:100A50008020D8E70020D6E706F104094DE72846B4
:100A600052E7206ABDE8F09FDE13010040EA01036F
:100A700010B59B070FD1042A0DD310C808C9121F47
:100A80009C42F8D020BA19BA884201D9012010BD81
:100A90004FF0FF3010BD1AB1D30703D0521C07E04E
:100AA000002010BD10F8013B11F8014B1B1B07D1B2
:100AB00010F8013B11F8014B1B1B01D1921EF1D123
:100AC000184610BD10B5431C02E010F8011B71B1AF
:100AD0008107FAD14FF0013202C88C1A8C4314EA14
:100AE000C211F9D0C01A0A0603D0C01E10BDC01A28
:100AF00010BD0A0401D0801E10BD0902FCD0401EAA
:100B000010BD032A40F2568010F0030C00F015804F
:100B100011F8013BBCF1020F624498BF11F801CB00
:100B200000F8013B38BF11F8013BA2F1040298BF65
:100B300000F801CB38BF00F8013B11F0030300F0CF
:100B40004B80121FC0F03680A1EB0301D1F800C02A
:100B5000022B00F0118000F21E804FEA1C2351F896
:100B600004CF121F43EA0C6340F8043BBFF4F5AF17
:100B700001F1010100F01EB84FEA1C4351F804CF07
:100B8000121F43EA0C4340F8043BBFF4F5AF01F1F8
:100B9000020100F00FB84FEA1C6351F804CF121F96
:100BA00043EA0C2340F8043BBFF4F5AF01F1030125
:100BB000AFF30080D20724BF11F8013B11F801CB3D
:100BC00048BF11F8012B24BF00F8013B00F801CB0E
:100BD00048BF00F8012B704710B5203AC0F00B80D9
:100BE000B1E81850A0E81850B1E81850A0E8185023
:100BF000203ABFF4F5AF5FEA027C24BFB1E8185099
:100C0000A0E8185044BF18C918C0BDE810405FEAFA
:100C1000827C24BF51F8043B40F8043B08BF704776
:100C2000D20728BF31F8023B48BF11F8012B28BF7B
:100C300020F8023B48BF00F8012B704702F0FF0389
:100C400043EA032242EA024200F024B84FF00002D5
:100C50000429C0F0128010F0030C00F01B80CCF1CE
:100C6000040CBCF1020F18BF00F8012BA8BF20F83C
:100C7000022BA1EB0C0100F00DB85FEAC17C24BF90
:100C800000F8012B00F8012B48BF00F8012B70473A
:100C90004FF0000200B5134694469646203922BF15
:100CA000A0E80C50A0E80C50B1F12001BFF4F7AF60
:100CB000090728BFA0E80C5048BF0CC05DF804EB42
:100CC000890028BF40F8042B08BF704748BF20F8B0
:100CD000022B11F0804F18BF00F8012B704710B5A0
:100CE00000F008FA203010BD0AF09ABA10B5FFF7EC
:100CF000FBFF006810BD10B50446FFF7F5FF046068
:100D000010BD70B5044685690068C10601D530265E
:100D100000E02026C00707D070BDD4E9012130468D
:100D20009047206A401C20626D1EF6D570BD70B5DC
:100D3000044685690078C00707D170BDD4E9012158
:100D400020209047206A401C20626D1EF6D570BDA1
:100D500009684A0501D540B27047C905FCD500B203
:100D6000704709684A0501D5C0B27047C905FCD56E
:100D700080B270472DE9F0470D46994692460446E9
:100D800000F124080168880604D5E06921F010010B
:100D9000216000E00120A84201DD471B00E00027A0
:100DA000A1697A1902EB0900081AA0612078C0062F
:100DB00002D42046FFF7A5FF002608E0D4E9012170
:100DC0001AF806009047206A401C761C20624E45A7
:100DD000F4DB2078C0060AD52046FFF792FF06E034
:100DE000D4E9012130209047206A401C2062381E3F
:100DF000A7F10107F4DC07E0D4E9012118F80500A8
:100E00009047206A401C2062281EA5F10105F3DCF2
:100E10002046FFF78CFF2078000602D50220BDE8AF
:100E2000F0870120FBE700002DE9F0410646002491
:100E300010687529314616A510D0FFF789FF0028E4
:100E400002DA404213A507E031688A0701D512A5EE
:100E500002E0490704D511A5012401E0FFF781FF55
:100E600000210A2206F1240709E0B0FBF2FCB0FBE6
:100E7000F2F302FB1C00303078541846491C00285D
:100E8000F3D123462A463046BDE8F041FFF772BF52
:100E9000000000002D0000002B00000020000000DA
:100EA00011680268006A530501D508700AE0D3058D
:100EB00001D5088006E0130603D5C217C1E9000278
:100EC00000E008600120704701694A1C026108784F
:100ED000704700B58FB0CDE901310021059105497A
:100EE0007944CDE9031011466846FFF7FBFC0FB0CB
:100EF00000BD0000E5FFFFFF0A6802F8010B0A6071
:100F00007047D1E900239A4202D2531C0B60107043
:100F1000704710B5436913B1AFF3008001E0FFF7EC
:100F20006DFC012010BD127800F124010A7000222E
:100F30004A700122EDE711684FF0FF32E9E7000047
:100F40002DE9FF5F15468A460446DFF8AC80F84479
:100F50000027D8E900103E46CDE9001010E05AF80D
:100F600026106A4602A800F0B1FC411C07D0217887
:100F7000890603D5E269391891420DD80744761CD9
:100F80002078800602D5E069B84205DDAE42E6DB96
:100F90005AF826000028E2D1A069C01BA0612046B3
:100FA000FFF7AFFED8E90010CDE90010002017E0F0
:100FB0005AF828106A4602A800F088FCB0F1FF3FFA
:100FC00081460BD000250DF1080B05E0D4E9012185
:100FD0001BF8050090476D1C4D45F7D308F1010043
:100FE000B0428046E4DB206A384420622046FFF7A6
:100FF0009EFEBDE8FF9F00001E0E01002DE9F0419E
:101000008046D21D22F007020025D2E90002F52910
:1010100015A614D0011E72F1000106DA0023D0EBF0
:10102000030063EB020211A608E0D8F800108B075A
:1010300001D50FA602E0490701D50EA601251146EC
:10104000002408F1240704E000F058F830323A5543
:10105000641C50EA0102F7D12B4632462146404635
:10106000BDE8F041FFF786BE000000002D00000043
:101070002B0000002000000030B4002100F1240407
:1010800008E002F00705D208303542EA4372DB0877
:101090006554491C52EA0305F3D10468002310A2E9
:1010A000250708D504F020040C4304D0C4690123AB
:1010B0000CA2641EC46130BCFFF75CBE10B50446D0
:1010C00021461068FFF74DFE02462046BDE810405D
:1010D0000023D1E7D21D22F00701D1E90023CBE79D
:1010E000000000003000000001491820ABBEFEE700
:1010F00026000200004870474003002030B5B0F1E0
:101100000A0271F100034FEA900E4EEA817EB0EBC5
:101110000E0061EB91014FEA101E4EEA017E10EBCA
:101120000E0041EB11114FEA102E4EEA016E10EB4A
:101130000E0041EB11214FEA104E4EEA014E10EB2A
:101140000E0041EB1141401841F100014FEAD0007F
:1011500040EA41704FEAD1014FEA810444EA9074B9
:1011600010EB800544EB01046D1944EB0404521BA1
:10117000A3414FF0000348BF0A3200D530BD401CE8
:1011800041F1000130BD2DE9FF4F0C461E464FF0E6
:10119000FF378BB0D2E90001DDF860800A908A4603
:1011A000C1F30A5505B93D46002108464FF000003D
:1011B000BAF1000F00F4400005DA00EB80004FF4B4
:1011C000400101EA50004FEA9059B9F1010F00DDEA
:1011D000B9460A9850EA4A000ED044F61050A5F2DB
:1011E000FF3545432F14B8F1000F1ED07542291E5C
:1011F0001EDDC9F100021CE0B8F1010F4FF0000044
:1012000001D0302103E0F24305E02154401CB042FC
:10121000FBDB30460022002121540B99C1F80880E5
:10122000C1E900200FB0BDE8F08FBD1B6D1CDEE7EB
:101230004A4600DA694206A800F02CFC06AB93E8A7
:10124000070003AB83E8070050460A990EF092F9B5
:101250008DE80700A0F500501F3800900398002D7E
:101260000ADD42F21F014A460844002303A9039005
:1012700068460EF0FBFB09E0A0F500504A461F3817
:10128000002303A9039068460EF005FC8DE80700D3
:101290000004000C03D04FF0FF30410800E010467E
:1012A000B8F1000F03D00022009215461EE0751E13
:1012B00005D4FFF723FF303262556D1EF9D5B346D2
:1012C0000122084302D000227F1C04E0207830284D
:1012D00001D100227F1E002A099784D01DE0112D24
:1012E00007DAFFF70BFF303262556D1C50EA01023E
:1012F000F5D1084302D00098C8B10EE00021681E65
:1013000005E0235C625C63542254401E491C814208
:10131000F7DBAB46A81B401E0990002004F80B0029
:101320000B98099AC0F80880C0E9002B7AE71126CB
:101330004FF0000857E72DE9F04F88460446D21DCC
:1013400022F0070191B0D1E90001CDE90A010EF0C8
:1013500036FD02460B98C00F01D02D2007E0206813
:10136000810701D52B2002E0202101EAC000032AD9
:10137000099001D0072A05DB03464146204600F0CC
:1013800049FB0BE12078800601D5E06900E00620EA
:10139000B8F1650F814606D0B8F1660F18D0B8F1E4
:1013A000670F70D131E00020B9F1110F009001DB1F
:1013B000112301E009F101030AAA01A90CA8FFF712
:1013C000E2FEDDE90C70002609F10105834647E0E5
:1013D00001204B4600904FF000470AAA01A90CA833
:1013E000FFF7D1FEDDE90DB00C995D46002610B97E
:1013F00009F101000D18B9EB050003D4C0F1FF3667
:1014000009F10105A5EB09002BE0B9F1010F01DAA3
:101410004FF001090020B9F1110F0090484601DD9D
:10142000112300E003460AAA01A90CA8FFF7ABFEAE
:10143000DDE90C704D4600268346207800070AD46B
:10144000AB4500DA5D4601A8012D04DD411911F814
:10145000011C302907D04F4502DA17F1040F04DAD6
:10146000012082460FE06D1EEEE7002F02DCED1B2F
:101470003E4403E0781CA84200DD7D1CB81B00F14F
:10148000010A4FF000472078000703D4AA4501DB8A
:101490004FF0FF3A0021B7F1004F0DF143088DF8EE
:1014A000431024D002202B23002F01DA7F422D236A
:1014B0000A21021EA0F1010000DC5FB197FBF1FCE4
:1014C00097FBF1F201FB1C7C17460CF1300C08F87D
:1014D00001CDEEE7A8F1010003702188090501D5CF
:1014E000452100E06521A0F1010800F8011C0998E0
:1014F0000FA9A1EB0807FF1D00B10120411901EB65
:10150000EA70A1693844081A401EA0612078C0061C
:1015100002D42046FFF7F5FB099828B1D4E9012150
:101520009047206A401C20622078C00622D52046C1
:10153000FFF7E7FB1EE0002E04DBB34502DD01A848
:10154000805D00E03020D4E901219047206A401CF2
:101550002062761CAAF101005FEA000A0AD1FFF7B7
:10156000BEFBC0680168405CD4E901219047206A55
:10157000401C2062281EA5F10105DCDC07E0D4E94F
:10158000012118F8010B9047206A401C2062381E88
:10159000A7F10107F3DC2046FFF7C9FB032011B0D8
:1015A00041E600002DE9F04F04460D46D21D22F021
:1015B000070089B0D0E90097484639460EF0FFFB96
:1015C0000246F80F01D02D2307E02068810701D5DE
:1015D0002B2302E0202101EAC0038DF820300BB15B
:1015E000012000E00020032A824601D0072A04DB04
:1015F0002946204600F00EFA3FE12078800601D40B
:101600000D2500E0E569C7F30A560D2D49DA0021E2
:101610004FEA175B08464FF00000002F00F440002F
:1016200007DA00EB80004FF4400100EBD07001EAD4
:1016300060008115012901DD4FF0FF3100224FEAE2
:10164000850CBCF1180F06D31346ACF118004FF00F
:101650008052C24003E04FF4801323FA0CF30CF1E4
:101660000C0CBCF1200F04D3ACF1200C09FA0CF0E7
:1016700001E007FA0CF000294FF0004801DD18B92D
:101680000FE00ED140450CD319EB02095F4121B99F
:10169000404502D19F4329EA0209BBEB175F00D006
:1016A000761C2088000502D57B48784402E07A4801
:1016B0007844193808AA302302F80A30037C0AF16A
:1016C0000101002E0AF1020A53546A4602DC4FF06F
:1016D000300101E04FF031014FF001088DF80010AA
:1016E00002D0A6F2FF3603E059EA470100D06B4E64
:1016F000002D02DC2178090704D54FF002082E21C5
:101700008DF80110C44600210BE0C7F303433F01ED
:10171000C35C491C6D1E02F80830052908F1010858
:1017200001DA002DF1DC00210CE000EB1973491CFB
:101730001B786D1E082902F808304FEA091908F1D4
:10174000010801DA002DF0DC21688B0602D516E0D5
:10175000A8F10108E04505DD02EB080313F8013CA0
:10176000302BF5D0B8F1000F09DD02EB080313F8B8
:10177000013C2E2B03D1090701D4A8F10108002D4B
:1017800005DD3E2102F808106D1E08F10108407CBD
:10179000002E02F8080008F1010804DA2D20764234
:1017A00002F8080002E02B2002F808000A214FF49A
:1017B0007A70864208F101080BDB96FBF0F33033B8
:1017C00002F8083096FBF0F308F1010800FB1366FD
:1017D00001E0642E0CDB642096FBF0F3303302F85A
:1017E000083096FBF0F308F1010800FB136601E0F6
:1017F0000A2E06DB96FBF1F0303002F8080008F103
:10180000010896FBF1F001FB1060303002F808008F
:10181000A16908F1010808EB050202EB0A00081AA9
:10182000A0612078C00602D42046FFF76AFA216A38
:1018300008AE01EB0A00206204E0D4E9012116F8A9
:10184000010B9047BAF1010AF7D22078C00602D501
:101850002046FFF756FA6E4609E016F8010B3E28BF
:101860000FD0D4E901219047206A401C2062B8F1D2
:101870000108F2D22046FFF75AFA09B00320BDE86A
:10188000F08F206A2844206203E0D4E9012130204F
:1018900090476D1EEBD3F8E7E506010002FCFFFF61
:1018A00010B5436913B1AFF3008001E0FFF748FBC7
:1018B000012010BD126800F1240142620022826200
:1018C0000122EDE711684FF0FF32E9E72DE9F04121
:1018D00016460C460546FEF7BBFE036893F8010169
:1018E000012807D0FF2C12D8185D80B101202C7080
:1018F000BDE8F081D3F807013246214603F2071311
:10190000C7182846BC46BDE8F041012360474FF0A8
:10191000FF30EDE780EA010212F0030F63D110F00F
:10192000030F1DD010F8012B11F8013B012A28BF2D
:101930009A4268D110F0030F12D010F8012B11F861
:10194000013B012A28BF9A425DD110F0030F07D056
:1019500010F8012B11F8013B012A28BF9A4252D1FD
:1019600000B5DFF8A8E050F8042B51F8043BA2EBD7
:101970000E0C2CEA020C1CEACE1C08BF9A420CD1B9
:1019800050F8042B51F8043BA2EB0E0C2CEA020C8D
:101990001CEACE1C08BF9A42E5D05DF804EB4FEA82
:1019A0000360B0EB026003D110F1000F1CF47F6FF5
:1019B00015D14FEA0340B0EB024003D110F1000F04
:1019C0001CF47F4F0BD14FEA0320B0EB022003D170
:1019D00010F1000F1CF47F0F08BFB3EB020018BF1B
:1019E0004FEA3000704710F8012B11F8013B012A33
:1019F00028BF9A4207D110F8012B11F8013B012AA8
:101A000028BF9A42EFD0A2EB030070470101010109
:101A1000704700002DE9F0411F4604460326016887
:101A2000072A01F4006004DB08B116A505E016A53D
:101A300003E008B115A500E015A521F01000206015
:101A4000A069C01EA0610FB1401EA0612046FFF733
:101A500058F94FB1D4E9012138469047206A401C1B
:101A60002062C01C206206E0206AFAE7D4E9012166
:101A700015F8010B9047761EF8D22046FFF757F96C
:101A8000BDE8F0814E414E006E616E00494E460049
:101A9000696E66002DE9F047814616468AB03548E2
:101AA00078440DC88DE80D0032487844801C03ACA2
:101AB0000DC884E80D0041F69B300844372190FBA7
:101AC000F1F290FBF1F5A5F1800501FB12041B3C3E
:101AD00002D56442012000E00020DFF898A0804693
:101AE0000027FA44AAF1BE0A0EE0E0070AD0324607
:101AF000684607EB470101230AEB81010DF0CBFF9C
:101B00008DE8070064107F1C002CEED1194F7F4434
:101B1000AE3F19E0E80715D007EB04100DF1180AE5
:101B200090E80E008AE80E00C068F04201D19819D2
:101B300008903246012306A903A80DF0ACFF03ABC1
:101B400083E807006D10641C002DE3D14FF0010302
:101B500032466946B8F1000F03A802D00DF086FFA7
:101B600001E00DF098FFC9E90001C9F808200AB0AA
:101B7000BDE8F0878003010010B50446AFF3008094
:101B80002046BDE81040FEF7DFBC00002DE9F0471D
:101B900082B0054602284FF000004FF0000638BF23
:101BA00001200AF013FB42F29040C0F2050050F809
:101BB0002540204600F03AF98146204600F03CF9E5
:101BC0008246204600F042F90746204600F03AF9E6
:101BD00080462046032100F06BF92046012100F0E9
:101BE0005DF92046002100F0B3F920460C2100F0F9
:101BF00097F92046C4F8B460C4F8B860C4F8BC6073
:101C0000C4F8C060C4F8C460C4F8C860C4F8CC604C
:101C1000019600F007F930A151F82520054601A9E9
:101C2000104600F0D1FDB0FA80F040090AF0CEFA7B
:101C3000019848F27F41C0F21E01884288BF012608
:101C400030460AF0C3FA019847F6410220FA05F13E
:101C5000C0F27D1291421FD34FF28201C0F2FA21ED
:101C6000884201D2012613E04EF20411C0F2F55170
:101C7000884201D202260BE04CF20821C0F6EB317B
:101C8000884201D2032603E0002000260AF09EFAD3
:101C90002046314600F0E8F8204600F0DDF800BFAD
:101CA000204600F0B9F80028FAD12046294600F075
:101CB000DBF82046494600F0F1F82046514600F096
:101CC000F7F82046394600F043F92046414600F037
:101CD00027F902B0BDE8F0874C0000004D0000007D
:101CE000F0B581B0054602284FF000000C464FF0D9
:101CF000000738BF01200AF069FA2046002C18BFFF
:101D000001200AF063FAE068B0FA80F040090AF0B6
:101D10005DFA42F29040C0F2050050F825602DA017
:101D200050F825006946009700F04EFDB0FA80F0AB
:101D300040090AF04BFA00982168C8400090A0F5CD
:101D4000F41046F60141A0F59060C0F2DC21884213
:101D500038BF012738460AF039FA2168304600F0CA
:101D600083F82179304600F0DBF8A168304600F0B6
:101D7000D1F8E168304600F0A3F82169304600F060
:101D8000E7F86169284600F0A1F8A169284600F04B
:101D9000E7F8217F304600F077F8216A304600F0FE
:101DA00003F994F82410304600F064F894F8250004
:101DB000B5FA85F1B0FA80F04009490908430AF004
:101DC00005FA0DB101B0F0BD94F8250000F0B2F8AD
:101DD00001B0F0BD4C0000004D000000B0B505465C
:101DE00000200C46022D38BF01200AF0EFF92046F2
:101DF000002C18BF01200AF0E9F942F29040C0F22D
:101E0000050050F825502178284600F047F8616811
:101E1000284600F04DF8B0BDD0F89400C0B2C0091B
:101E200070470000006CC0F341107047D0F8940078
:101E3000C0F3800070470000D0F8940000F0030069
:101E400070470000406CC0B270470000D0F89000AE
:101E5000C0F3801070470000D0F8941041F080016A
:101E6000C0F8941070470000026C61F346120264DF
:101E700070470000D0F8942022F0080261F3C302FA
:101E8000C0F8942070470000D0F8902022F004029F
:101E900061F38202C0F8902070470000D0F89420CF
:101EA00022F0040261F38202C0F89420704700001F
:101EB000D0F8942061F30102C0F89420704700002C
:101EC000026C61F30102026470470000B0B582B099
:101ED000302248F2180400924FF44052C4F2040435
:101EE00001926B46226853F82030012822EA03054C
:101EF00005D048B901F0030045EA001507E001F0FC
:101F0000030045EA003502E000200AF05FF9256091
:101F100002B0B0BD026C61F383020264704700003E
:101F2000426C002908BF012122F0FF0211444164E4
:101F30007047000048F20401C4F204010A68002856
:101F400022F4002318BF42F400230B607047000006
:101F5000D0F8902061F38612C0F8902070470000FE
:101F6000B0B582B0012248F2180400924FF480729A
:101F7000C4F2040401926B46226853F82030012811
:101F800022EA030504D040B901F00100054307E04F
:101F900001F0010045EA002502E000200AF016F9F0
:101FA000256002B0B0BD0000D0F8902061F30102BE
:101FB000C0F890207047000080B5002004F042F97E
:101FC00080BD000080B5002004F07CFA80BD0000D8
:101FD00080B5002004F076FA80BD000080B50020B6
:101FE00003F0F0FA80BD000080B5002005F032F962
:101FF00080BD000080B5012004F024F980BD000000
:1020000080B5012004F05EFA80BD000080B501209B
:1020100004F058FA80BD000080B5012003F0D2FA28
:1020200080BD000080B5022004F00CF980BD0000E6
:1020300080B5022004F046FA80BD000080B5022081
:1020400004F040FA80BD000080B5022003F0BAFA27
:1020500080BD000086B005904BF2FD51C0F2040136
:1020600001200022019203F04BFE4BF61571C0F2E5
:1020700004010220019A03F043FE4CF61961C0F2FC
:1020800004010198019A03F03BFEFFE709F03AFBD7
:1020900009F02EFB09F02EFFF8E7000080B582B0B2
:1020A0000020019010210C220090084611460BF0F0
:1020B000E1FF45F2A871C1F6FF71086008680028C9
:1020C00018BF01200AF08AF942F25500C0F204005C
:1020D00042F23402C0F2050201A90CF015F845F2F3
:1020E000F071C2F2000108600868002818BF0120E2
:1020F0000AF074F94CF22160C0F204000099009AD1
:10210000009B0CF025F845F24841C1F6FF710860CC
:102110000868002818BF01200AF060F902B080BDED
:1021200080B5112802D800F0D5FC80BD2B2802D83C
:1021300000F078FD80BD5A288CBF042000F0DAFB47
:1021400080BD0000B0B5C4B0044600F093FA013879
:10215000B0FA80F040090AF045F81CB96C462046F8
:1021600000F098FA204600F041FF054658B904F106
:10217000A00000F079FF04F5827000F0FBFE04F58A
:10218000867000F01FFF284644B0B0BD2DE9F04135
:1021900084B00D46044649B901208DF8040000F0D2
:1021A000E9FA02904FF0011001AD039042F2346061
:1021B000C0F20500005DC1070AD110F0180F0ED063
:1021C0006868043804280DD221A151F820800EE05F
:1021D0002978204600F0A8FE04B0BDE8F0814FF059
:1021E000000804E000204FF0000809F0FBFF552C28
:1021F0004FF0000701D0422C09D168890138082826
:1022000038BF0127384609F0EDFF6889471E552C75
:102210004FF0000601D0422C09D12889013802284C
:1022200038BF0126304609F0DDFF2889461E2046CA
:1022300008F080F928780028CED0204601214246B7
:102240003B46009608F088F904B0BDE8F08100BF75
:102250000200000003000000010000000600000072
:102260002D283EBF042108467047A0F13902212ADB
:1022700015D80421DFE802F01113131313131113FF
:102280001113131313131313131311131313131322
:10229000131313131313131313110846704780B548
:1022A00008F008F94FF48071002818BF0021BDE83C
:1022B000804008467047000070B586B00D4606465F
:1022C00039B90120ADF81200CDE90200002001ADBE
:1022D000019008F0F3FA10B1022434B11BE008F0C9
:1022E00065FA08F05BFA0024ACB9A6B1D5E90101A2
:1022F00008F06EFB287808F075FBA87BE97B08F0F6
:1023000079FB652500F052FA013D01D00028F9D093
:10231000002D08BF0324204606B070BD70B584B000
:102320000446007B214600F087F8054670B994F812
:10233000430004F1240100F0B5F8054630B994F8E3
:10234000560004F1440100F009F9054600F092F945
:10235000032808D002280BD001280ED104F168060A
:10236000002D66D10FE004F18806002D61D10AE04E
:1023700004F17806002D5CD105E00020002609F06C
:1023800031FF002D55D1F06803283FD194F8560055
:10239000012548B106200390022002906846CDE94D
:1023A000005500F07BFF0546012D0CD194F8430049
:1023B00048B10120002103900291CDE90000684658
:1023C00000F06CFF0546012D0CD1207B50B102209E
:1023D00003900020CDE9010001200090684600F044
:1023E0005DFF05462DBB94F8200004F11001FFF7B6
:1023F00063FF0546E8B9F26896E80B0003928DE8A2
:102400000B00684600F04AFF054612E00390B168F1
:10241000D6E900020291CDE90002684600F03EFFD5
:10242000054630B994F8200004F11001FFF744FF8D
:102430000546284604B070BD70B584B00D4606460A
:1024400049B900208DF80D0001206D46ADF80E0051
:102450000290CDE9000008F059FA10B1022434B11D
:102460001DE008F0B5F908F0ABF90024BCB9B6B12D
:10247000D5E9010108F0EEFA287808F0F5FA687B52
:10248000A97BEA7B08F0F8FA652500BF00F046FC5E
:10249000013D01D00028F9D0002D08BF03242046BB
:1024A00004B070BDF0B589B00D46064681B9002074
:1024B000012102908DF82200CDE90611CDE903102B
:1024C0000220059041F20020C0F27A0001AD019097
:1024D00008F03CFA45F24447C1F6FF7710B10224F8
:1024E0003CB138E008F086F908F07CF900243C6043
:1024F0008CBB86B3D5E9050108F0CCFAD5E90221F9
:10250000286908F0D1FA6868022805D0012809D0A6
:1025100070B9AA7F002007E0AA7F0120012108F0FE
:10252000D3FA08E0AA7F0120002108F0CDFA02E0EA
:10253000002009F057FE286841F67705CFF6CF75E1
:10254000386000BF00F06CFC013501D00028F9D0E4
:10255000002D08BF0324204609B0F0BD70B586B039
:102560000D46064669B90020012101908DF815003D
:10257000CDE903114FF4E06101ADADF808108DF81D
:102580000A0008F013FA10B102243CB14DE008F043
:1025900043F908F039F90024002C46D1002E44D02C
:1025A00000F03EFC0646002818BF012009F01AFE84
:1025B000287943F201620130B6FBF0F0C0F26E12EE
:1025C000A0F5F400A0F590510020914238BF012001
:1025D00009F008FED5E9020108F086FA2879697940
:1025E00008F08CFA2868022805D0012809D070B9B3
:1025F0006A7C002007E06A7C0120012108F096FA3D
:1026000008E06A7C0120002108F090FA02E0002036
:1026100009F0E8FD40F2E93500F00EFC013D01D083
:102620000028F9D0002D08BF0324204606B070BD55
:1026300080B584B008F01AF9032802D1002004B054
:1026400080BD00F0B3F818B1002038B104B080BDEF
:1026500001200021FFF730FE0028F7D100210320E0
:10266000029101210390CDE90001684600F016FEB9
:1026700004B080BD80B508F01BFC802806D004287B
:1026800006D0012814BF0420012080BD032080BD96
:10269000022080BD70B504464FF00111012004F105
:1026A000080284F82000E0830025C4E9000023C26A
:1026B00041F20021C0F27A014FF48072C4E90500B2
:1026C00084F85C00A565A4F842200222C4E909153B
:1026D0004FF44061C4E90B05C4E90D20A4F848108B
:1026E0000321E06384F85600656484F8555084F84B
:1026F0004A50C4E9130084F86400216684F89C0001
:10270000C4E91A00C4E91C51C4E91E15C4E9200239
:102710000622C4E9221044F20041C4E92452C1F661
:10272000FF712922C4E9412140F201164FF0013125
:10273000A4F8A000C4E9295584F8AC00A4F8B86056
:10274000C4E92C5584F8000184F8BC0004F1C000F1
:10275000C4F8EC102C21A4F8F060FEF799FAA4F864
:10276000F460C4F8F850A4F8FC50A4F80C6184F8A4
:102770000E5170BD80B500F0D1FA00281CBF0420B6
:1027800080BD00F013F800281CBF052080BD00F0BC
:1027900053FB00281CBF072080BD00F041FB014611
:1027A0000620002908BF5C2080BD000080B508F02D
:1027B0007DF8002804BF002080BD08F067F846F6C9
:1027C0000040C0F2DC2080BD80B5FFF7A9FC80BDD1
:1027D000A0F14302072A88BF704780B52E3800F069
:1027E00021FABDE88040704710B508F077FA032859
:1027F0001DD84FF4FA34DFE800F01E17020B08F082
:1028000065FA0446002818BF4FF4FA44204610BD6C
:1028100008F05CFA40B108F051FA0446002818BFED
:102820004FF47A74204610BD0024204610BD0020CD
:10283000002409F0D7FC204610BD0000B0B5A0F17F
:102840001D020E2A0C462ED8DFE802F0080C1017E5
:1028500039252D2D2D2D2D3135474B00002500F02C
:1028600093F941E0002500F039FA3DE007F0B0FEB1
:1028700080B30025FFF7B8FF36E007F0A9FE48B3A4
:1028800008F024FA30B308F019FA002818BF4FF402
:102890007A70002528E007F09BFE002818BF4FF44F
:1028A000FA30002520E008F063F9054613E0002522
:1028B00000F0ECF818E0002500F0C6F814E007F08E
:1028C00087FE38B108F002FA002818BF4FF4FA402A
:1028D000002509E00025002006E0002500F0CCF8E6
:1028E00002E0002500F0BEF8002C18BF206028464A
:1028F000B0BD00002DE9F0410C460546FFF7B0FCE5
:10290000074608B1002646E042F23460C0F20500F6
:1029100010F805805FEA886015D45FEA486014D437
:102920005FEA08601AD40020002609F05BFCFFB9BA
:1029300018F0180F0BD05FEA08701BD400265FEA6E
:10294000C8601FD423E0012009E0002007E0002731
:10295000592D20D100F078F806461CE0022000F046
:1029600081FA0646B0FA80F040090702002FDFD056
:10297000002610E02846002100F014F806465FEA21
:10298000C86004D52846012100F00CF80646B6FAC6
:1029900086F0400907023846002C18BF2660BDE8C3
:1029A000F0810000F0B581B0074600200090384665
:1029B0000E4607F0AFFD0446384607F09BFD844203
:1029C00027D80546384607F075FD10B3384607F09E
:1029D00081FD013805280AD8DFE800F00305070962
:1029E000090F06200AE0042008E0052006E06946F9
:1029F0003846FFF7EDFE002504E00720314600F0E1
:102A0000B5F900900098691CB0FBF1F0611C4843D7
:102A100000905DF8040BF0BD10B508F0D7F8002861
:102A200004BF002010BD07F031FE0721002818BFA9
:102A300005210846002100F099F9044607F020FE20
:102A40000130B4FBF0F010BD80B5592007F032FD25
:102A5000002804BF002080BD07F00AFE00F002FA43
:102A600080BD000080B507F0FBFD00280CBF0020F2
:102A7000FFF7D2FF80BD000010B5FFF7CDFF044681
:102A800007F0EEFD24FA00F010BD000080B5FFF75E
:102A9000C3FF400880BD000010B5002407F0C6FE4B
:102AA000062815D8DFE800F004080B0E14141100F6
:102AB000022000F0D7F910BD00F0B2F910BD00F00F
:102AC0002DF910BDFFF772FE10BD00F0B5F90446F8
:102AD000204610BDB0B511280C460FD8DFE800F035
:102AE000091115191D2125292D3337393B3D3F414A
:102AF00043490020002500F0B5F93FE000200425FF
:102B00003CE0012000F0AEF937E0022000F0AAF925
:102B100033E0002500F038F830E0002500F0FEF842
:102B20002CE00025FFF742FE28E0002500F078F9B0
:102B300024E0002500F080F920E040F62450C2F2A5
:102B40000000006819E00025FFF7A6FF16E004204A
:102B50000AE004200EE0052006E005200AE0062039
:102B600002E0062006E007200021002500F0FEF824
:102B700004E00720012100F0F9F80025002C18BF1F
:102B800020602846B0BD000010B508F037F80028D6
:102B900004BF002010BD08F029F80F280FD84FF40B
:102BA000FA34DFE800F0080C0E0C101216181A2088
:102BB0003825292D3135FFF76FFF04462BE000241F
:102BC00029E006200AE0042008E0FFF75FFF044642
:102BD00021E0052002E0002006E00720012100F0AE
:102BE000C5F8044617E0012000F03CF9044612E065
:102BF000FFF72AFF04460EE0FFF7F6FD04460AE061
:102C0000FFF73AFF044606E000F068F8044602E0E9
:102C1000FFF728FF044607F0E1FF0130B4FBF0F0B6
:102C200010BD000070B582B0054615380C46002175
:102C30000728019147D8DFE800F004112D32373C16
:102C40004C4107F0FBFF02280CD840F62851C2F295
:102C5000000151F820000026019004E007F0F6FF83
:102C60000228F2D90026A5F12300042804D81EB9B1
:102C7000012000F0F7F8019001993046002908BFC3
:102C80004FF48070042E08BF3046002C18BF21601E
:102C900002B070BD07F0E2FF0228E3D8D5E707F0E5
:102CA000E5FF0228DED8D0E707F0E8FF0228D9D8F0
:102CB000CBE707F0EBFF0228D4D8C6E707F0F6FF12
:102CC0000228CFD8C1E701A92846FFF7B7FD06467D
:102CD000C9E707F0E3FF0228C4D8B6E780B508F0DB
:102CE00015F8032805D8DFE800F002060D130620CA
:102CF0000FE0002080BD07F0E9FF002818BF4FF467
:102D0000FA4080BD40F62450C2F20000006880BD49
:102D10000520002100F02AF880BD000080B507F0F2
:102D2000EDFD002804BF002080BD07F0D7FD00287E
:102D30001CBF41F20020C0F27A0080BD80B5411E68
:102D400005294FF0000088BF80BDDFE801F00306D1
:102D5000090E0E0C00F064F880BDFFF7DFFF80BDA8
:102D6000FFF724FD80BD00F067F880BD10B5012994
:102D70000DD0C9B90438032821D8DFE800F00226B5
:102D80002C32FFF7CBFF044607F0A0FD11E004381A
:102D900003282CD8DFE800F00231373DFFF7BEFFF3
:102DA000044607F0A3FD04E00020002409F01AFA0D
:102DB0000020411E002818BF24FA01F010BD002099
:102DC000002409F00FFA0020F3E7FFF7EFFC0446B8
:102DD00007F054FDEDE700F023F8044607F09EFDF0
:102DE000E7E700F029F8044607F0B8FDE1E7002026
:102DF000002409F0F7F90020DBE7FFF7D7FC0446D1
:102E000007F04CFDD5E700F00BF8044607F08EFD07
:102E1000CFE700F011F8044607F0B8FDC9E700005D
:102E200080B507F08BFD45F24441C1F6FF7109689A
:102E3000002818BF084680BD10B507F0AFFD70B17F
:102E4000FFF7EEFF58B1044607F098FD0130B4FBE0
:102E5000F0F407F08BFD10306043400810BD0020F7
:102E600010BD0000B0B50446012009F0BBF90025F3
:102E700007F0FCFC0138052810D8DFE800F0030655
:102E8000090F0F0CFFF7CCFF07E0FFF747FF04E047
:102E9000FFF78CFC01E0FFF7CFFF054607F0D6FCFB
:102EA0000130B5FBF0F574B1022C04D0012C09D12E
:102EB00007F0C4FC01E007F0D1FC0130B5FBF0F5F0
:102EC0002846B0BD00252846B0BD0000F0B581B051
:102ED0001C4615460E460746002818BF012009F07B
:102EE00081F92846002D18BF012009F07BF940F632
:102EF0003850C2F20000076045F22040C1F6FF7072
:102F0000067045F22440C1F6FF70056045F2284086
:102F100040F64051C1F6FF70C2F20001047000207B
:102F20000C7001B0F0BD000080B52338042808D82B
:102F3000DFE800F0030B0F131700084607F016FF39
:102F400080BD002009F04EF980BD084607F01AFF49
:102F500080BD084607F0FEFE80BD084607F06EFF04
:102F600080BD084607F076FF80BD000080B5FFF702
:102F7000E9F880BDF0B581B00746002818BF0120F0
:102F800009F030F9DFB17868C8B13868B8B1002508
:102F90006FF00F0678683044006907F0CBFA786864
:102FA00083191869197D5A7DD3E90643009407F007
:102FB000D3FA38680135854206F11006EAD301B02C
:102FC000F0BD000010B50446002818BF012009F02C
:102FD00009F92078002808BF10BD607807F004FBCD
:102FE00094F9020007F00CFB10BD000010B5044678
:102FF000002818BF012009F0F5F894B3FFF718FB7B
:1030000008B128B110BD2046FFF788F90028F9D192
:1030100040F62450C2F2000094F85C1000220260D6
:1030200000291CBFA16D016094F8640010B1206EEE
:1030300007F0C4FC94F89C0098B104F168010120E9
:1030400000F078F820B904F17801022000F072F85D
:10305000002818BF10BD04F18801032000F06AF8B1
:1030600010BD002010BD000070B50446002818BF38
:10307000012009F0B7F8207820B16078D4E9011276
:1030800007F04CFE207B28B1607E217ED4E904321B
:1030900007F0BCFE94F84C00B8B194F84D0007F06E
:1030A000D9FE94F84E0007F0C9FE94F84F0007F0DF
:1030B00051FE94F8500007F065FE94F8510007F0B7
:1030C00055FE94F8600007F0CFFE207FC0B140F6B7
:1030D00028511C20C2F20001221852680B1804303B
:1030E000282843F81C2CF7D104F12C05002600BF3A
:1030F00055F82610F0B207F051FE0136082EF7D130
:1031000094F85400A8B107F059FDA06D07F0C6FE71
:1031100000200021002207F0B3FE94F8550000289B
:1031200008BF70BD94F85C1094F85D20012007F092
:10313000A7FE70BD2DE9F04381B00C460546086836
:10314000896862684E1C0130511C00FB06F8284655
:1031500001FB06F9002D18BF012009F043F8E068D3
:10316000FFF7ECFD032D4FEA101712D0022D2BD0E4
:10317000012D3FD1E06842F2AC0200EB4001C0F209
:10318000050252F821301B0973439F424BD9012499
:103190007FE0E068C11E0638B1FA81F1B0FA80F034
:1031A00049094009084309F01DF8E06842F2580255
:1031B00000EB4001C0F2050252F821301B097343B5
:1031C0009F421CD9012464E0E0680238B0FA80F024
:1031D000400909F007F8E06842F2001200EB4001F4
:1031E000C0F2050252F821301B0973439F4210D9E7
:1031F00001244EE00020002408F0F4FF49E002EB37
:1032000081014A68120902FB09F2974215D901248B
:103210003FE002EB81014A68120902FB09F2974282
:1032200013D9012435E002EB81014A68120902FB3F
:1032300009F2974211D901242BE08968090901FBA1
:1032400008F18F4211D9012423E08968090901FBA3
:1032500008F18F4210D901241BE08968090901FB9C
:1032600008F18F420FD9012413E0D4E90032A1689C
:1032700007F0CCFB00240CE0D4E90032A16807F091
:1032800065FC002405E0D4E90032A16807F0D0FB1A
:103290000024204601B0BDE8F083000070B504466C
:1032A000002818BF012008F09DFFE068FF3818BF14
:1032B000012008F097FFFFF7DDF90546043818BF35
:1032C000012008F08FFF28462146FFF733FF002832
:1032D00018BF70BD0A2600BF751E07F0C7FA012E81
:1032E00003D0E1682E468842F6D10020002D08BFA9
:1032F000032070BD2DE9F04F83B0814645F2204098
:10330000C1F6FF7000788B4648454FF000004FF043
:10331000000588BF012008F065FF8DF80090CDF80A
:1033200004B004F0FFF945F22847C1F6FF7738787A
:1033300040F64058C2F20008012188F800000291CE
:1033400028B345F224440026C1F6FF74EA4600255E
:1033500006E000BF38780136864205F1010516D235
:10336000206850F826000028F4D041680229F1D0E6
:1033700002688168504690470028EBD0BBF1000FEF
:1033800088F80060E6D140F2031A354601E04FF0BC
:10339000000ABBF1010F18BFBAF1000F39D140F696
:1033A0003850C2F20000006850F82900FFF7DEFD37
:1033B0008246B0FA80F040F63C514009C2F200016A
:1033C00081F8009040B3387802210028029140D063
:1033D00045F224450026C1F6FF75E946002003E0CA
:1033E000397801368E4234D2296851F8261031B12D
:1033F0004A68012A03D00A6889684846904700282D
:10340000EED0BBF1000F88F80060E9D14FF4827A6A
:103410001FE000200028D6D13878D0B100210291D9
:10342000E9B2814208BF013D45F22446EDB2C1F642
:10343000FF766C4603E000BF013D681C09D0306890
:1034400050F825000028F7D0026881682046904790
:10345000F2E704F08BF9504603B0BDE8F08F0000AE
:10346000B0B540F64454C2F200042068002818BFEA
:10347000012008F0CFFE20680078002808BFB0BD0A
:103480000020002500F092FB00F09AFB21684868BC
:1034900040F00202032A09D0D1E90423934205D067
:1034A000CA69002100F01AFC00F08AFB2068057050
:1034B000B0BD0000B0B500F01DFB40F64455C2F2AF
:1034C00000052968086210B100200870B0BDD1E97C
:1034D00003238C6A886902EB0301C2B21CB110207D
:1034E00000F0B8FA05E0202000F0B4FA28680121C5
:1034F00081622868017ED0E9042311449942016168
:1035000026BF0021017000F0D1F9B0BD10B500F068
:10351000F1FA40F64454C2F200042168086210B186
:103520000020087010BDD1E903030A7EC1181020E5
:1035300000F090FA2068017ED0E9042311449942FA
:10354000016126BF0021017000F0EAF910BD000002
:1035500080B500F0CFFA40F64451C2F200010A688B
:10356000106210B10020107080BD906A002804BF66
:1035700001209062107ED2E9041308449842106141
:1035800002D200F0EFF980BD0020D1681070202039
:10359000102200F05FFA80BD10B500F0ABFA40F6E3
:1035A0004454C2F200042168086210B1002008707F
:1035B00010BD886A002804BF01208862087E0A695D
:1035C000104491F83420086182F00100087012B9AB
:1035D00000F0EAF910BD142000F084FA2268B0F57A
:1035E000803F106B4FF0000138BF0121017010BD0A
:1035F0002DE9F04381B0089F814638461C4690462D
:103600000E46002F18BF012008F004FE3046002EA1
:1036100018BF012008F0FEFD2046002C18BF012035
:1036200008F0F8FD40F64455C2F20005286800286D
:1036300018BF012008F0EEFD2868007818B10220BC
:1036400001B0BDE8F0834846042132463B46CDF840
:10365000008000F009F9286844620AF007FD04467A
:1036600000F024F928680078A0B10998044400BF4C
:1036700000F0A6FA0AF0FAFCA04206D8FFF71AFFFB
:10368000286800780028F3D104E0FFF7E9FE2868F5
:10369000032101622868006A01B0BDE8F0830000E0
:1036A0002DE9F04381B08146089F08461C469046AC
:1036B0000E46002918BF012008F0ACFD3846002F47
:1036C00018BF012008F0A6FD2046002C18BF0120DD
:1036D00008F0A0FD40F64455C2F200052868002815
:1036E00018BF012008F096FD2868007818B1022064
:1036F00001B0BDE8F0834846022132463B46CDF892
:10370000008000F0B1F8286844620AF0AFFC04467B
:1037100000F0CCF828680078A0B10998044400BFF4
:1037200000F04EFA0AF0A2FCA04206D8FFF7C2FE53
:10373000286800780028F3D104E0FFF791FE28689C
:10374000032101622868006A01B0BDE8F08300002F
:103750002DE9F04182B0804608461D4614460E46CB
:10376000002918BF012008F055FD2846002D18BF7C
:10377000012008F04FFD40F64457C2F200073868B8
:10378000002818BF012008F045FD3868007818B1FE
:10379000022002B0BDE8F0812046082100F080F848
:1037A0004FEAD00C4046052132462B46CDF800C0EA
:1037B00000F05AF83868C4620AF058FC044600F079
:1037C000D1F83868007898B10898044400F0F8F906
:1037D0000AF04CFCA04206D8FFF7BAFE3868007821
:1037E0000028F3D104E0FFF73BFE386803210162B3
:1037F0003868006A02B0BDE8F081000010B50446E8
:10380000002818BF012008F005FD40F64450C2F220
:103810000000046000202070122003F08DFF0020C3
:103820000AF092FC10BD0000B0B540F64454C2F25C
:1038300000042068002818BF012008F0EBFC206875
:10384000017800291CBF0220B0BD012101700A20AF
:1038500000210022002500F041FA00F0B1F900F04B
:1038600049F921680D70B0BD10B540F6445EC2F252
:10387000000EDEF800E0DDF808C001248EF80040FC
:103880000024CEF80410CEF80820CEF80C30CEF884
:103890001040CEF814C0CEE90704CEF8284010BD81
:1038A00008440138494208407047000070B540F6AE
:1038B0004456C2F2000630680723D0E90412856A34
:1038C000541A2209072A38BF23093DB180681D0117
:1038D0000144EAB2102000F0A7F910E0062A28BF40
:1038E0000622416A15011020102200F09DF930686F
:1038F000EAB2816800690144202000F095F930683F
:103900004069C0F30F110E2000F0D4F93368EEB215
:103910005868DA69996A9E6100F0E0F970BD0000AC
:1039200070B540F64455C2F2000528680726D0E974
:1039300004128068521A1309072B38BF1609320186
:10394000D4B201441020224600F06EF9B1B20E202C
:1039500000F0B0F92B685868DA69996A9C6100F048
:10396000BDF970BDB0B540F64454C2F20004206801
:10397000D0E904128068551A702D28BF70250144C3
:10398000EAB2102000F050F92068012200F12C0169
:103990000C2000F0AFF923685868DA69996A9D61D4
:1039A00000F09CF9B0BD0000F0B581B040F644567F
:1039B000C2F2000635681021D5E90470C41B702CD2
:1039C00028BF70242046FFF76BFFA96805463944DD
:1039D000E2B2102000F028F93068012200F12C0139
:1039E0000C20012700F086F93068818F082000F054
:1039F00061F905F0E0005F280AD830681022816B79
:103A000005F11000C0B200F00FF9306880F8347092
:103A100033685868DA69996A9C6100F05FF901B00F
:103A2000F0BD000040F0A05141F4805121F00301AD
:103A3000096800F00300DFE800F002090507090E3D
:103A4000C8B27047C1F30721C8B27047C1F307413C
:103A5000C8B270472DE9F04381B0814608469046D0
:103A60000C46002918BF012008F0C8FBB8F1040F6C
:103A70001ED341F2000C00220323C1F2004C0020AF
:103A800002EB090727F0030757F80C7042F0010614
:103A9000390EA154390CA155390A42F00202043002
:103AA000A154C2B2E75442F003034345E8D300E017
:103AB0000020C1B2414511D24FF0FF3151FA80F7D9
:103AC000C8F100067D1C05EB0900C0B2FFF7AAFF94
:103AD000E1194870701901302F46F3D101B0BDE8EB
:103AE000F083000041F2000100F0FC00C1F200414F
:103AF0004058704780B50420FFF7F4FF000C7F2882
:103B000000F32A80411E3F2900F239800020DFE8BF
:103B100001F0372036383636363B363636363636CE
:103B2000363E36363636363636363636363636362D
:103B3000364136363636363636363636363636361A
:103B40003636363636363636363636363636363615
:103B5000364440F2024080BDB0F5007F08DA80288C
:103B60001ED0B0F5807F04BF40F2094080BD06E062
:103B700019D0B0F5806F04BF40F20C4080BD012029
:103B800080BD40F2034080BD40F2044080BD40F261
:103B9000054080BD40F2064080BD40F2074080BD38
:103BA0004FF4816080BD40F20A4080BD0121C4F223
:103BB00002010A7802F07F0260F3C7120A707047B0
:103BC0000020C4F2020000BF90F90010B1F1FF3FE5
:103BD000FADC704780B541F2000C4FEA900EC1F25A
:103BE000004C5CF82E3000F00300DFE800F0021615
:103BF000091023F07F4040EA01604CF82E0080BDA0
:103C000023F47F4040EA01204CF82E0080BD23F0D1
:103C1000FF0008444CF82E0080BD23F47F0040EAEA
:103C200001404CF82E0080BDF0B581B00546084635
:103C300017460C46002918BF012008F0DFFA042FB0
:103C400020D341F2000C00220323C1F2004C0020DB
:103C500042F00101615CA65C090441EA066142F0A0
:103C60000206A65DE35C2A44043041EA062122F004
:103C70000306C2B2194442F00303BB4246F80C10DB
:103C8000E6D300E00020C1B2B94210D24FF0FF31BC
:103C900051FA80F07E4200BF471C20447A194178D7
:103CA000D0B2FFF797FFF01901303846F4D101B0D8
:103CB000F0BD000041F2000C8208C1F2004C800708
:103CC0005CF8223051BFC3EA01404FF6FF7023EA8F
:103CD000000008444CF8220070470000000661F321
:103CE0000F20D1B2084441F20001C1F20041086046
:103CF0007047000070B50646084614460D46002978
:103D000018BF012008F07AFA002C08BF70BD40F6F9
:103D1000FC7106F0FC00C1F200410844291F00BFFD
:103D200051F8042F013C40F8042FF9D170BD000078
:103D300080B5002000F0CAFF80BD000080B50A20D9
:103D400000F0C4FF80BD000080B50B2000F0BEFF76
:103D500080BD000080B50C2000F0B8FF80BD0000E1
:103D600080B50D2000F0B2FF80BD000080B50E20B0
:103D700000F0ACFF80BD000080B50F2000F0A6FF72
:103D800080BD000080B5012000F0A0FF80BD0000D4
:103D900080B5022000F09AFF80BD000080B50320AE
:103DA00000F094FF80BD000080B5042000F08EFF7D
:103DB00080BD000080B5052000F088FF80BD0000B8
:103DC00080B5062000F082FF80BD000080B507208E
:103DD00000F07CFF80BD000080B5082000F076FF79
:103DE00080BD000080B5092000F070FF80BD00009C
:103DF0004FF0FF31002200BF431801310F295A70E4
:103E0000FAD17047B0B5054600200C46102D38BFDA
:103E1000012008F00BFA41F20000C4F20200295C14
:103E200001F07F0164F3C7112954B0BDB0B5054658
:103E300000200C46102D38BF012008F0F7F941F2A0
:103E40000000C4F20200295C04F03F0201F0C0014E
:103E500011442954B0BD0000B0B5054600200C4601
:103E6000102D38BF012008F0E1F941F20000C4F242
:103E70000200295C01F0BF0164F386112954B0BD32
:103E8000B0B50020002500F015FF01F0E7F804466A
:103E900006E000BFE8B2640801350F2828BFB0BDB6
:103EA000E007F7D0E8B200F0DFFEF3E70000000023
:103EB0002DE9F04F81B02DED028B84B00446002037
:103EC00004F8010B91ED008B9FED770B5BEC189BD9
:103ED00055EC10AB90464846594652462B460DF0DD
:103EE000D1FD002851D1B0EE480A02A8F0EE680AD0
:103EF0000BF07EFFB0EE408AB8F1000FF0EE608A62
:103F0000CDE900850FD09FED6A0B55EC107B00BF0B
:103F100051EC180B3A462B460DF0BEFA41EC180B4B
:103F2000B8F10108F4D1019B4846594652460DF0BC
:103F3000CCFD70B39FED640B51EC180B53EC102BC0
:103F40000CF038FFDDF80080054641EC180B4046C8
:103F50000E460DF016FA41EC110B9FED550B0BF0D0
:103F6000AFFF53EC102B9FED5A0B51EC100B0DF0E3
:103F70009FFC02460B46284631460DF091FDA0BB42
:103F80009DED020B9FED541B25E030202070012594
:103F900082E09FED490B51EC180B53EC102B0CF009
:103FA00009FFDDF80080054641EC180B40460E463F
:103FB0000DF0E7F941EC110B9FED3D0B0BF080FF8D
:103FC00053EC102B284631460DF07FFD68B99DED6E
:103FD000020B9FED3B1B51EC100B53EC112B0CF023
:103FE000E9FE41EC100B8DED020BB8F1000F2ED065
:103FF0009FED2F0B4FF00A0A5BEC109B474600BF6A
:1040000055EC186B304629464A465B460CF08EFF4D
:1040100041EC180B0DF06EFDA0FB0A0201EB8101D3
:1040200002EB41010DF05CF902460B463046294691
:104030000DF03EFC0DF00EF9002848BF4042303034
:10404000013F04F8010BDBD108F1010500E0012577
:104050002E202070DDE902010DF0FCF8C8B146F217
:104060006762611EC6F2666250FB02F39F1007EBA7
:10407000D37303EB8307A0EB4707002F48BF7F42B2
:10408000303709308F700135013112281846EBD8CE
:1040900002E0302060700135284604B0BDEC028B90
:1040A00001B0BDE8F08F00BF00000000000000007C
:1040B0000000000000002440000000000000E03F7D
:1040C000000000000000F03F000000000000E0BF22
:1040D0000000000000000080000000000000F0BFB1
:1040E0002DE9F04F81B00546002005F8010BD1E91C
:1040F0000067984622B356EA07005FD04FF0FF34BE
:104100004FEAE8793046394642464B4605EB040A09
:10411000FCF71EFBA0FB082300FB0933B21A01FBCE
:10412000083304F1010477EB030348BF52423032F5
:104130008AF8012050EA010206460F46E2D139E032
:1041400056EA07003AD00A984FF057094FF0FF346B
:104150004FEAE87A002818BF4FF037093046394651
:104160004246534605EB040BFCF77AFAA0FB082302
:1041700000FB0A33B21A01FB083304F1010467EBB8
:10418000030CB2F10A037CF100034FF0000338BFC7
:104190000123AC4609EB0205002B18BF02F13005E4
:1041A000B6EB08028BF80150654677EBE8720646DD
:1041B0000F46D3D2601C01B0BDE8F08F30202870CC
:1041C000012001B0BDE8F08F10B586B045F2D8737C
:1041D000C2F200031C780CB101242AE0022A4FF03D
:1041E00000041A7025D101220492CDE9001445F291
:1041F000DC71C2F20001086040F6D051C2F2000149
:104200006A46CDE90244ADF8144005F0A3F845F242
:10421000E07049F26161C2F20000C0F20401016085
:1042200045F2987049F2D141C1F6FF70C0F2040125
:104230000160204606B010BD83B0B0B581B0044621
:1042400005A80EC009F0EAFE45F2D871C2F20001DD
:10425000097851B1054605A92046009100F010F8F3
:104260000446284609F0DEFE01E04FF0FF34204608
:1042700001B0BDE8B04003B070470000000000008E
:104280002DE9F04F81B02DED048B96B0054600204E
:104290009FED3D8B8A460C90CDE908004FF0010B55
:1042A00000264FF000080020039004E001300C903D
:1042B000DDF8148001352878252809D0002800F081
:1042C000D98200F0F1FA0C98013501300C90F2E738
:1042D0004FF00009002000BF2A4612F8011FA1F18B
:1042E0002003102B4FF001011AD8DFE803F0091961
:1042F000190C191919191919190F19121919150069
:1043000049F004090AE049F0100907E049F0020900
:1043100004E049F0010901E049F0080915460146A9
:1043200000290846D8D0284610F8012F0027002180
:10433000A2F1300307EB870402EB44020A2B36BFDD
:1043400005465946A2F13007284610F8012F0029EA
:10435000EED02E2ACDF810A01AD14FF0000A00217D
:10436000054600BF284610F8012F0AEB8A04A2F187
:1043700030030A2B02EB440236BF05465946A2F130
:10438000300A0029EED005E0000000000000000027
:104390004FF0060A284610F8011FCDF814806C294A
:1043A00009D068290ED115F8021F682940F05B80FA
:1043B00049F0200906E015F8021F6C2940F05680EC
:1043C00049F480792846054615F8018FB8F1780040
:1043D00018BF01200290A8F14600322834D8DFE847
:1043E00010F0D500330033003300330033003300C6
:1043F0003300330033003300330033003300330025
:10440000330033003300D500330033003300330072
:1044100033003300330033003300D50048003A0046
:104420003300D500330033003A003300330033004B
:1044300033003300D500D500330033005000330083
:10444000D50033003300D500404600F02DFA0C981B
:10445000DDF810A02AE75FEAC9503AD4049951F870
:10446000040BC4173DE049F04009ACE749F080096E
:10447000A9E7DDF810A01AF8040B00F015FA0C9863
:1044800014E7DDF810A05AF8044B002C3FF410AFED
:104490002046FCF717FB19F00108814605D12020C2
:1044A00049463A460CAB00F0EDF9207848B1013CA2
:1044B00000F0FAF90C9801300C90A0780134002833
:1044C000F6D1B8F1000F00F0D2812020C84649464D
:1044D000C7E10498073020F007000146446851F80E
:1044E000080B0491CDE90A040DF137000AA9012255
:1044F0000A23CDF800B0FFF7F3FDB4F1FF3F09DD6B
:104500005FEA89710AD409F0040100EB9102CC0042
:10451000059206E0411C05912D2402E0411C059105
:104520002B245FEA09710DF1370101EB000611D46C
:104530005FEAC9701ED1059920203A460CAB00F005
:10454000A1F92CB1204600F0AFF90C9801300C9085
:10455000002010E02CB1204600F0A6F90C980130A4
:104560000C90059930203A460CAB00F08BF90020F6
:10457000059700E00120002C18BF002806D0204637
:1045800000F092F90C9801300C9000BF48F0200424
:10459000662C63D1049806A9073020F00700B0EC20
:1045A000029B524604900DF137008DED069BFFF7FC
:1045B0007FFC064653EC182B51EC190B0DF077FAE3
:1045C00020B9701C05904FF02D0A0EE05FEA89704B
:1045D00007D409F0040006EB90014FEAC00A0591E8
:1045E00003E0701C05904FF02B0A5FEA09700DF193
:1045F0003700064413D45FEAC97022D10599202000
:104600003A460CAB00F03EF9BAF1000F05D0504627
:1046100000F04AF90C9801300C90002012E0BAF139
:10462000000F05D0504600F03FF90C9801300C9077
:10463000059930203A460CAB00F024F9002005978C
:1046400000E00120BAF1000F18BF002806D0504644
:1046500000F02AF90C9801300C9000BFDDF810A092
:10466000782C06D15FEAC95006D45AF8041B002002
:104670000AE00120029070E00AF1070020F0070A2A
:10468000DAF804005AF8081BB8F178060DF137047F
:1046900018BF0126CDE90810204608A900221023E2
:1046A0000096FFF71DFD5FEA097104EB0006059017
:1046B00020D45FEAC97022D1059920203A460CAB7C
:1046C00019F0100418BF0231059100F0DBF8B4B105
:1046D000302000F0E9F84046B8F1780F18BF5820B4
:1046E00000F0E2F80C98012402300C905FEAC960F7
:1046F00022D432E05FEAC96006D4002412E000242C
:104700005FEAC96018D428E0302000F0CDF84046B8
:10471000B8F1780F18BF582000F0C6F80C980124A3
:1047200002300C90059930203A460CAB00F0AAF804
:1047300005975FEAC96010D57CB9302000F0B4F865
:104740004046B8F1780F18BF582000F0ADF80C982B
:1047500002300C90059802300590B8F16F0F1BD114
:104760005AF8040B0021CDE9080108200390B8F1A4
:10477000620F14D0B8F1700F1FD15AF8040B00214A
:10478000CDE9080105990DF1370046181020039076
:10479000B8F1750F14D01EE0B8F1620FEAD15AF8E3
:1047A000040B0021CDE9080105990DF137004618E9
:1047B00002200390B8F1700FDFD0B8F1750F0AD165
:1047C0005AF8040B0021CDE9080105990DF13700D5
:1047D00046180A200390A8F1620013282ED846F24A
:1047E00001010BFA00F0C0F20801DDF81480084264
:1047F00019D003980DF13704029EC3B2204608A9D0
:1048000000220096FFF76CFC80465FEA097004EB1B
:1048100008060AD45FEAC97005D1202041463A460D
:104820000CAB00F02FF8307813E0302041463A46C8
:104830000CAB00F027F83078B8460AE0DDF81480B9
:10484000307806E000F030F80C9801300C9016F843
:10485000010D0028F6D15FEAC9703FF42BAD20208E
:1048600041463A460CAB00F00DF8013523E5C84649
:10487000013520E50C9816B0BDEC048B01B0BDE805
:10488000F08F000070B59142A8BF70BD1C46054670
:10489000561A00BF284600F007F82068013E00F1D4
:1048A00001002060F6D170BD10B582B045F2D8711C
:1048B000C2F200010978019089B145F2E070C2F2BC
:1048C0000000D0F800C045F2DC70C2F200000068C1
:1048D00001A901224FF4FA730124E04701E04FF0EF
:1048E000FF34204602B010BDB0B5054600200C468E
:1048F000102938BF012007F099FC2C77B0BD0000CB
:10490000B0B5054600200C46102938BF012007F03D
:104910008DFCAC77B0BD0000B0B5054600200C465C
:10492000102938BF012007F081FCEC77B0BD0000F2
:104930002DE9F0470646002818BF01200C4648F232
:104940000008002918BF01210840C4F2000807F040
:104950006DFC45F29C7AC1F6FF7ADAF80000002877
:1049600018BF012007F062FCDAF80000217950F846
:104970002100B0FA80F0400907F058FC20794FF090
:10498000000910284FF0000038BF012007F04EFC4E
:1049900025793046102105F00F0700F03DF8207909
:1049A000217A227D00F040FA4046394600F0A4FB0F
:1049B000DAF80000012240F8256050F825100D704B
:1049C00050F825003946C0F80C90404600F080FBB6
:1049D000404600F03FFB30B92268FF2A03D0404632
:1049E000394600F057FB2079D4E9031200F0F4F9BE
:1049F0000020BDE8F0870000B0B548F2000500F0E7
:104A00000F04C4F2000528462146FFF76DFF284633
:104A10002146FFF781FFB0BD002908BF704780B570
:104A2000FCF714F9BDE88040704700002DE9F0471D
:104A300082B00446DDE90A9800201D4616468A46E3
:104A4000102C38BF012007F0F1FB45F29C70C1F635
:104A5000FF700068002818BF012007F0E7FB5FFA2D
:104A600089F0012101FA00F04FF0FF3151FA80F78F
:104A700007EA0600B0FA80F0400907F0D7FB07EA22
:104A80000500B0FA80F0400907F0D0FB20465146FF
:104A900032462B46CDF80090CDF8048000F018F88F
:104AA000054680B948F20007DDE90C2604F00F0442
:104AB000C4F200073846214600F0A0FB38462146E4
:104AC000324600F06FFB284602B0BDE8F0870000D8
:104AD0002DE9F04F83B00446DDE90CA700201D4608
:104AE00090460291102C38BF012007F09FFB45F241
:104AF0009C76C1F6FF763068002818BF012007F0C9
:104B000095FB306850F82400002818BF012007F0FA
:104B10008DFB504600F092FA07F088FB5FFA8AF0AE
:104B2000012101FA00F94FF0FF3050FA89F606EA48
:104B30000800B0FA80F0400907F078FB06EA0500AB
:104B4000B0FA80F0400907F071FB3E4018BF012623
:104B500060D148F2000B04F00F07C4F2000B584676
:104B6000394600F0C9FA584600F0C0FA58463946AE
:104B7000424600F093FB584639462A4600F0F2FAC6
:104B80005846394600220023CDE900AA4FF000081C
:104B900000F0C6FA0299032924D8DFE801F0020ADE
:104BA000121858463946002200F098FB4FFA89F552
:104BB00013E04FFA89F25846394600F08FFB002582
:104BC0000BE04FFA89F5584639462A4603E0584625
:104BD00039460022002500F081FB584639462A4616
:104BE00000F0D0FA0D9A5846394600F033FB58468B
:104BF0003946012200F002FB58463946012200F0F6
:104C0000E7FA45F29C70C1F6FF70006850F8240086
:104C1000C0F80C80304603B0BDE8F08F70B5054693
:104C200000200C46102D38BF012007F0FFFA45F296
:104C30009C76C1F6FF763068002818BF012007F087
:104C4000F5FA306850F82500002818BF012007F059
:104C5000EDFA48F2000005F00F01C4F20000224610
:104C600000F0A0FA70BD0000F0B581B048F2000479
:104C7000C4F2000400F00F05064620462946002233
:104C800000F020FA45F29C70C1F6FF70006850F801
:104C900026706FB13046FFF7AFFE20462946FFF77A
:104CA0002FFE0120F8607A6812B1B868F968904761
:104CB00001B0F0BD80B5B0FA80F0400907F0B6FA57
:104CC00048F20000C4F2000080BD000010B545F2BB
:104CD0009C71C1F6FF71096851F82040FFF78CFE06
:104CE00034B16268002A08BF10BDA068E16890472F
:104CF00010BD00002DE9F04F81B005460020009066
:104D00002846002D18BF01200F460A9E48F2000ACF
:104D1000002918BF0121084098469146C4F2000AB4
:104D200007F084FA45F29C7BC1F6FF7BDBF80000BC
:104D3000B0FA80F0400907F079FA6C462520214648
:104D4000FDF742FDB0FA80F0400907F06FFA2F201E
:104D50002146FDF739FDB0FA80F0400907F066FA08
:104D600028464021CBF80050FFF756FE504600F091
:104D700077F93968504600F087F93979504600F0E4
:104D8000ADF91020102402F0D7FC42F29060C0F27E
:104D90000500051F55F8040F02F0CEFC013CF9D1C7
:104DA0000AF5C830FFF724F8B9F1000F18BFB8F1C1
:104DB000000F0DD066B1A8F10404A9F1040500BFED
:104DC00055F8040F54F8041FFFF7B2FD013EF7D168
:104DD000002001B0BDE8F08FF0B581B0054600209D
:104DE00014460E46102D38BF012007F01FFA45F279
:104DF0009C77C1F6FF773868002818BF012007F0BC
:104E000015FA386850F82500002818BF012007F06F
:104E10000DFA386850F825104E6050F82510002023
:104E20008C6001B0F0BD000070B50446002015464E
:104E30000E46102C38BF012007F0F8F945F29C709F
:104E4000C1F6FF700068002818BF012007F0EEF9D6
:104E500020460021FEF7D6FF20463146FEF7E6FF4A
:104E600020462946FEF7F8FF20460121FEF7CAFF3B
:104E7000002070BD70B5054600200C46102D38BFCF
:104E8000012007F0D3F945F29C76C1F6FF76306831
:104E9000002818BF012007F0C9F9306850F8250034
:104EA000002818BF012007F0C1F948F2000005F002
:104EB0000F01C4F20000224600F054F970BD00005A
:104EC00070B5054600200C46102D38BF012007F0B4
:104ED000ADF945F29C76C1F6FF763068002818BF20
:104EE000012007F0A3F9306850F82500002818BF0A
:104EF000012007F09BF948F2000005F00F01C4F211
:104F00000000224600F07AF970BD000070B5054639
:104F100000200C46102D38BF012007F087F945F21C
:104F20009C76C1F6FF763068002818BF012007F094
:104F30007DF9306850F82500002818BF012007F0DF
:104F400075F948F2000005F00F01C4F20000224696
:104F500000F0A4F970BD000070B5054600200C46B5
:104F6000102D38BF012007F061F945F29C76C1F69B
:104F7000FF763068002818BF012007F057F9306825
:104F800050F82500002818BF012007F04FF948F21B
:104F9000000005F00F01C4F20000224600F08EF977
:104FA00070BD0000B0B504460020102C38BF0120B1
:104FB00007F03CF945F29C75C1F6FF75286800289A
:104FC00018BF012007F032F9286850F824000028A3
:104FD00018BF012007F02AF948F2000004F00F0181
:104FE000C4F20000012200F06DF80020B0BD000006
:104FF000B0B504460020102C38BF012007F016F988
:1050000045F29C75C1F6FF752868002818BF01207D
:1050100007F00CF9286850F82400002818BF012078
:1050200007F004F948F2000004F00F01C4F2000098
:10503000002200F047F80020B0BD000005288FBF17
:10504000002000F03F00372121FA00F098BF00F067
:10505000010070470068C0F380007047C06A704765
:1050600070B5044600684FF63971CFF6FC71084000
:1050700000262060F5B22046294600F03DF80F2DAD
:1050800006F10106F6D370BD026861F38202026088
:105090007047000070B50646002014460D461029E2
:1050A00038BF012007F0C2F885F00300304490F8C3
:1050B000001104F00F0201F0F001114480F800111A
:1050C00070BD0000002A0CBF8176C17670470000D9
:1050D000002A0CBF0176417670470000026822F07A
:1050E000100261F30412026070470000016841F091
:1050F000800101607047000000EB411000F5805115
:1051000000224FF480538A60C2508A80CA80CA60ED
:105110000A618A82CA828A618A83CA8370470000D0
:105120002DE9F04381B00746DDE9089800201C46D0
:1051300015460E46102938BF012007F083F8E80213
:1051400009F0070164F3C70008F0070240EA0120F4
:10515000104407EB461141F20602885201B0BDE847
:10516000F083000070B50646002014460D46102955
:1051700038BF012007F05AF806EB451041F2100144
:10518000445070BD70B50646002014460D461029E7
:1051900038BF012007F04AF806EB451041F2140130
:1051A000445270BD70B50646002014460D461029C5
:1051B00038BF012007F03AF806EB451041F21C0118
:1051C000425A22F0080264F3C302425270BD00004A
:1051D00070B50646002014460D46102938BF012040
:1051E00007F024F806EB451041F21C01425A22F068
:1051F000020264F34102425270BD000070B50646DF
:10520000002014460D46102938BF012007F01AF877
:1052100006EB451041F21E01435E425AB3F1FF3FD7
:10522000014407DD02F400426FF3DF3413194FF439
:10523000004206E002F47E426FF35F2413194FF43C
:105240007E420B8041F21601435A1A4022434252D9
:1052500070BD000070B50646002014460D461029AA
:1052600038BF012006F0EEFF306806EB451141F231
:105270000802000601EB02000AD5016800295CBFA4
:1052800001685FEA410105D5016864F309010C4634
:10529000046070BD24F04044046070BD70B50646E3
:1052A000002014460D46102938BF012006F0BEFF2D
:1052B00006EB45104FF48051445070BD70B5064662
:1052C000002014460D46102938BF012006F0AEFF1D
:1052D00006EB451041F20C01445070BD70B5064616
:1052E000002014460D46102938BF012006F09EFF0D
:1052F00006EB451041F20401445270BD10B5B0FAFE
:1053000080F040090C4607F039F849F22400C4F255
:1053100007000168002C21F00C0218BF41F00C02BC
:10532000026010BD80B5002000F002F880BD0000D2
:10533000B0B549F20404C4F2070421680025C6F29E
:105340007C05294208BFB0BD40F64851C2F20001B9
:1053500051F820104B6913B10221002298472068B0
:1053600028402060B0BD000080B5002000F002F8A9
:1053700080BD000010B549F20404C4F2070421689E
:1053800011F0407F08BF10BD40F64851C2F2000145
:1053900051F820104B6913B10021002298474FF0BB
:1053A0004070206010BD000080B5002000F008F8BB
:1053B00080BD000080B5002000F01CF880BD00001A
:1053C00010B549F20404C4F207042168090458BF67
:1053D00010BD40F64851C2F2000151F820108A6910
:1053E0001AB1D4F80016C9B290474FF400402060BB
:1053F00010BD000010B549F20404C4F2070421688E
:1054000011F0406F08BF10BD40F64851C2F20001D4
:1054100051F820104B6913B10121002298474FF039
:105420004060206010BD000080B5002000F002F850
:1054300080BD0000B0B549F20405C4F20705296833
:10544000890358BFB0BD00210446FFF757FF40F65F
:105450004850C2F2000050F8240043691BB12046B6
:105460000321002298474FF400302860B0BD0000AF
:105470007047000070470000704700007047000050
:105480007047000070470000704700007047000040
:105490007047000070470000704700007047000030
:1054A0007047000070470000704700007047000020
:1054B0007047000070470000704700007047000010
:1054C0007047000070470000704700007047000000
:1054D00070470000704700007047000070470000F0
:1054E00070470000704700007047000070470000E0
:1054F00070470000704700007047000070470000D0
:1055000070470000704700007047000070470000BF
:1055100070470000704700007047000070470000AF
:10552000704700007047000070470000704700009F
:10553000704700007047000070470000704700008F
:10554000704700007047000070470000704700007F
:10555000704700007047000070470000704700006F
:10556000704700007047000070470000704700005F
:10557000704700007047000070470000704700004F
:10558000704700007047000070470000704700003F
:10559000704700007047000070470000704700002F
:1055A000704700007047000070470000704700001F
:1055B00080B500F015FF0168092262F31B610160EC
:1055C00080BD0000B0B504460020032C38BF012088
:1055D00006F050FE45F22C40C1F6FF7050F8242032
:1055E00042F2BC40C0F20500D2F8083250F8245014
:1055F00013B120460A219847284600F001F8B0BDB3
:10560000026A0421C0F20B010A421CBF0162006A57
:1056100070470000016A0622C0F23B02114208BF37
:1056200070470221C0F230010162006A7047000039
:1056300001210163704700001F2988BF704701F0F6
:105640001F01012202FA01F10163704710B50446FF
:1056500000F038FE0021B1EB800F07D0820004F18A
:105660007C0300BF013A43F8041FFBD1002808BFA8
:1056700010BD04F67C010022013841F8042FFBD153
:1056800010BD0000D0F8081B41F40031C0F8081B21
:1056900070470000D0F8081B41F48031C0F8081BA7
:1056A0007047000010B50129044610D145F22C4086
:1056B000C1F6FF7050F8243003209860D3F800C280
:1056C000BCF1000F03D0E0B209210022E047E0B2B4
:1056D00000F002F810BD000070B505460020032D53
:1056E00038BF012006F0C6FD45F22C40C1F6FF7020
:1056F00050F82540D4F81402C0B1A06803282AD07D
:1057000094F810022668FFF773FC3068810202D417
:105710007168890C7160C0F30340B16886F8480075
:1057200008BAF168B06008BAF06014E042F2BC4018
:10573000C0F2050050F8256005213046002201F036
:105740006BF930460621002201F066F93046072148
:10575000002201F061F900202060A16803290CD02B
:10576000A060D4F8006246B1D4F81402012804D134
:105770002846082100222346B047207B58B1A06864
:10578000002818BF70BD201D08F0AAFCB0FA80F0F8
:10579000400906F06FFD70BD70B5054603284FF057
:1057A00000000C464FF0000638BF012006F062FDF5
:1057B00042F2BC40C0F2050045F22C4150F82500F1
:1057C000C1F6FF7151F825502146002201F024F95D
:1057D00005EB0414207B10B1201D08F081FCA660AD
:1057E00070BD000040288FBFFF2042F26C11C0F254
:1057F0000501085C70470000092838BF7047093868
:10580000062884BF00207047DFE800F00406080A7D
:105810000C0E10000C2070471020704714207047A9
:105820001820704720207047302070474020704774
:105830002DE9F041064600200C46032E38BF01201A
:1058400006F018FD45F22C40C1F6FF7050F8268096
:1058500008EB041757F8080FA8B342F2BC40C0F297
:105860000500396850F82650022930D130462146CB
:10587000FFF792FF28462146FFF7DEFE2846214625
:10588000FFF796FE2846214600F006FD0028F9D0D5
:105890002846214600F0A4FD00680021C0F3036003
:1058A000082808BF40F20131B0F1090618BF0E46C2
:1058B000284621464FF00008FFF7BEFE3046C7F8E5
:1058C0000080BDE8F08140F20130BDE8F081386829
:1058D000012825D130462146FFF75EFF284600F01B
:1058E00063FFC8B1686BC0F3036004F04FFFA042D0
:1058F00003D22846214600F08BFF8CB928460521AB
:10590000002201F089F8D8F81402012808D198F88B
:105910001002FFF76DFB03E02846214600F078FFF8
:105920002846214600F040FD01281CBF0020BDE8AC
:10593000F08130462146FFF72FFF28462146FFF72A
:105940007BFE0020BDE8F08170B5064600201446BD
:105950000D46032E38BF012006F08CFC42F2BC40FD
:10596000C0F2050050F82660304600F0A7FC28B1D0
:1059700030462946224601F0B5F870BD304600F0A9
:1059800013FC30462946224601F0ACF8304600F0C0
:1059900077FC70BDF0B585B0064600201D46174661
:1059A0000C46032E38BF012006F064FC3846002F59
:1059B00018BF012006F05EFC42F2BC40C0F20500B8
:1059C00050F826602146304600F0CEFE10B14FF46C
:1059D000407716E0D7E900100390387A02918DF8ED
:1059E000100030462146FFF727FE0F20019001AA44
:1059F000304621462B4601F079F9074620B177B1B0
:105A0000C7B1384605B0F0BD0020019001AA30466C
:105A100021462B4601F06AF90746002FF0D10420F9
:105A2000019001AA304621462B4601F05FF9074656
:105A3000002FE6D130462146FFF7FEFDE1E70000EA
:105A40002DE9F04186B0074603284FF000001C46C0
:105A500016460D464FF0000838BF012006F00AFC3C
:105A60003046002E18BF012006F004FC42F2BC4074
:105A7000C0F2050050F827702946384600F074FE41
:105A800020B14FF4407006B0BDE8F081D6E90010B7
:105A900002AACDE90310B07A31898DF816000820EA
:105AA000ADF814100290384629462346CDF8008000
:105AB000CDF8048001F0C4F906B0BDE8F081000023
:105AC00010B504460020032C38BF012006F0D2FB9D
