:020000040004F6
:10000000001001205505040067050400DDEF040021
:100010006B0504006D0504006F050400000000007E
:100020000000000000000000000000008D0504003A
:1000300073050400000000002506040035060400D6
:10004000153C0400693C0400753C0400813C04003C
:100050008D3C0400993C0400A53C0400B13C040024
:10006000BD3C0400C93C0400213C04002D3C0400BC
:10007000393C0400453C0400513C04005D3C040054
:10008000653D0400790504006D67040079050400EE
:100090007905040079050400790504007905040058
:1000A0002D6D0400396D0400FD790400097A040007
:1000B000157A0400456D0400516D040079050400B3
:1000C0007905040079050400790504007905040028
:1000D0007905040079050400790504007905040018
:1000E0007905040079050400790504007905040008
:1000F0007905040079050400419B04004D9B040030
:1001000079050400790504007905040079050400E7
:1001100079050400790504007905040079050400D7
:10012000790504007905040079050400119A04009A
:10013000159A0400359A0400399A04003D9A040087
:1001400079050400790504007905040079050400A7
:1001500079050400F56604007905040079050400BA
:10016000C1480400CD480400814804003D48040013
:1001700079050400414904002522040001220400FD
:10018000312204000D220400192204007905040024
:1001900079050400612204003D2204007905040071
:1001A0004922040055220400790504007905040061
:1001B000912204006D2204007905040079220400D4
:1001C000852204007905040079050400D96704003C
:1001D000E5670400F1670400FD6704007905040089
:1001E000790504000968040015680400216804000A
:1001F0002D680400790504007905040039680400BD
:1002000045680400516804005D6804007905040035
:1002100079050400696804007568040081680400B9
:100220008D680400790504007905040099680400CC
:10023000A5680400B1680400BD68040079050400E5
:1002400079050400C9680400D5680400E168040069
:10025000ED6804007905040079050400F9680400DC
:1002600005690400116904001D6904007905040092
:100270007905040029690400356904004169040016
:100280004D6904007905040079050400790504002E
:100290007905040079050400790504007905040056
:1002A0007905040079050400790504007905040046
:1002B0007905040079050400790504007905040036
:1002C0007905040079050400790504007905040026
:1002D0007905040079050400790504007905040016
:1002E0007905040079050400790504007905040006
:1002F00079050400790504007905040079050400F6
:1003000079050400790504007905040079050400E5
:1003100079050400790504007905040079050400D5
:1003200079050400790504007905040079050400C5
:1003300079050400790504007905040079050400B5
:1003400079050400790504007905040079050400A5
:100350007905040079050400790504007905040095
:100360007905040079050400790504007905040085
:100370007905040079050400790504007905040075
:100380007905040079050400790504007905040065
:100390007905040079050400790504007905040055
:1003A0007905040079050400790504007905040045
:1003B0007905040079050400790504007905040035
:1003C0007905040079050400790504007905040025
:1003D0007905040079050400790504007905040015
:1003E0007905040079050400790504007905040005
:1003F000790504007905040079050400FFFFFFFF7B
:020000040004F6
:1004000000F002F800F092F80AA090E8000C824494
:100410008344AAF10107DA4501D100F087F8AFF271
:10042000090EBAE80F0013F0010F18BFFB1A43F0D2
:100430000103184704F9000054F90000103A24BFE2
:1004400078C878C1FAD8520724BF30C830C144BF39
:1004500004680C607047000000230024002500267B
:10046000103A28BF78C1FBD8520728BF30C148BF17
:100470000B6070476E2900F03484702900F0B18160
:1004800066290EF0608665290EF05D8667290EF0FC
:100490005A8661290EF0598603681B0A28BF41F06D
:1004A0008001692900F02281642900F01F817529EB
:1004B00000F01C816F2900F02385782900F07D81F0
:1004C000E92900F0BD84E42900F0BA84F52900F0A0
:1004D000B784EF2900F02085F82900F07C810368BB
:1004E000DB0928BF41F08001632900F03E847329B5
:1004F00000F04384E32901F0FF80F32901F0048137
:10050000002070471FB50EF011FE00F053FB0400F1
:10051000002000210EF0DEFD401C60600020002164
:100520000EF0EEFDE0601FBD10B510BDDFF814D079
:1005300003B40AF095F803BCFFF7E4FF0BF0B0FB3F
:1005400001F03CFA0010012003B4FFF7EDFF03BCFB
:1005500000F0ECFC094872B609488047094880471A
:1005600062B609480047FEE7FEE7FEE7FEE7FEE762
:10057000FEE7FEE7FEE7FEE7FEE7000028FD0400D9
:10058000D1A30400B9B80400010404001EF0040F54
:100590000CBFEFF30880EFF30980816911F8021CAA
:1005A00091BB01B590E80F10E047BDE800508CE822
:1005B0000300244B93E80600914208BF704741B9FD
:1005C0001EF0100F10D12049086820F001000860CB
:1005D0000AE02CE9F00F1EF0100F08BF2CED108A76
:1005E000C1F838C081F822E01A6092F82210906BAE
:1005F00061F0FF0E1EF0100F08BFB0EC108AB0E8DB
:10060000F00F80F309887047104A13689942FAD8AE
:1006100001B552F821C00FC8E047BDE80050CCF842
:100620000000704701B50CF0DBF9BDE80140EFF3C5
:10063000098CBEE701B50CF0C7FCBDE80140EFF343
:10064000098CB6E7C801002034EF00E0E8F90400A7
:1006500010B500F0AFFA001D10BD00BF79EA000030
:100660000FB47CB50C0009AA009001D02044401EB4
:10067000084B7B4469460190089800F04CFB054606
:100680001CB10020694600F059FB28467CBC5DF88F
:1006900014FB0000D106000070B50C460546012A87
:1006A00005D02878800600D5EA69002302E00123FE
:1006B00005E05B1C934202D2E05C0028F9D1A869F6
:1006C000E618C01AA861286A18442862284600F073
:1006D00076FA04E0D5E9012114F8010B9047B44201
:1006E000F8D3284600F081FA70BD00002DE9F041F2
:1006F0000646002410687529314616A510D000F072
:1007000085FA002802DA404213A507E031688A071B
:1007100001D512A502E0490704D511A5012401E085
:1007200000F07DFA00210A2206F1240709E0B0FB5F
:10073000F2FCB0FBF2F302FB1C0030307854184698
:10074000491C0028F3D123462A463046BDE8F04133
:1007500000F06EBA000000002D0000002B00000029
:1007600020000000F0B40D460188090502D5214C97
:100770007C4402E01F4C7C440E34002100F124062E
:1007800008E002F00F071209E75D42EA03721B0955
:100790007754491C52EA0307F3D102780023120769
:1007A00004D5702D06D009B1022311342246F0BCC5
:1007B00000F03EBA01231034F8E770B504460D4648
:1007C0002146106800F02BFA024629462046BDE873
:1007D00070400023C6E7D21D22F00703D3E90023AF
:1007E000C0E70368126843F0200303600823C36175
:1007F0000023B7E7DAE900002DE9F05F89460446F7
:100800004FF0000ADFF874B1FB44C0F820A0204686
:10081000E1688847002874D0252806D0D4E9012152
:100820009047206A401C2062F1E700265F46204680
:10083000E16888472028054607DB312D05D2781965
:1008400010F8200C08B10643F1E7B00701D526F0F7
:100850000406C4F81CA00027C4F818A02A2D09D04B
:1008600028460EF030FC38B304EB8708303DC8F85A
:10087000185019E059F8041B204604EB87029161D7
:10088000E1688847012F054618D1E069002820DA81
:1008900026F020061DE0D8F8180000EB800005EBDC
:1008A00040003038C8F818002046E16888470546FF
:1008B0000EF009FC0028EED1012F0AD02E2D08D110
:1008C0002046E16888477F1C0546022F46F0200637
:1008D000C4DBA069002803DA404246F00106A061AB
:1008E000F00701D026F010066C2D0BD0682D09D032
:1008F0004C2D39D06A2D35D0742D35D07A2D33D08A
:1009000016E038E0E1682F4620468847B8420546A1
:1009100009D16C2F26D04FF48060E1680643204651
:100920008847054604E06C2F1AD04FF480700643C8
:100930000DB3A5F14100192802D8203546F4006610
:100940004A462946204626604E46FFF793FD80B171
:1009500001280BD0F61D26F0070000F1080956E724
:100960004020E4E78020D8E70020D6E706F104091C
:100970004DE7284652E7206ABDE8F09F6AE900008B
:1009800040EA010310B59B070FD1042A0DD310C80C
:1009900008C9121F9C42F8D020BA19BA884201D95E
:1009A000012010BD4FF0FF3010BD1AB1D30703D0A6
:1009B000521C07E0002010BD10F8013B11F8014B5C
:1009C0001B1B07D110F8013B11F8014B1B1B01D178
:1009D000921EF1D1184610BD032A40F2568010F045
:1009E000030C00F0158011F8013BBCF1020F6244CA
:1009F00098BF11F801CB00F8013B38BF11F8013B5B
:100A0000A2F1040298BF00F801CB38BF00F8013B07
:100A100011F0030300F04B80121FC0F03680A1EBF1
:100A20000301D1F800C0022B00F0118000F21E80FB
:100A30004FEA1C2351F804CF121F43EA0C6340F81D
:100A4000043BBFF4F5AF01F1010100F01EB84FEA1D
:100A50001C4351F804CF121F43EA0C4340F8043BF7
:100A6000BFF4F5AF01F1020100F00FB84FEA1C63CB
:100A700051F804CF121F43EA0C2340F8043BBFF4A3
:100A8000F5AF01F10301AFF30080D20724BF11F8E5
:100A9000013B11F801CB48BF11F8012B24BF00F82E
:100AA000013B00F801CB48BF00F8012B704710B59F
:100AB000203AC0F00B80B1E81850A0E81850B1E817
:100AC0001850A0E81850203ABFF4F5AF5FEA027C56
:100AD00024BFB1E81850A0E8185044BF18C918C086
:100AE000BDE810405FEA827C24BF51F8043B40F827
:100AF000043B08BF7047D20728BF31F8023B48BF0C
:100B000011F8012B28BF20F8023B48BF00F8012B49
:100B1000704702F0FF0343EA032242EA024200F078
:100B200024B84FF000020429C0F0128010F0030C2A
:100B300000F01B80CCF1040CBCF1020F18BF00F8D0
:100B4000012BA8BF20F8022BA1EB0C0100F00DB87F
:100B50005FEAC17C24BF00F8012B00F8012B48BFDD
:100B600000F8012B70474FF0000200B51346944681
:100B70009646203922BFA0E80C50A0E80C50B1F1F5
:100B80002001BFF4F7AF090728BFA0E80C5048BF09
:100B90000CC05DF804EB890028BF40F8042B08BFA7
:100BA000704748BF20F8022B11F0804F18BF00F8A3
:100BB000012B704710B500F0BFF9203010BD70B5A3
:100BC000044685690068C10601D5302600E020266C
:100BD000C00707D070BDD4E9012130469047206A94
:100BE000401C20626D1EF6D570BD70B50446856947
:100BF0000078C00707D170BDD4E9012120209047BB
:100C0000206A401C20626D1EF6D570BD09684A0539
:100C100001D540B27047C905FCD500B270470968DC
:100C20004A0501D5C0B27047C905FCD580B27047EE
:100C30002DE9F0470D4699469246044600F12408F6
:100C40000168880604D5E06921F01001216000E008
:100C50000120A84201DD471B00E00027A1697A19A5
:100C600002EB0900081AA0612078C00602D42046D1
:100C7000FFF7A5FF002608E0D4E901211AF80600D5
:100C80009047206A401C761C20624E45F4DB207899
:100C9000C0060AD52046FFF792FF06E0D4E90121FD
:100CA00030209047206A401C2062381EA7F10107BF
:100CB000F4DC07E0D4E9012118F805009047206A28
:100CC000401C2062281EA5F10105F3DC2046FFF739
:100CD0008CFF2078000602D50220BDE8F0870120B5
:100CE000FBE711680268006A530501D508700AE045
:100CF000D30501D5088006E0130603D5C217C1E964
:100D0000000200E0086001207047000001694A1CF1
:100D100002610878704700B58FB0CDE9013100213C
:100D2000059105497944CDE9031011466846FFF75E
:100D300063FD0FB000BD0000E5FFFFFF0A6802F889
:100D4000010B0A607047D1E900239A4202D2531C7A
:100D50000B601070704710B5436913B1AFF300809A
:100D600001E0FFF799FC012010BD127800F1240189
:100D70000A7000224A700122EDE711684FF0FF323D
:100D8000E9E700002DE9FF5F15468A460446DFF8D3
:100D9000AC80F8440027D8E900103E46CDE90010A9
:100DA00010E05AF826106A4602A800F0B1FC411C77
:100DB00007D02178890603D5E269391891420DD808
:100DC0000744761C2078800602D5E069B84205DD2C
:100DD000AE42E6DB5AF826000028E2D1A069C01B2B
:100DE000A0612046FFF7EBFED8E90010CDE9001026
:100DF000002017E05AF828106A4602A800F088FC84
:100E0000B0F1FF3F81460BD000250DF1080B05E046
:100E1000D4E901211BF8050090476D1C4D45F7D31F
:100E200008F10100B0428046E4DB206A38442062C9
:100E30002046FFF7DAFEBDE8FF9F0000F2E3000066
:100E40002DE9F0418046D21D22F007020025D2E9AB
:100E50000002F52915A614D0011E72F1000106DA70
:100E60000023D0EB030063EB020211A608E0D8F8E0
:100E700000108B0701D50FA602E0490701D50EA689
:100E800001251146002408F1240704E000F058F879
:100E900030323A55641C50EA0102F7D12B463246F3
:100EA00021464046BDE8F041FFF7C2BE0000000009
:100EB0002D0000002B0000002000000030B40021B5
:100EC00000F1240408E002F00705D208303542EAB8
:100ED0004372DB086554491C52EA0305F3D10468E8
:100EE000002310A2250708D504F020040C4304D0E9
:100EF000C46901230CA2641EC46130BCFFF798BE14
:100F000010B5044621461068FFF789FE02462046C8
:100F1000BDE810400023D1E7D21D22F00701D1E93E
:100F20000023CBE70000000030000000014918203A
:100F3000ABBEFEE726000200004870476849FF1F6D
:100F400030B5B0F10A0271F100034FEA900E4EEA9B
:100F5000817EB0EB0E0061EB91014FEA101E4EEA6C
:100F6000017E10EB0E0041EB11114FEA102E4EEAFC
:100F7000016E10EB0E0041EB11214FEA104E4EEACC
:100F8000014E10EB0E0041EB1141401841F1000100
:100F90004FEAD00040EA41704FEAD1014FEA8104A4
:100FA00044EA907410EB800544EB01046D1944EBA6
:100FB0000404521BA3414FF0000348BF0A3200D57E
:100FC00030BD401C41F1000130BD2DE9FF4F0C4602
:100FD0001E464FF0FF378BB0D2E90001DDF860808C
:100FE0000A908A46C1F30A5505B93D4600210846D4
:100FF0004FF00000BAF1000F00F4400005DA00EBFA
:1010000080004FF4400101EA50004FEA9059B9F1D5
:10101000010F00DDB9460A9850EA4A000ED044F6A6
:101020001050A5F2FF3545432F14B8F1000F1ED024
:101030007542291E1EDDC9F100021CE0B8F1010F46
:101040004FF0000001D0302103E0F24305E02154CD
:10105000401CB042FBDB30460022002121540B999A
:10106000C1F80880C1E900200FB0BDE8F08FBD1BBA
:101070006D1CDEE74A4600DA694206A800F02CFC47
:1010800006AB93E8070003AB83E8070050460A99D4
:101090000DF0DCFB8DE80700A0F500501F38009034
:1010A0000398002D0ADD42F21F014A46084400233E
:1010B00003A9039068460DF045FE09E0A0F5005035
:1010C0004A461F38002303A9039068460DF04FFEDF
:1010D0008DE807000004000C03D04FF0FF304108FA
:1010E00000E01046B8F1000F03D000220092154630
:1010F0001EE0751E05D4FFF723FF303262556D1ECA
:10110000F9D5B3460122084302D000227F1C04E037
:101110002078302801D100227F1E002A099784D030
:101120001DE0112D07DAFFF70BFF303262556D1C01
:1011300050EA0102F5D1084302D00098C8B10EE090
:101140000021681E05E0235C625C63542254401E4B
:10115000491C8142F7DBAB46A81B401E09900020CA
:1011600004F80B000B98099AC0F80880C0E9002B1E
:101170007AE711264FF0000857E72DE9F04F88462F
:101180000446D21D22F0070191B0D1E90001CDE95A
:101190000A010DF080FF02460B98C00F01D02D20F0
:1011A00007E02068810701D52B2002E0202101EA19
:1011B000C000032A099001D0072A05DB03464146F7
:1011C000204600F049FB0BE12078800601D5E0695C
:1011D00000E00620B8F1650F814606D0B8F1660F31
:1011E00018D0B8F1670F70D131E00020B9F1110FBC
:1011F000009001DB112301E009F101030AAA01A912
:101200000CA8FFF7E2FEDDE90C70002609F10105EC
:10121000834647E001204B4600904FF000470AAA62
:1012200001A90CA8FFF7D1FEDDE90DB00C995D46D0
:10123000002610B909F101000D18B9EB050003D41F
:10124000C0F1FF3609F10105A5EB09002BE0B9F16A
:10125000010F01DA4FF001090020B9F1110F0090E0
:10126000484601DD112300E003460AAA01A90CA8A3
:10127000FFF7ABFEDDE90C704D4600268346207873
:1012800000070AD4AB4500DA5D4601A8012D04DD54
:10129000411911F8011C302907D04F4502DA17F126
:1012A000040F04DA012082460FE06D1EEEE7002FE6
:1012B00002DCED1B3E4403E0781CA84200DD7D1CEF
:1012C000B81B00F1010A4FF000472078000703D453
:1012D000AA4501DB4FF0FF3A0021B7F1004F0DF1B5
:1012E00043088DF8431024D002202B23002F01DA6D
:1012F0007F422D230A21021EA0F1010000DC5FB114
:1013000097FBF1FC97FBF1F201FB1C7C17460CF1FB
:10131000300C08F801CDEEE7A8F101000370218838
:10132000090501D5452100E06521A0F1010800F87B
:10133000011C09980FA9A1EB0807FF1D00B10120AE
:10134000411901EBEA70A1693844081A401EA061F6
:101350002078C00602D42046FFF731FC099828B156
:10136000D4E901219047206A401C20622078C00601
:1013700022D52046FFF723FC1EE0002E04DBB345F8
:1013800002DD01A8805D00E03020D4E90121904712
:10139000206A401C2062761CAAF101005FEA000A64
:1013A0000AD1FFF707FCC0680168405CD4E901215D
:1013B0009047206A401C2062281EA5F10105DCDC54
:1013C00007E0D4E9012118F8010B9047206A401C7E
:1013D0002062381EA7F10107F3DC2046FFF705FC69
:1013E000032011B041E600002DE9F04F04460D4600
:1013F000D21D22F0070089B0D0E90097484639464F
:101400000DF049FE0246F80F01D02D2307E02068B9
:10141000810701D52B2302E0202101EAC0038DF8CA
:1014200020300BB1012000E00020032A824601D0C9
:10143000072A04DB2946204600F00EFA3FE1207817
:10144000800601D40D2500E0E569C7F30A560D2D8D
:1014500049DA00214FEA175B08464FF00000002FE1
:1014600000F4400007DA00EB80004FF4400100EB8D
:10147000D07001EA60008115012901DD4FF0FF31D4
:1014800000224FEA850CBCF1180F06D31346ACF1CD
:1014900018004FF08052C24003E04FF4801323FA4B
:1014A0000CF30CF10C0CBCF1200F04D3ACF1200CAC
:1014B00009FA0CF001E007FA0CF000294FF000489F
:1014C00001DD18B90FE00ED140450CD319EB02092C
:1014D0005F4121B9404502D19F4329EA0209BBEB94
:1014E000175F00D0761C2088000502D57B48784421
:1014F00002E07A487844193808AA302302F80A3002
:10150000037C0AF10101002E0AF1020A53546A46D3
:1015100002DC4FF0300101E04FF031014FF00108E3
:101520008DF8001002D0A6F2FF3603E059EA470119
:1015300000D06B4E002D02DC2178090704D54FF056
:1015400002082E218DF80110C44600210BE0C7F3DC
:1015500003433F01C35C491C6D1E02F80830052996
:1015600008F1010801DA002DF1DC00210CE000EBAC
:101570001973491C1B786D1E082902F808304FEAC0
:10158000091908F1010801DA002DF0DC21688B0649
:1015900002D516E0A8F10108E04505DD02EB0803DD
:1015A00013F8013C302BF5D0B8F1000F09DD02EB48
:1015B000080313F8013C2E2B03D1090701D4A8F12D
:1015C0000108002D05DD3E2102F808106D1E08F10E
:1015D0000108407C002E02F8080008F1010804DA36
:1015E0002D20764202F8080002E02B2002F80800C5
:1015F0000A214FF47A70864208F101080BDB96FB52
:10160000F0F3303302F8083096FBF0F308F10108EC
:1016100000FB136601E0642E0CDB642096FBF0F304
:10162000303302F8083096FBF0F308F1010800FBB4
:10163000136601E00A2E06DB96FBF1F0303002F86B
:10164000080008F1010896FBF1F001FB1060303052
:1016500002F80800A16908F1010808EB050202EB95
:101660000A00081AA0612078C00602D42046FFF7BD
:10167000A6FA216A08AE01EB0A00206204E0D4E970
:10168000012116F8010B9047BAF1010AF7D2207830
:10169000C00602D52046FFF792FA6E4609E016F81A
:1016A000010B3E280FD0D4E901219047206A401C4D
:1016B0002062B8F10108F2D22046FFF796FA09B08D
:1016C0000320BDE8F08F206A2844206203E0D4E9BB
:1016D0000121302090476D1EEBD3F8E7B1DC00000C
:1016E00002FCFFFF10B5436913B1AFF3008001E0C6
:1016F000FFF748FB012010BD126800F1240142628F
:10170000002282620122EDE711684FF0FF32E9E723
:101710002DE9F04116460C460546FEF799FF036891
:1017200093F80101012807D0FF2C12D8185D80B171
:1017300001202C70BDE8F081D3F807013246214624
:1017400003F20713C7182846BC46BDE8F041012341
:1017500060474FF0FF30EDE780EA010212F0030F1F
:1017600063D110F0030F1DD010F8012B11F8013BCD
:10177000012A28BF9A4268D110F0030F12D010F846
:10178000012B11F8013B012A28BF9A425DD110F0CC
:10179000030F07D010F8012B11F8013B012A28BFD5
:1017A0009A4252D100B5DFF8A8E050F8042B51F866
:1017B000043BA2EB0E0C2CEA020C1CEACE1C08BF68
:1017C0009A420CD150F8042B51F8043BA2EB0E0CBA
:1017D0002CEA020C1CEACE1C08BF9A42E5D05DF848
:1017E00004EB4FEA0360B0EB026003D110F1000F8D
:1017F0001CF47F6F15D14FEA0340B0EB024003D1D8
:1018000010F1000F1CF47F4F0BD14FEA0320B0EB17
:10181000022003D110F1000F1CF47F0F08BFB3EBBF
:10182000020018BF4FEA3000704710F8012B11F882
:10183000013B012A28BF9A4207D110F8012B11F869
:10184000013B012A28BF9A42EFD0A2EB0300704768
:1018500001010101704700002DE9F0411F460446D7
:1018600003260168072A01F4006004DB08B116A50D
:1018700005E016A503E008B115A500E015A521F0C7
:1018800010002060A069C01EA0610FB1401EA061C1
:101890002046FFF794F94FB1D4E90121384690472B
:1018A000206A401C2062C01C206206E0206AFAE721
:1018B000D4E9012115F8010B9047761EF8D2204695
:1018C000FFF793F9BDE8F0814E414E006E616E0066
:1018D000494E4600696E66002DE9F047814616467E
:1018E0008AB0354878440DC88DE80D0032487844F8
:1018F000801C03AC0DC884E80D0041F69B30084401
:10190000372190FBF1F290FBF1F5A5F1800501FB89
:1019100012041B3C02D56442012000E00020DFF8E5
:1019200098A080460027FA44AAF1BE0A0EE0E0071C
:101930000AD03246684607EB470101230AEB8101D2
:101940000DF015FA8DE8070064107F1C002CEED115
:10195000194F7F44AE3F19E0E80715D007EB04109C
:101960000DF1180A90E80E008AE80E00C068F042F7
:1019700001D1981908903246012306A903A80DF059
:10198000F6F903AB83E807006D10641C002DE3D16A
:101990004FF0010332466946B8F1000F03A802D0A8
:1019A0000DF0D0F901E00DF0E2F9C9E90001C9F844
:1019B00008200AB0BDE8F0874CD9000010B50446F5
:1019C000AFF300802046BDE81040FEF7BDBD00002B
:1019D0002DE9F04782B0054602284FF000004FF095
:1019E000000638BF012009F02DFD4FF6A800C0F217
:1019F000040050F82540204600F03AF98146204680
:101A000000F03CF98246204600F042F907462046A5
:101A100000F03AF980462046032100F06BF9204699
:101A2000012100F05DF92046002100F0B3F92046C5
:101A30000C2100F097F92046C4F8B460C4F8B860EF
:101A4000C4F8BC60C4F8C060C4F8C460C4F8C8601E
:101A5000C4F8CC60019600F007F930A151F82520B8
:101A6000054601A9104600F06DFFB0FA80F040096C
:101A700009F0E8FC019848F27F41C0F21E0188425B
:101A800088BF0126304609F0DDFC019847F6410287
:101A900020FA05F1C0F27D1291421FD34FF282016C
:101AA000C0F2FA21884201D2012613E04EF204115D
:101AB000C0F2F551884201D202260BE04CF2082117
:101AC000C0F6EB31884201D2032603E00020002655
:101AD00009F0B8FC2046314600F0E8F8204600F056
:101AE000DDF800BF204600F0B9F80028FAD1204602
:101AF000294600F0DBF82046494600F0F1F8204680
:101B0000514600F0F7F82046394600F043F92046E8
:101B1000414600F027F902B0BDE8F0874C00000014
:101B20004D000000F0B581B0054602284FF00000DE
:101B30000C464FF0000738BF012009F083FC204617
:101B4000002C18BF012009F07DFCE068B0FA80F09D
:101B5000400909F077FC4FF6A800C0F2040050F8E5
:101B600025602DA050F825006946009700F0EAFE98
:101B7000B0FA80F0400909F065FC00982168C8407F
:101B80000090A0F5F41046F60141A0F59060C0F277
:101B9000DC21884238BF0127384609F053FC216810
:101BA000304600F083F82179304600F0DBF8A16878
:101BB000304600F0D1F8E168304600F0A3F8216922
:101BC000304600F0E7F86169284600F0A1F8A16905
:101BD000284600F0E7F8217F304600F077F8216AC8
:101BE000304600F003F994F82410304600F064F811
:101BF00094F82500B5FA85F1B0FA80F0400949095A
:101C0000084309F01FFC0DB101B0F0BD94F82500A8
:101C100000F0B2F801B0F0BD4C0000004D00000033
:101C2000B0B5054600200C46022D38BF012009F052
:101C300009FC2046002C18BF012009F003FC4FF6D8
:101C4000A800C0F2040050F825502178284600F082
:101C500047F86168284600F04DF8B0BDD0F8940010
:101C6000C0B2C00970470000006CC0F3411070475B
:101C7000D0F89400C0F3800070470000D0F89400C2
:101C800000F0030070470000406CC0B270470000D5
:101C9000D0F89000C0F3801070470000D0F8941086
:101CA00041F08001C0F8941070470000026C61F3AD
:101CB0004612026470470000D0F8942022F0080217
:101CC00061F3C302C0F8942070470000D0F8902060
:101CD00022F0040261F38202C0F8902070470000F5
:101CE000D0F8942022F0040261F38202C0F894201C
:101CF00070470000D0F8942061F30102C0F89420EE
:101D000070470000026C61F301020264704700003A
:101D1000B0B582B0302248F2180400924FF440521D
:101D2000C4F2040401926B46226853F82030012863
:101D300022EA030505D048B901F0030045EA001581
:101D400007E001F0030045EA003502E0002009F059
:101D500079FB256002B0B0BD026C61F383020264BE
:101D600070470000426C002908BF012122F0FF02E9
:101D7000114441647047000048F20401C4F20401B8
:101D80000A68002822F4002318BF42F400230B60E5
:101D900070470000D0F8902061F38612C0F89020C0
:101DA00070470000B0B582B0012248F218040092DA
:101DB0004FF48072C4F2040401926B46226853F817
:101DC0002030012822EA030504D040B901F00100C7
:101DD000054307E001F0010045EA002502E000208C
:101DE00009F030FB256002B0B0BD0000D0F89020B3
:101DF00061F30102C0F8902070470000B0B584B0D4
:101E00001446054610461022FEF7E6FD2878A9780C
:101E1000EA786B7841EA022140EA032040EA014077
:101E20000090284610F8041F6A798378C07841EA48
:101E3000022143EA002041EA00400190284610F8C0
:101E4000081F6A7A8378C07841EA022143EA0020B9
:101E500041EA0040697B15F80C2F0290A878EB78D6
:101E600042EA012140EA032041EA0040039069462A
:101E70002046012208F0FEFB04B0B0BDB0B584B02E
:101E80001446054610461022FEF7A6FD2878A978CC
:101E9000EA786B7841EA022140EA032040EA0140F7
:101EA0000090284610F8041F6A798378C07841EAC8
:101EB000022143EA002041EA00400190284610F840
:101EC000081F6A7A8378C07841EA022143EA002039
:101ED00041EA0040697B15F80C2F0290A878EB7856
:101EE00042EA012140EA032041EA004003906946AA
:101EF0002046002208F0BEFB04B0B0BD012BBCBFE1
:101F0000002070472DE9F04F8DB08946D91714464F
:101F100003EB117242F00F01D21701EB12724FEA7C
:101F2000221B02788378C678457843EA062342EA82
:101F3000052242EA03420192024612F80C3F467B18
:101F40009578D27843EA062345EA022243EA024220
:101F50000492024612F8083F467A9578D27843EA0E
:101F6000062345EA022243EA0242437910F8046F4D
:101F700003928278C078179F46EA032342EA002042
:101F800043EA0040012F0290A8BF102904DA4FEA6B
:101F90000B100DB0BDE8F08F16984FF00108A0F1BE
:101FA00010060DF1240A05AD48462146524610366A
:101FB000FFF724FF01A851462A460CF035FC207893
:101FC000A178E278637841EA022140EA032040EAFE
:101FD00001400190204610F80C1F627B8378C07886
:101FE00041EA022143EA002041EA004004902046F1
:101FF00010F8081F627A8378C07841EA022143EA28
:10200000002041EA00400390204610F8041F627946
:102010008378C07841EA022143EA002041EA004087
:102020000290304629461022FEF7D6FC112FAEDB77
:10203000103FD84508F1010804F11004B4DBA6E70D
:102040002DE9F04F8FB0012B019178DB03F10F01E7
:102050001446CA1701EB127C4FEA2C110291027848
:102060008778C578417847EA052742EA012141EAA5
:1020700007410B91014611F80C2F477B8D78C978E9
:1020800042EA072245EA012142EA01410E91014656
:1020900011F8082F477A8D78C97842EA072245EA75
:1020A000012142EA0141427910F8047F0D918178C3
:1020B000C07847EA022241EA002042EA00400C9040
:1020C0002CF00F002044199E103803A91A460BF07B
:1020D000A9F9012E2EDB0298189FC0F100094FF0DC
:1020E00000080DF12C0B0DF11C0A00BF09EB0800D4
:1020F0000130214603A808BF0146354658465246DE
:10210000102EA8BF10250CF08FFB019851465A469F
:10211000FFF7B4FE384659462A46FEF75DFC761BAB
:10212000012E07DB029808F101082F44804504F1D5
:102130001004DBDB029800010FB0BDE8F08F002037
:102140000FB0BDE8F08F00002DE9F04399B01746BD
:102150000E4605A901AA9846814609F04BFB07F1F6
:102160000F00C11700EB117007F11E014FF0FF3295
:1021700002EB20151F2938BF0025380706EB051094
:1021800004D11F2902D305A90DAA0CE0F91707EB0A
:10219000117121F00F0109AC7A1A21460BF02AF9CE
:1021A00001A90DAA20460CF03FFB0020012D18903C
:1021B000CDE9160015900FDB15AF11AC384631464E
:1021C00022460CF031FB484621463A46FFF756FEC0
:1021D000013D06F11006F1D115AC11AE0DA9204656
:1021E00032460CF021FB484631462246FFF746FEB8
:1021F000404621461022FEF7EFFB19B0BDE8F08300
:1022000080B5002003F03CFA80BD000080B50020BE
:1022100003F076FB80BD000080B5002003F070FB6A
:1022200080BD000080B5002002F054FC80BD00009D
:1022300080B5002004F0FEF980BD000080B50120CB
:1022400003F01EFA80BD000080B5012003F058FBAA
:1022500080BD000080B5012003F052FB80BD00006E
:1022600080B5012002F036FC80BD000080B5022060
:1022700003F006FA80BD000080B5022003F040FBA9
:1022800080BD000080B5022003F03AFB80BD000055
:1022900080B5022002F01EFC80BD000080B5112830
:1022A00002D800F0D5FC80BD2B2802D800F078FDC4
:1022B00080BD5A288CBF042000F0DAFB80BD0000EE
:1022C000B0B5C4B0044600F093FA0138B0FA80F01B
:1022D000400909F0C3F81CB96C46204600F098FA92
:1022E000204600F041FF054658B904F1A00000F077
:1022F00079FF04F5827000F0FBFE04F5867000F0B3
:102300001FFF284644B0B0BD2DE9F04184B00D4612
:10231000044649B901208DF8040000F0E9FA029062
:102320004FF0011001AD03904FF64C20C0F20400B5
:10233000005DC1070AD110F0180F0ED0686804388C
:1023400004280DD221A151F820800EE029782046E2
:1023500000F0A8FE04B0BDE8F0814FF0000804E0F2
:1023600000204FF0000809F079F8552C4FF00007D5
:1023700001D0422C09D168890138082838BF0127CB
:10238000384609F06BF86889471E552C4FF0000657
:1023900001D0422C09D128890138022838BF0126F2
:1023A000304609F05BF82889461E204607F0B2FA4D
:1023B00028780028CED02046012142463B46009690
:1023C00007F0BAFA04B0BDE8F08100BF02000000D7
:1023D0000300000001000000060000002D283EBFA1
:1023E000042108467047A0F13902212A15D804219A
:1023F000DFE802F011131313131311131113131346
:10240000131313131313111313131313131313139E
:102410001313131313110846704780B507F03AFAE7
:102420004FF48071002818BF0021BDE880400846A5
:102430007047000070B586B00D46064639B90120D8
:10244000ADF81200CDE90200002001AD019007F0C7
:1024500025FC10B1022434B11BE007F097FB07F014
:102460008DFB0024ACB9A6B1D5E9010107F0A0FCB1
:10247000287807F0A7FCA87BE97B07F0ABFC652573
:1024800000F052FA013D01D00028F9D0002D08BF1C
:102490000324204606B070BD70B584B00446007BAE
:1024A000214600F087F8054670B994F8430004F11E
:1024B000240100F0B5F8054630B994F8560004F14F
:1024C000440100F009F9054600F092F9032808D00C
:1024D00002280BD001280ED104F16806002D66D128
:1024E0000FE004F18806002D61D10AE004F17806BE
:1024F000002D5CD105E00020002608F0AFFF002D84
:1025000055D1F06803283FD194F85600012548B111
:1025100006200390022002906846CDE9005500F0A5
:102520007BFF0546012D0CD194F8430048B10120F2
:10253000002103900291CDE90000684600F06CFF95
:102540000546012D0CD1207B50B1022003900020C4
:10255000CDE9010001200090684600F05DFF0546CE
:102560002DBB94F8200004F11001FFF763FF05462E
:10257000E8B9F26896E80B0003928DE80B00684614
:1025800000F04AFF054612E00390B168D6E9000268
:102590000291CDE90002684600F03EFF054630B9E1
:1025A00094F8200004F11001FFF744FF0546284687
:1025B00004B070BD70B584B00D46064649B9002020
:1025C0008DF80D0001206D46ADF80E000290CDE9AA
:1025D000000007F08BFB10B1022434B11DE007F0BE
:1025E000E7FA07F0DDFA0024BCB9B6B1D5E901017C
:1025F00007F020FC287807F027FC687BA97BEA7BA2
:1026000007F02AFC652500BF00F046FC013D01D023
:102610000028F9D0002D08BF0324204604B070BD67
:10262000F0B589B00D46064681B90020012102901F
:102630008DF82200CDE90611CDE9031002200590A6
:1026400041F20020C0F27A0001AD019007F06EFB6C
:1026500044F64477C1F6FF7710B102243CB138E06C
:1026600007F0B8FA07F0AEFA00243C608CBB86B3E2
:10267000D5E9050107F0FEFBD5E90221286907F03D
:1026800003FC6868022805D0012809D070B9AA7F28
:10269000002007E0AA7F0120012107F005FC08E0E7
:1026A000AA7F0120002107F0FFFB02E0002008F0D4
:1026B000D5FE286841F67705CFF6CF75386000BFA4
:1026C00000F06CFC013501D00028F9D0002D08BFC6
:1026D0000324204609B0F0BD70B586B00D4606460D
:1026E00069B90020012101908DF81500CDE9031191
:1026F0004FF4E06101ADADF808108DF80A0007F065
:1027000045FB10B102243CB14DE007F075FA07F02B
:102710006BFA0024002C46D1002E44D000F03EFC81
:102720000646002818BF012008F098FE287943F2D9
:1027300001620130B6FBF0F0C0F26E12A0F5F400B9
:10274000A0F590510020914238BF012008F086FE8C
:10275000D5E9020107F0B8FB2879697907F0BEFBDB
:102760002868022805D0012809D070B96A7C0020A9
:1027700007E06A7C0120012107F0C8FB08E06A7CC1
:102780000120002107F0C2FB02E0002008F066FEF5
:1027900040F2E93500F00EFC013D01D00028F9D0EF
:1027A000002D08BF0324204606B070BD80B584B05C
:1027B00007F04CFA032802D1002004B080BD00F0DD
:1027C000B3F818B1002038B104B080BD0120002159
:1027D000FFF730FE0028F7D10021032002910121EC
:1027E0000390CDE90001684600F016FE04B080BDFC
:1027F00080B507F04DFD802806D0042806D00128BA
:1028000014BF0420012080BD032080BD022080BDB4
:1028100070B504464FF00111012004F1080284F85C
:102820002000E0830025C4E9000023C241F200211A
:10283000C0F27A014FF48072C4E9050084F85C00AC
:10284000A565A4F842200222C4E909154FF44061AD
:10285000C4E90B05C4E90D20A4F848100321E06386
:1028600084F85600656484F8555084F84A50C4E9E9
:10287000130084F86400216684F89C00C4E91A00FF
:10288000C4E91C51C4E91E15C4E920020622C4E9AA
:10289000221044F20041C4E92452C1F6FF712922FA
:1028A000C4E9412140F201164FF00131A4F8A00023
:1028B000C4E9295584F8AC00A4F8B860C4E92C55E3
:1028C00084F8000184F8BC0004F1C000C4F8EC10E6
:1028D0002C21A4F8F060FEF746F9A4F8F460C4F8DF
:1028E000F850A4F8FC50A4F80C6184F80E5170BDA7
:1028F00080B500F0D1FA00281CBF042080BD00F094
:1029000013F800281CBF052080BD00F053FB0028F1
:102910001CBF072080BD00F041FB014606200029B6
:1029200008BF5C2080BD000080B507F0AFF900282B
:1029300004BF002080BD07F099F946F60040C0F2C0
:10294000DC2080BD80B5FFF7A9FC80BDA0F143026B
:10295000072A88BF704780B52E3800F021FABDE8FD
:102960008040704710B507F0A9FB03281DD84FF42D
:10297000FA34DFE800F01E17020B07F097FB04465D
:10298000002818BF4FF4FA44204610BD07F08EFB14
:1029900040B107F083FB0446002818BF4FF47A7457
:1029A000204610BD0024204610BD0020002408F061
:1029B00055FD204610BD0000B0B5A0F11D020E2A45
:1029C0000C462ED8DFE802F0080C101739252D2D03
:1029D0002D2D2D3135474B00002500F093F941E0B6
:1029E000002500F039FA3DE006F0E2FF80B3002553
:1029F000FFF7B8FF36E006F0DBFF48B307F056FB01
:102A000030B307F04BFB002818BF4FF47A70002555
:102A100028E006F0CDFF002818BF4FF4FA3000255B
:102A200020E007F095FA054613E0002500F0ECF8E9
:102A300018E0002500F0C6F814E006F0B9FF38B140
:102A400007F034FB002818BF4FF4FA40002509E0D6
:102A50000025002006E0002500F0CCF802E000256B
:102A600000F0BEF8002C18BF20602846B0BD000062
:102A70002DE9F0410C460546FFF7B0FC074608B1CA
:102A8000002646E04FF64C20C0F2040010F8058006
:102A90005FEA886015D45FEA486014D45FEA086092
:102AA0001AD40020002608F0D9FCFFB918F0180F3E
:102AB0000BD05FEA08701BD400265FEAC8601FD401
:102AC00023E0012009E0002007E00027592D20D154
:102AD00000F078F806461CE0022000F081FA064675
:102AE000B0FA80F040090702002FDFD0002610E086
:102AF0002846002100F014F806465FEAC86004D5B5
:102B00002846012100F00CF80646B6FA86F0400986
:102B100007023846002C18BF2660BDE8F08100008F
:102B2000F0B581B007460020009038460E4606F00A
:102B3000E1FE0446384606F0CDFE844227D805461D
:102B4000384606F0A7FE10B3384606F0B3FE01384B
:102B500005280AD8DFE800F003050709090F062059
:102B60000AE0042008E0052006E069463846FFF741
:102B7000EDFE002504E00720314600F0B5F9009095
:102B80000098691CB0FBF1F0611C484300905DF8AF
:102B9000040BF0BD10B507F009FA002804BF0020AF
:102BA00010BD06F063FF0721002818BF0521084665
:102BB000002100F099F9044606F052FF0130B4FB01
:102BC000F0F010BD80B5592006F064FE002804BF67
:102BD000002080BD06F03CFF00F002FA80BD00003E
:102BE00080B506F02DFF00280CBF0020FFF7D2FFB4
:102BF00080BD000010B5FFF7CDFF044606F020FFB2
:102C000024FA00F010BD000080B5FFF7C3FF4008B4
:102C100080BD000010B5002406F0F8FF062815D886
:102C2000DFE800F004080B0E14141100022000F07D
:102C3000D7F910BD00F0B2F910BD00F02DF910BDAC
:102C4000FFF772FE10BD00F0B5F90446204610BD36
:102C5000B0B511280C460FD8DFE800F0091115199E
:102C60001D2125292D3337393B3D3F414349002064
:102C7000002500F0B5F93FE0002004253CE00120EC
:102C800000F0AEF937E0022000F0AAF933E00025A9
:102C900000F038F830E0002500F0FEF82CE00025C8
:102CA000FFF742FE28E0002500F078F924E0002537
:102CB00000F080F920E040F69850C2F20000006871
:102CC00019E00025FFF7A6FF16E004200AE0042023
:102CD0000EE0052006E005200AE0062002E00620BE
:102CE00006E007200021002500F0FEF804E00720A0
:102CF000012100F0F9F80025002C18BF20602846BB
:102D0000B0BD000010B507F069F9002804BF00202D
:102D100010BD07F05BF90F280FD84FF4FA34DFE845
:102D200000F0080C0E0C101216181A203825292D48
:102D30003135FFF76FFF04462BE0002429E0062021
:102D40000AE0042008E0FFF75FFF044621E00520C9
:102D500002E0002006E00720012100F0C5F804464B
:102D600017E0012000F03CF9044612E0FFF72AFFCB
:102D700004460EE0FFF7F6FD04460AE0FFF73AFFCF
:102D8000044606E000F068F8044602E0FFF728FF7A
:102D9000044607F013F90130B4FBF0F010BD000059
:102DA00070B582B0054615380C4600210728019100
:102DB00047D8DFE800F004112D32373C4C4107F0D2
:102DC0002DF902280CD844F60071C1F6FF7151F8B4
:102DD00020000026019004E007F028F90228F2D92B
:102DE0000026A5F12300042804D81EB9012000F014
:102DF000F7F8019001993046002908BF4FF4807020
:102E0000042E08BF3046002C18BF216002B070BDF0
:102E100007F014F90228E3D8D5E707F017F90228DC
:102E2000DED8D0E707F01AF90228D9D8CBE707F0A7
:102E30001DF90228D4D8C6E707F028F90228CFD810
:102E4000C1E701A92846FFF7B7FD0646C9E707F025
:102E500015F90228C4D8B6E780B507F047F903286A
:102E600005D8DFE800F002060D1306200FE0002071
:102E700080BD07F01BF9002818BF4FF4FA4080BD51
:102E800040F69850C2F20000006880BD0520002185
:102E900000F02AF880BD000080B506F01FFF002872
:102EA00004BF002080BD06F009FF00281CBF41F2CE
:102EB0000020C0F27A0080BD80B5411E05294FF088
:102EC000000088BF80BDDFE801F00306090E0E0C8C
:102ED00000F064F880BDFFF7DFFF80BDFFF724FD41
:102EE00080BD00F067F880BD10B501290DD0C9B9CB
:102EF0000438032821D8DFE800F002262C32FFF73F
:102F0000CBFF044606F0D2FE11E0043803282CD88B
:102F1000DFE800F00231373DFFF7BEFF044606F060
:102F2000D5FE04E00020002408F098FA0020411E9D
:102F3000002818BF24FA01F010BD0020002408F07A
:102F40008DFA0020F3E7FFF7EFFC044606F086FE5B
:102F5000EDE700F023F8044606F0D0FEE7E700F0C6
:102F600029F8044606F0EAFEE1E70020002408F014
:102F700075FA0020DBE7FFF7D7FC044606F07EFE7B
:102F8000D5E700F00BF8044606F0C0FECFE700F0EE
:102F900011F8044606F0EAFEC9E7000080B506F025
:102FA000BDFE44F64471C1F6FF710968002818BFE0
:102FB000084680BD10B506F0E1FE70B1FFF7EEFFE8
:102FC00058B1044606F0CAFE0130B4FBF0F406F036
:102FD000BDFE10306043400810BD002010BD000051
:102FE000B0B50446012008F039FA002506F02EFE9F
:102FF0000138052810D8DFE800F00306090F0F0C90
:10300000FFF7CCFF07E0FFF747FF04E0FFF78CFC7A
:1030100001E0FFF7CFFF054606F008FE0130B5FBE3
:10302000F0F574B1022C04D0012C09D106F0F6FDA4
:1030300001E006F003FE0130B5FBF0F52846B0BD17
:1030400000252846B0BD0000F0B581B01C461546ED
:103050000E460746002818BF012008F0FFF9284651
:10306000002D18BF012008F0F9F940F69C50C2F27B
:103070000000076044F61070C1F6FF70067044F659
:103080001470C1F6FF70056044F6187040F6A45144
:10309000C1F6FF70C2F20001047000200C7001B094
:1030A000F0BD000080B52338042808D8DFE800F020
:1030B000030B0F131700084607F048F880BD0020E7
:1030C00008F0CCF980BD084607F04CF880BD0846F2
:1030D00007F030F880BD084607F0A0F880BD08462C
:1030E00007F0A8F880BD000080B5FFF7E9F880BDC3
:1030F000F0B581B00746002818BF012008F0AEF9EE
:10310000DFB17868C8B13868B8B100256FF00F0634
:1031100078683044006906F0FDFB78688319186907
:10312000197D5A7DD3E90643009406F005FC386802
:103130000135854206F11006EAD301B0F0BD00006A
:1031400010B50446002818BF012008F087F9207840
:10315000002808BF10BD607806F036FC94F9020024
:1031600006F03EFC10BD000010B50446002818BF54
:10317000012008F073F994B3FFF718FB08B128B1E8
:1031800010BD2046FFF788F90028F9D140F6985085
:10319000C2F2000094F85C100022026000291CBFFB
:1031A000A16D016094F8640010B1206E06F0F6FD88
:1031B00094F89C0098B104F16801012000F078F8BF
:1031C00020B904F17801022000F072F8002818BF3D
:1031D00010BD04F18801032000F06AF810BD002042
:1031E00010BD000070B50446002818BF012008F08B
:1031F00035F9207820B16078D4E9011206F07EFF1D
:10320000207B28B1607E217ED4E9043206F0EEFFF7
:1032100094F84C00B8B194F84D0007F00BF894F80E
:103220004E0006F0FBFF94F84F0006F083FF94F881
:10323000500006F097FF94F8510006F087FF94F8CD
:10324000600007F001F8207FC0B144F600711C2037
:10325000C1F6FF71221852680B180430282843F871
:103260001C2CF7D104F12C05002600BF55F82610C0
:10327000F0B206F083FF0136082EF7D194F854001F
:10328000A8B106F08BFEA06D06F0F8FF002000212B
:10329000002206F0E5FF94F85500002808BF70BD35
:1032A00094F85C1094F85D20012006F0D9FF70BD01
:1032B0002DE9F04381B00C460546086889686268CC
:1032C0004E1C0130511C00FB06F8284601FB06F994
:1032D000002D18BF012008F0C1F8E068FFF7ECFDF1
:1032E000032D4FEA101712D0022D2BD0012D3FD104
:1032F000E0684FF2984200EB4001C0F2040252F83D
:1033000021301B0973439F424BD901247FE0E068C1
:10331000C11E0638B1FA81F1B0FA80F049094009BE
:10332000084308F09BF8E0684FF2444200EB40018C
:10333000C0F2040252F821301B0973439F421CD98A
:10334000012464E0E0680238B0FA80F0400908F037
:1033500085F8E0684FF2EC4200EB4001C0F2040255
:1033600052F821301B0973439F4210D901244EE0CB
:103370000020002408F072F849E002EB81014A685D
:10338000120902FB09F2974215D901243FE002EB32
:1033900081014A68120902FB09F2974213D90124FC
:1033A00035E002EB81014A68120902FB09F29742FB
:1033B00011D901242BE08968090901FB08F18F422A
:1033C00011D9012423E08968090901FB08F18F4222
:1033D00010D901241BE08968090901FB08F18F421B
:1033E0000FD9012413E0D4E90032A16806F0FEFCF5
:1033F00000240CE0D4E90032A16806F097FD002417
:1034000005E0D4E90032A16806F002FD0024204660
:1034100001B0BDE8F083000070B50446002818BF75
:10342000012008F01BF8E068FF3818BF012008F001
:1034300015F8FFF7DDF90546043818BF012008F03C
:103440000DF828462146FFF733FF002818BF70BD4E
:103450000A2600BF751E06F0F9FB012E03D0E168B5
:103460002E468842F6D10020002D08BF032070BDF3
:103470002DE9F04F83B0814644F61070C1F6FF701D
:1034800000788B4648454FF000004FF0000588BF9C
:10349000012007F0E3FF8DF80090CDF804B003F0B1
:1034A00031FB44F61877C1F6FF77387840F6A45818
:1034B000C2F20008012188F80000029128B344F606
:1034C00014740026C1F6FF74EA46002506E000BF2A
:1034D00038780136864205F1010516D2206850F889
:1034E00026000028F4D041680229F1D002688168E2
:1034F000504690470028EBD0BBF1000F88F80060E1
:10350000E6D140F2031A354601E04FF0000ABBF164
:10351000010F18BFBAF1000F39D140F69C50C2F22A
:103520000000006850F82900FFF7DEFD8246B0FA7F
:1035300080F040F6A0514009C2F2000181F80090ED
:1035400040B3387802210028029140D044F6147527
:103550000026C1F6FF75E946002003E03978013600
:103560008E4234D2296851F8261031B14A68012AB6
:1035700003D00A688968484690470028EED0BBF11E
:10358000000F88F80060E9D14FF4827A1FE0002034
:103590000028D6D13878D0B100210291E9B2814219
:1035A00008BF013D44F61476EDB2C1F6FF766C46D5
:1035B00003E000BF013D681C09D0306850F82500C9
:1035C0000028F7D00268816820469047F2E703F0B0
:1035D000BDFA504603B0BDE8F08F0000B0B500F072
:1035E000FBF940F6A855C2F200052968086210B13F
:1035F00000200870B0BDD1E903238C6A886902EB12
:103600000301C2B21CB1102000F096F905E02020A1
:1036100000F092F92868012181622868017ED0E9D2
:10362000042311449942016126BF0021017000F07A
:10363000AFF8B0BD10B500F0CFF940F6A854C2F213
:1036400000042168086210B10020087010BDD1E9A3
:1036500003030A7EC118102000F06EF92068017E75
:10366000D0E9042311449942016126BF0021017071
:1036700000F0C8F810BD000080B500F0ADF940F6CC
:10368000A851C2F200010A68106210B10020107047
:1036900080BD906A002804BF01209062107ED2E9AC
:1036A000041308449842106102D200F0CDF880BDA6
:1036B0000020D16810702020102200F03DF980BD5C
:1036C00010B500F089F940F6A854C2F20004216850
:1036D000086210B10020087010BD886A002804BF7D
:1036E00001208862087E0A69104491F8342008613C
:1036F00082F00100087012B900F0C8F810BD142063
:1037000000F062F92268B0F5803F106B4FF00001C5
:1037100038BF0121017010BD10B50446002818BF44
:10372000012007F0B3FE40F6A850C2F2000004608A
:1037300000202070122003F0EFF9002009F04CFE69
:1037400010BD0000B0B540F6A854C2F200042068D5
:10375000002818BF012007F099FE20680178002991
:103760001CBF0220B0BD012101700A2000210022EF
:10377000002500F025FA00F095F900F02DF92168F8
:103780000D70B0BD08440138494208407047000040
:1037900070B540F6A856C2F2000630680723D0E99B
:1037A0000412856A541A2209072A38BF23093DB139
:1037B00080681D010144EAB2102000F0A7F910E072
:1037C000062A28BF0622416A15011020102200F0A7
:1037D0009DF93068EAB2816800690144202000F058
:1037E00095F930684069C0F30F110E2000F0D4F94C
:1037F0003368EEB25868DA69996A9E6100F0E0F9C0
:1038000070BD000070B540F6A855C2F200052868EA
:103810000726D0E904128068521A1309072B38BF13
:1038200016093201D4B201441020224600F06EF98C
:10383000B1B20E2000F0B0F92B685868DA69996AC5
:103840009C6100F0BDF970BDB0B540F6A854C2F25D
:1038500000042068D0E904128068551A702D28BF32
:1038600070250144EAB2102000F050F920680122CE
:1038700000F12C010C2000F0AFF923685868DA69D8
:10388000996A9D6100F09CF9B0BD0000F0B581B06F
:1038900040F6A856C2F2000635681021D5E904703A
:1038A000C41B702C28BF70242046FFF76BFFA9684B
:1038B00005463944E2B2102000F028F930680122B0
:1038C00000F12C010C20012700F086F93068818F6F
:1038D000082000F061F905F0E0005F280AD83068A0
:1038E0001022816B05F11000C0B200F00FF93068B2
:1038F00080F8347033685868DA69996A9C6100F01E
:103900005FF901B0F0BD000040F0A05141F48051DA
:1039100021F00301096800F00300DFE800F002096C
:103920000507090EC8B27047C1F30721C8B2704736
:10393000C1F30741C8B270472DE9F04381B0814619
:10394000084690460C46002918BF012007F092FD5A
:10395000B8F1040F1ED341F2000C00220323C1F280
:10396000004C002002EB090727F0030757F80C7002
:1039700042F00106390EA154390CA155390A42F022
:1039800002020430A154C2B2E75442F0030343459B
:10399000E8D300E00020C1B2414511D24FF0FF3121
:1039A00051FA80F7C8F100067D1C05EB0900C0B292
:1039B000FFF7AAFFE1194870701901302F46F3D1C3
:1039C00001B0BDE8F083000041F2000100F0FC000E
:1039D000C1F200414058704780B50420FFF7F4FF62
:1039E000000C7F2800F32A80411E3F2900F2398015
:1039F0000020DFE801F0372036383636363B3636E1
:103A000036363636363E363636363636363636364E
:103A1000363636363641363636363636363636363B
:103A20003636363636363636363636363636363636
:103A300036363636364440F2024080BDB0F5007F5F
:103A400008DA80281ED0B0F5807F04BF40F209401C
:103A500080BD06E019D0B0F5806F04BF40F20C4085
:103A600080BD012080BD40F2034080BD40F2044093
:103A700080BD40F2054080BD40F2064080BD40F26E
:103A8000074080BD4FF4816080BD40F20A4080BD98
:103A90000121C4F202010A7802F07F0260F3C7122A
:103AA0000A7070470020C4F2020000BF90F90010B5
:103AB000B1F1FF3FFADC704780B541F2000C4FEAEC
:103AC000900EC1F2004C5CF82E3000F00300DFE8ED
:103AD00000F00216091023F07F4040EA01604CF824
:103AE0002E0080BD23F47F4040EA01204CF82E00D8
:103AF00080BD23F0FF0008444CF82E0080BD23F465
:103B00007F0040EA01404CF82E0080BDF0B581B046
:103B10000546084617460C46002918BF012007F045
:103B2000A9FC042F20D341F2000C00220323C1F290
:103B3000004C002042F00101615CA65C090441EAEE
:103B4000066142F00206A65DE35C2A44043041EAC5
:103B5000062122F00306C2B2194442F00303BB421D
:103B600046F80C10E6D300E00020C1B2B94210D2F2
:103B70004FF0FF3151FA80F07E4200BF471C2044D5
:103B80007A194178D0B2FFF797FFF0190130384623
:103B9000F4D101B0F0BD000041F2000C8208C1F286
:103BA000004C80075CF8223051BFC3EA01404FF659
:103BB000FF7023EA000008444CF822007047000020
:103BC000000661F30F20D1B2084441F20001C1F2B6
:103BD000004108607047000070B50646084614466C
:103BE0000D46002918BF012007F044FC002C08BF37
:103BF00070BD40F6FC7106F0FC00C1F200410844C3
:103C0000291F00BF51F8042F013C40F8042FF9D1BF
:103C100070BD000080B5002000F0E4FA80BD000017
:103C200080B50A2000F0DEFA80BD000080B50B20D0
:103C300000F0D8FA80BD000080B50C2000F0D2FA68
:103C400080BD000080B50D2000F0CCFA80BD0000E2
:103C500080B50E2000F0C6FA80BD000080B50F20B0
:103C600000F0C0FA80BD000080B5012000F0BAFA73
:103C700080BD000080B5022000F0B4FA80BD0000D5
:103C800080B5032000F0AEFA80BD000080B50420AE
:103C900000F0A8FA80BD000080B5052000F0A2FA6F
:103CA00080BD000080B5062000F09CFA80BD0000B9
:103CB00080B5072000F096FA80BD000080B508208E
:103CC00000F090FA80BD000080B5092000F08AFA6B
:103CD00080BD00004FF0FF31002200BF43180131CA
:103CE0000F295A70FAD17047B0B5054600200C462E
:103CF000102D38BF012007F0D5FB41F20000C4F2BF
:103D00000200295C01F07F0164F3C7112954B0BDA2
:103D1000B0B5054600200C46102D38BF012007F035
:103D2000C1FB41F20000C4F20200295C04F03F0232
:103D300001F0C00111442954B0BD0000B0B50546E2
:103D400000200C46102D38BF012007F0ABFB41F2DC
:103D50000000C4F20200295C01F0BF0164F3861187
:103D60002954B0BDB0B50020002500F02FFA00F0B6
:103D700001FC044606E000BFE8B2640801350F28E4
:103D800028BFB0BDE007F7D0E8B200F0F9F9F3E7DB
:103D900010B586B045F2AC43C2F200031C780CB1FA
:103DA00001242AE0022A4FF000041A7025D10122D2
:103DB0000492CDE9001445F2B041C2F2000108605E
:103DC00040F60861C2F200016A46CDE90244ADF84E
:103DD000144004F0AFFC45F2B44048F64121C2F271
:103DE0000000C0F20401016045F2404048F6B10114
:103DF000C1F6FF70C0F204010160204606B010BD9C
:103E0000B0B5054600200C46102938BF012007F048
:103E100049FB2C77B0BD0000B0B5054600200C462C
:103E2000102938BF012007F03DFBAC77B0BD000082
:103E3000B0B5054600200C46102938BF012007F018
:103E400031FBEC77B0BD00002DE9F04706460028B5
:103E500018BF01200C4648F20008002918BF0121B4
:103E60000840C4F2000807F01DFB45F2504AC1F6B5
:103E7000FF7ADAF80000002818BF012007F012FBD3
:103E8000DAF80000217950F82100B0FA80F04009FA
:103E900007F008FB20794FF0000910284FF00000D0
:103EA00038BF012007F0FEFA25793046102105F0D1
:103EB0000F0700F03DF82079217A227D00F040FACA
:103EC0004046394600F0A4FBDAF80000012240F831
:103ED000256050F825100D7050F825003946C0F8BF
:103EE0000C90404600F080FB404600F03FFB30B9AC
:103EF0002268FF2A03D04046394600F057FB20795C
:103F0000D4E9031200F0F4F90020BDE8F0870000C6
:103F1000B0B548F2000500F00F04C4F200052846D1
:103F20002146FFF76DFF28462146FFF781FFB0BD10
:103F3000002908BF704780B5FCF7F3FDBDE880405D
:103F4000704700002DE9F04782B00446DDE90A9889
:103F500000201D4616468A46102C38BF012007F067
:103F6000A1FA45F25040C1F6FF700068002818BF62
:103F7000012007F097FA5FFA89F0012101FA00F0B9
:103F80004FF0FF3151FA80F707EA0600B0FA80F0EF
:103F9000400907F087FA07EA0500B0FA80F0400907
:103FA00007F080FA2046514632462B46CDF8009065
:103FB000CDF8048000F018F8054680B948F20007F3
:103FC000DDE90C2604F00F04C4F200073846214650
:103FD00000F0A0FB38462146324600F06FFB284631
:103FE00002B0BDE8F08700002DE9F04F83B0044631
:103FF000DDE90CA700201D4690460291102C38BF29
:10400000012007F04FFA45F25046C1F6FF763068BE
:10401000002818BF012007F045FA306850F8240046
:10402000002818BF012007F03DFA504600F092FA30
:1040300007F038FA5FFA8AF0012101FA00F94FF02F
:10404000FF3050FA89F606EA0800B0FA80F040091D
:1040500007F028FA06EA0500B0FA80F0400907F0F8
:1040600021FA3E4018BF012660D148F2000B04F04F
:104070000F07C4F2000B5846394600F0C9FA5846FB
:1040800000F0C0FA58463946424600F093FB5846C5
:1040900039462A4600F0F2FA5846394600220023F3
:1040A000CDE900AA4FF0000800F0C6FA02990329F2
:1040B00024D8DFE801F0020A1218584639460022D7
:1040C00000F098FB4FFA89F513E04FFA89F2584651
:1040D000394600F08FFB00250BE04FFA89F5584672
:1040E00039462A4603E0584639460022002500F0AA
:1040F00081FB584639462A4600F0D0FA0D9A5846B8
:10410000394600F033FB58463946012200F002FBE5
:1041100058463946012200F0E7FA45F25040C1F610
:10412000FF70006850F82400C0F80C80304603B0DF
:10413000BDE8F08F70B5054600200C46102D38BF45
:10414000012007F0AFF945F25046C1F6FF7630681E
:10415000002818BF012007F0A5F9306850F82500A5
:10416000002818BF012007F09DF948F2000005F073
:104170000F01C4F20000224600F0A0FA70BD00005A
:10418000F0B581B048F20004C4F2000400F00F055D
:10419000064620462946002200F020FA45F250400B
:1041A000C1F6FF70006850F826706FB13046FFF717
:1041B000AFFE20462946FFF72FFE0120F8607A68FF
:1041C00012B1B868F968904701B0F0BD80B5B0FA97
:1041D00080F0400907F066F948F20000C4F20000E0
:1041E00080BD000010B545F25041C1F6FF7109686D
:1041F00051F82040FFF78CFE34B16268002A08BFF6
:1042000010BDA068E168904710BD00002DE9F04F97
:1042100081B00546002000902846002D18BF0120DF
:104220000F460A9E48F2000A002918BF01210840E3
:1042300098469146C4F2000A07F034F945F2504B13
:10424000C1F6FF7BDBF80000B0FA80F0400907F010
:1042500029F96C4625202146FEF774FBB0FA80F060
:10426000400907F01FF92F202146FEF76BFBB0FA3B
:1042700080F0400907F016F928464021CBF800509D
:10428000FFF756FE504600F077F93968504600F0C7
:1042900087F93979504600F0ADF91020102402F06A
:1042A0003BFC4FF6A830C0F20400051F55F8040F80
:1042B00002F032FC013CF9D10AF5C830FFF70AFDE3
:1042C000B9F1000F18BFB8F1000F0DD066B1A8F119
:1042D0000404A9F1040500BF55F8040F54F8041FA5
:1042E000FFF7B2FD013EF7D1002001B0BDE8F08F2D
:1042F000F0B581B00546002014460E46102D38BF9B
:10430000012007F0CFF845F25047C1F6FF77386833
:10431000002818BF012007F0C5F8386850F82500BC
:10432000002818BF012007F0BDF8386850F82510A4
:104330004E6050F8251000208C6001B0F0BD0000E8
:1043400070B50446002015460E46102C38BF0120DB
:1043500007F0A8F845F25040C1F6FF700068002849
:1043600018BF012007F09EF820460021FFF7BCFC93
:1043700020463146FFF7CCFC20462946FFF7DEFCFD
:1043800020460121FFF7B0FC002070BD70B5054646
:1043900000200C46102D38BF012007F083F845F2AD
:1043A0005046C1F6FF763068002818BF012007F09C
:1043B00079F8306850F82500002818BF012007F070
:1043C00071F848F2000005F00F01C4F20000224627
:1043D00000F054F970BD000070B5054600200C4691
:1043E000102D38BF012007F05DF845F25046C1F6A8
:1043F000FF763068002818BF012007F053F83068B6
:1044000050F82500002818BF012007F04BF848F2AB
:10441000000005F00F01C4F20000224600F07AF916
:1044200070BD000070B5054600200C46102D38BF49
:10443000012007F037F845F25046C1F6FF763068A4
:10444000002818BF012007F02DF8306850F825002B
:10445000002818BF012007F025F848F2000005F0F9
:104460000F01C4F20000224600F0A4F970BD000064
:1044700070B5054600200C46102D38BF012007F00E
:1044800011F845F25046C1F6FF763068002818BF93
:10449000012007F007F8306850F82500002818BF01
:1044A000012006F0FFFF48F2000005F00F01C4F202
:1044B0000000224600F08EF970BD0000B0B5044641
:1044C0000020102C38BF012006F0ECFF45F25045CB
:1044D000C1F6FF752868002818BF012006F0E2FF2A
:1044E000286850F82400002818BF012006F0DAFFE1
:1044F00048F2000004F00F01C4F20000012200F0B5
:104500006DF80020B0BD0000B0B504460020102CAE
:1045100038BF012006F0C6FF45F25045C1F6FF75D1
:104520002868002818BF012006F0BCFF286850F852
:104530002400002818BF012006F0B4FF48F2000054
:1045400004F00F01C4F20000002200F047F8002040
:10455000B0BD000005288FBF002000F03F003721CC
:1045600021FA00F098BF00F0010070470068C0F326
:1045700080007047C06A704770B5044600684FF607
:104580003971CFF6FC71084000262060F5B2204654
:10459000294600F03DF80F2D06F10106F6D370BD57
:1045A000026861F3820202607047000070B506463F
:1045B000002014460D46102938BF012006F072FF76
:1045C00085F00300304490F8001104F00F0201F070
:1045D000F001114480F8001170BD0000002A0CBFEA
:1045E0008176C17670470000002A0CBF01764176C3
:1045F00070470000026822F0100261F304120260AA
:1046000070470000016841F08001016070470000C0
:1046100000EB411000F5805100224FF480538A6076
:10462000C2508A80CA80CA600A618A82CA828A614C
:104630008A83CA83704700002DE9F04381B00746A2
:10464000DDE9089800201C4615460E46102938BFA3
:10465000012006F033FFE80209F0070164F3C70008
:1046600008F0070240EA0120104407EB461141F22E
:104670000602885201B0BDE8F083000070B506461E
:10468000002014460D46102938BF012006F00AFF0D
:1046900006EB451041F21001445070BD70B506465E
:1046A000002014460D46102938BF012006F0FAFEFE
:1046B00006EB451041F21401445270BD70B5064638
:1046C000002014460D46102938BF012006F0EAFEEE
:1046D00006EB451041F21C01425A22F0080264F335
:1046E000C302425270BD000070B506460020144659
:1046F0000D46102938BF012006F0D4FE06EB451008
:1047000041F21C01425A22F0020264F34102425279
:1047100070BD000070B50646002014460D461029F5
:1047200038BF012006F0CAFE06EB451041F21E011B
:10473000435E425AB3F1FF3F014407DD02F40042F9
:104740006FF3DF3413194FF4004206E002F47E42A7
:104750006FF35F2413194FF47E420B8041F2160170
:10476000435A1A402243425270BD000070B50646BB
:10477000002014460D46102938BF012006F09EFE89
:10478000306806EB451141F20802000601EB020019
:104790000AD5016800295CBF01685FEA410105D5BF
:1047A000016864F309010C46046070BD24F04044C4
:1047B000046070BD70B50646002014460D461029F1
:1047C00038BF012006F06EFE06EB45104FF4805115
:1047D000445070BD70B50646002014460D461029A1
:1047E00038BF012006F05EFE06EB451041F20C01D9
:1047F000445070BD70B50646002014460D46102981
:1048000038BF012006F04EFE06EB451041F20401D0
:10481000445270BD10B5B0FA80F040090C4606F065
:10482000E9FE49F22400C4F207000168002C21F0DF
:104830000C0218BF41F00C02026010BD80B50020D0
:1048400000F002F880BD0000B0B549F20404C4F2E3
:10485000070421680025C6F27C05294208BFB0BDC7
:1048600040F6AC51C2F2000151F820104B6913B16F
:10487000022100229847206828402060B0BD000037
:1048800080B5002000F002F880BD000010B549F2AC
:104890000404C4F20704216811F0407F08BF10BD72
:1048A00040F6AC51C2F2000151F820104B6913B12F
:1048B0000021002298474FF04070206010BD00009A
:1048C00080B5002000F008F880BD000080B5002011
:1048D00000F01CF880BD000010B549F20404C4F2D9
:1048E00007042168090458BF10BD40F6AC51C2F25C
:1048F000000151F820108A691AB1D4F80016C9B223
:1049000090474FF40040206010BD000010B549F200
:104910000404C4F20704216811F0406F08BF10BD01
:1049200040F6AC51C2F2000151F820104B6913B1AE
:104930000121002298474FF04060206010BD000028
:1049400080B5002000F002F880BD0000B0B549F24B
:104950000405C4F207052968890358BFB0BD0021CA
:104960000446FFF757FF40F6AC50C2F2000050F883
:10497000240043691BB120460321002298474FF4CD
:1049800000302860B0BD0000704700007047000094
:10499000704700007047000070470000704700003B
:1049A000704700007047000070470000704700002B
:1049B000704700007047000070470000704700001B
:1049C000704700007047000070470000704700000B
:1049D00070470000704700007047000070470000FB
:1049E00070470000704700007047000070470000EB
:1049F00070470000704700007047000070470000DB
:104A000070470000704700007047000070470000CA
:104A100070470000704700007047000070470000BA
:104A200070470000704700007047000070470000AA
:104A3000704700007047000070470000704700009A
:104A4000704700007047000070470000704700008A
:104A5000704700007047000070470000704700007A
:104A6000704700007047000070470000704700006A
:104A7000704700007047000070470000704700005A
:104A8000704700007047000070470000704700004A
:104A9000704700007047000070470000704700003A
:104AA000704700007047000070470000704700002A
:104AB000704700007047000070470000704700001A
:104AC00080B500F0ABFE0168092262F31B61016052
:104AD00080BD0000B0B504460020032C38BF012083
:104AE00006F004FD40F6B050C2F2000050F8242059
:104AF0004FF6D400C0F20400D2F8083250F8245027
:104B000013B120460A219847284600F001F8B0BDAD
:104B1000026A0421C0F20B010A421CBF0162006A52
:104B200070470000016A0622C0F23B02114208BF32
:104B300070470221C0F230010162006A7047000034
:104B400001210163704700001F2988BF704701F0F1
:104B50001F01012202FA01F10163704710B50446FA
:104B600000F0CEFD0021B1EB800F07D0820004F1F0
:104B70007C0300BF013A43F8041FFBD1002808BFA3
:104B800010BD04F67C010022013841F8042FFBD14E
:104B900010BD0000D0F8081B41F40031C0F8081B1C
:104BA00070470000D0F8081B41F48031C0F8081BA2
:104BB0007047000010B50129044610D140F6B050EE
:104BC000C2F2000050F8243003209860D3F800C2ED
:104BD000BCF1000F03D0E0B209210022E047E0B2AF
:104BE00000F002F810BD000070B505460020032D4E
:104BF00038BF012006F07AFC40F6B050C2F2000047
:104C000050F82540D4F81402C0B1A06803282AD077
:104C100094F810022668FFF777FC3068810202D40E
:104C20007168890C7160C0F30340B16886F8480070
:104C300008BAF168B06008BAF06014E04FF6D4002A
:104C4000C0F2040050F8256005213046002201F032
:104C5000D3F830460621002201F0CEF83046072175
:104C6000002201F0C9F800202060A16803290CD0BF
:104C7000A060D4F8006246B1D4F81402012804D12F
:104C80002846082100222346B047207B58B1A0685F
:104C9000002818BF70BD201D08F06AFBB0FA80F034
:104CA000400906F023FC70BD70B5054603284FF09F
:104CB00000000C464FF0000638BF012006F016FC3D
:104CC0004FF6D400C0F2040040F6B05150F8250071
:104CD000C2F2000151F825502146002201F08CF863
:104CE00005EB0414207B10B1201D08F041FBA660E9
:104CF00070BD000040288FBFFF204FF25851C0F216
:104D00000401085C70470000092838BF7047093863
:104D1000062884BF00207047DFE800F00406080A78
:104D20000C0E10000C2070471020704714207047A4
:104D3000182070472020704730207047402070476F
:104D40002DE9F041064600200C46032E38BF012015
:104D500006F0CCFB40F6B050C2F2000050F82680BE
:104D600008EB041757F8080FA8B34FF6D400C0F2A9
:104D70000400396850F82650022930D130462146C7
:104D8000FFF792FF28462146FFF7DEFE2846214620
:104D9000FFF796FE2846214600F09CFC0028F9D03B
:104DA0002846214600F03AFD00680021C0F3036068
:104DB000082808BF40F20131B0F1090618BF0E46BD
:104DC000284621464FF00008FFF7BEFE3046C7F8E0
:104DD0000080BDE8F08140F20130BDE8F081386824
:104DE000012825D130462146FFF75EFF284600F016
:104DF000F9FEC8B1686BC0F3036004F0B7FEA042CF
:104E000003D22846214600F021FF8CB9284605210F
:104E1000002200F0F1FFD8F81402012808D198F818
:104E20001002FFF771FB03E02846214600F00EFF59
:104E30002846214600F0D6FC01281CBF0020BDE812
:104E4000F08130462146FFF72FFF28462146FFF725
:104E50007BFE0020BDE8F08170B5064600201446B8
:104E60000D46032E38BF012006F040FB4FF6D4005C
:104E7000C0F2040050F82660304600F03DFC28B136
:104E800030462946224601F01DF870BD304600F03C
:104E9000A9FB30462946224601F014F8304600F0BE
:104EA0000DFC70BDF0B585B0064600201D461746C6
:104EB0000C46032E38BF012006F018FB3846002FA1
:104EC00018BF012006F012FB4FF6D400C0F2040018
:104ED00050F826602146304600F064FE10B14FF4D1
:104EE000407716E0D7E900100390387A02918DF8E8
:104EF000100030462146FFF727FE0F20019001AA3F
:104F0000304621462B4601F0E1F8074620B177B143
:104F1000C7B1384605B0F0BD0020019001AA304667
:104F200021462B4601F0D2F80746002FF0D104208D
:104F3000019001AA304621462B4601F0C7F80746EA
:104F4000002FE6D130462146FFF7FEFDE1E70000E5
:104F50002DE9F04186B0074603284FF000001C46BB
:104F600016460D464FF0000838BF012006F0BEFA85
:104F70003046002E18BF012006F0B8FA4FF6D400D4
:104F8000C0F2040050F827702946384600F00AFEA7
:104F900020B14FF4407006B0BDE8F081D6E90010B2
:104FA00002AACDE90310B07A31898DF816000820E5
:104FB000ADF814100290384629462346CDF80080FB
:104FC000CDF8048001F02CF906B0BDE8F0810000B6
:104FD00070B5064603284FF000000D464FF0000460
:104FE00038BF012006F082FA40F6B050C2F200004D
:104FF00050F8260000EB051050F8081F21B100689A
:105000000224032808BF0124204670BD2DE9F04F7B
:1050100085B08246002090468B46BAF1030F38BF18
:10502000012006F063FA5846BBF1000F18BF0120BB
:1050300006F05CFA40F6B059C2F2000959F82A00AD
:10504000B0FA80F0400906F051FA4FF6D400C0F2F1
:10505000040050F82A70384600F098FD28B1384610
:1050600000F0C0FA384600F04DFAD8F8181038466B
:1050700000F0F8FD384600F051FA384600F0B2FA78
:10508000384600F063FD504600F07EFD98F814109D
:1050900098B13846002918BF012100F015FE3846A6
:1050A00000F07CFD98F81410814207D138460029A1
:1050B00018BF012101F084F804E019B1012005B006
:1050C000BDE8F08FD8F80C00022802D0384601F075
:1050D00071F898F8080040B1D8F80410384600F08C
:1050E0005FFA10B105B0BDE8F08FD8F84400012890
:1050F00008D1384600F076FD0028DFD0384601217F
:1051000000F0D8FED8F8440018B93846002100F065
:10511000D1FED8F81010384600F0B2FED8F80010D2
:10512000384600F017FE0028DCD1384600F036FD86
:1051300008F11C064ECED8F82C508DE84E00049590
:1051400070B16C463846214600F092FD08F13006F9
:105150004FCE8DE84F003846214600F0C9FD03E0F0
:105160006946384601F034F8D8F80C10384600F09B
:1051700059FED8F80C00032802D0384600F09EFAF9
:10518000504600F0DFF90025002400270BEB040651
:10519000301D002108F0D2F8D8B94BF80450103473
:1051A000B4F5007F07F101073573B560EED1D8F88B
:1051B0004400CBF8140298F848008BF81002002045
:1051C000CBE98000CBE9820049F82AB005B0BDE800
:1051D000F08F002C3FF472AF0BF10404204608F06E
:1051E000B9F8013F04F110044FF00100F6D179E75E
:1051F00070B50646002014460D46032E38BF012028
:1052000006F074F940F6B050C2F2000050F82600E3
:10521000C0E9805470BD000070B5064600201446F9
:105220000D46032E38BF012006F060F94FF6D4007A
:10523000C0F2040050F82600294600F0B3FC002814
:105240001CBF4FF4407070BD3046294622460023F3
:1052500001F0B0F870BD0000B0B5054600200C4666
:10526000032D38BF012006F041F9284621460022CF
:1052700001F0ECF8B0BD00002DE9F04383B0074623
:1052800003284FF00000984616460C464FF00009E0
:1052900038BF012006F02AF93046002E18BF012041
:1052A00006F024F94FF6D400C0F2040050F827505D
:1052B0002146284600F076FC20B14FF4407003B040
:1052C000BDE8F0830A9821460090384632464346AE
:1052D000CDF8049001F04EF910B103B0BDE8F083B1
:1052E00028462146012200F087FD03B0BDE8F08387
:1052F0002DE9F0410446002090460F46032C38BFAC
:10530000012006F0F3F84FF6D400C0F2040050F884
:105310002440204600F0F0F9054610B9204600F080
:1053200061F9204600F05EFCE0B1204600F0A6FAEC
:10533000064638463146424600F0A4FA014676B1A8
:10534000022E06D0012E14BF4FF0FF3141EA114169
:1053500005E041EA116040EA114040EA112120468F
:1053600000F090FE002D18BFBDE8F081204600F04F
:10537000A5F9BDE8F08100002DE9F04381B00446B5
:105380000020984616460F46032C38BF012006F031
:10539000ADF84FF6D400C0F2040050F82440204687
:1053A00000F0AAF9054610B9204600F01BF9204686
:1053B00000F0C6F91F2E14D8B04212D3204600F0D8
:1053C00011FC20B1204600F041FAB04212D2012F68
:1053D00028D067BB20463146424600F063FE55BBED
:1053E00026E015B9204600F069F94FF4407001B08D
:1053F000BDE8F083204600F041FA81463846494630
:10540000424600F03FFAB9F1020F024617D0B9F157
:10541000010F1BD0B9F1000F1AD0204631464FF0D2
:10542000FF3217E020463146424600F02DFE15B906
:10543000204600F043F9002001B0BDE8F08342EAC5
:10544000126040EA124040EA122201E042EA1242AF
:105450002046314600F020FE002DECD1E8E70000A8
:10546000B0B5054600200C46032D38BF012006F0DC
:105470003DF84FF6D400C0F2040050F825502846FD
:1054800000F03AF920B12846214600F015FEB0BDE3
:10549000284600F0A7F82846214600F00DFE2846D1
:1054A00000F00CF9B0BD0000F0B581B0044600205A
:1054B00015460F46032C38BF012006F017F84FF6AB
:1054C000D400C0F2040050F82440204600F014F943
:1054D000064610B9204600F085F8012F0AD01FB902
:1054E0002046294600F058FE16B9204600F0E6F89E
:1054F00001B0F0BD2046294600F04AFE002EF7D14B
:10550000F3E700000168002948BF7047016841F0D7
:10551000004101600168C902FCD570470168C902F9
:1055200058BF7047016821F000410160016821F017
:1055300080410160016821F080510160016809012A
:10554000FCD47047B0B5044638B94FF61010C0F21D
:10555000040050F8240001F0DFFA4FF6EC00C0F22E
:10556000040050F8240001F0D7FA4FF6E000C0F232
:10557000040050F8240001F0CFFA4FF6F800C0F212
:10558000040000EB84040025605910F1800118BF6D
:1055900001F0C2FA0C35182D08BFB0BDF4E70000C9
:1055A00070B50E46054600F0F5FA0446C0B9284627
:1055B00000F0A6F8296880B241F000512960696BBB
:1055C00066F31B6169634FF0FF31A96440B105F6D2
:1055D0007C016FF0604200BF013841F8042FFBD11D
:1055E000204670BDF0B581B00446006840F08040B0
:1055F0002060206840F0805020602068B0F1FF3FBC
:1056000001DD012604E02068002620F00040206033
:105610000020A060204600F0BDFA0546204600F0BC
:1056200067F86DB198B940F2D92500BFA768204648
:1056300000F05EF8AF420AD80028F7D007E000BFBC
:1056400028B9A568204600F053F8B32DF8D9206892
:10565000C0010AD4A06A2168226842F00072226068
:1056600022689201FCD4A062216036B9206840F023
:10567000004020602068C002FCD501B0F0BD0000F1
:10568000B0B504460020032C38BF012005F02EFFE2
:1056900040F6B050C2F2000050F824204FF6D4007B
:1056A000C0F20400D2F8083250F8245013B120465A
:1056B0000A2198472846FFF735FAB0BD016821F066
:1056C00080510160016821F0804101600168C901D9
:1056D000FCD470471F2982BF0020C0B27047006B06
:1056E00001F01F0101228A401040C840C0B270473B
:1056F0000068C0F3006070470068C0F30060704746
:1057000080B54FF0000E08A20FF2280C002300BF56
:1057100052F82310814208BF5CF823E00133032BC9
:10572000F6D1704680BD00BF0040024000500240EC
:1057300000B0024020000000200000002000000017
:10574000006800F07F0070472DE9F0418046104668
:1057500014460D46002A18BF012005F0BBFE404646
:10576000294600F05BF80646074656F8080BC0F3DA
:105770000340FFF7C9FA0546404600F06FF885423E
:1057800003D9404600F06AF8054684F84850386866
:1057900020607968800258BF890C15F0FC006160B8
:1057A0000ED0391D042200BF51F8043FA7181BBAC0
:1057B0007B60131D82421A46F6D3181FC0B200E068
:1057C0000020A84228BFBDE8F08104F1080100BF15
:1057D00080F00302B25C0A5401308542F8D1BDE882
:1057E000F08100001F2982BF0020C0B27047806A8C
:1057F00001F01F0101228A401040C840C0B270472A
:105800001F2984BF00207047826A006B01F01F01CE
:105810001040C84000F0010070470000B0B50C46D1
:10582000054600F01BF80830C0B24FF40071B1FB20
:10583000F0F18008C9B2B4FBF1F202FB1141484318
:1058400000EBC21005EB80008030B0BD406B07213B
:10585000C0F3036001EB40007047000010B5044640
:1058600000F098F900284FF0080004D0D4F8001C8C
:10587000C1F301418840C0B210BD00000068C0F310
:1058800001207047034602294FF0000016D001297D
:1058900006D021B9012B02F0404013D03BB1704734
:1058A000012B02F0404015D0002B18BF704700219B
:1058B000C3F6F87101EAC24108437047022B38BFB2
:1058C000100670474FF6FE71C3F6FF7101EA420100
:1058D000084370470021C3F6F87101F5E02101EAA1
:1058E0000241084370470000D0F8080BC0F3404065
:1058F00070470000D0F8080BC0F30040704700006C
:105900002DE9F04393B0074603284FF000004FF015
:10591000000438BF012005F0E9FD4FF6D400C0F2C5
:10592000040050F8275040F6B050C2F2000050F882
:10593000278028460021FFF763FF00BFC10707D17A
:10594000013428462146FFF75BFF202CF6D12024A6
:1059500000285DD0284600F045F9072C05D820B175
:105960003846214600F058F808E008EB041080683B
:10597000012803D13846214600F09AF808EB0410BC
:10598000814659F8081F022929D1407B88B1284651
:10599000214600F02BF96A4628462146FFF7D4FE3F
:1059A000284600F045FE009800F07060B0F1806F6E
:1059B00003D128462146FFF7C7F80020C9F80000A8
:1059C000D8F8006226B13846042122464346B04743
:1059D000D9F8000018B938462146FFF765F928467E
:1059E0002146FFF70DFF98B1284600F0FBF8072C81
:1059F0000AD848B1D8F8080050B928462146FFF720
:105A0000A3F813B0BDE8F083D9F800000028F4D063
:105A100013B0BDE8F0830000F0B581B004464FF646
:105A2000D400C0F2040050F8247040F6B050C2F226
:105A3000000050F824500E4607291FD0062E27D00C
:105A4000052E33D1A868012830D12968384600F0E6
:105A5000D3F838463146FFF777F80020A860D5F82C
:105A6000007227B12046012100222B46B847A868C2
:105A7000E0B92046FFF7B8F801B0F0BD384631462E
:105A8000FFF762F8D5F8007287B12046032108E0DD
:105A900038463146FFF758F8D5F8007237B120463E
:105AA000022100222B46B84701B0F0BD01B0F0BD85
:105AB0002DE9F04180464FF6D400C0F2040050F8C2
:105AC000287040F6B050C2F2000050F82860384606
